:02000004700288
:10000000464346420004015600000000010303007D
:1000100000000000000000000000000000000000E0
:1000200000000000000000000000000000000000D0
:1000300000000000000000000000000000000000C0
:1000400000000000000406000000000000000000A6
:100050000000800000000000000000000000000020
:100060000000000000000000000000000000000090
:100070000000000000000000000000000000000080
:10008000EB04180A063204260000000000000000FD
:100090000000000000000000000000000000000060
:1000A0000000000000000000000000000000000050
:1000B0000000000000000000000000000000000040
:1000C0000000000000000000000000000000000030
:1000D0000000000000000000000000000000000020
:1000E0000000000000000000000000000000000010
:1000F0000000000000000000000000000000000000
:1001000000000000000000000000000000000000EF
:1001100000000000000000000000000000000000DF
:1001200000000000000000000000000000000000CF
:1001300000000000000000000000000000000000BF
:1001400000000000000000000000000000000000AF
:10015000000000000000000000000000000000009F
:10016000000000000000000000000000000000008F
:10017000000000000000000000000000000000007F
:10018000000000000000000000000000000000006F
:10019000000000000000000000000000000000005F
:1001A000000000000000000000000000000000004F
:1001B000000000000000000000000000000000003F
:1001C000000100000010000000000000000000001E
:1001D000000004000000000000000000000000001B
:1001E000000000000000000000000000000000000F
:1001F00000000000000000000000000000000000FF
:10020000FFFFFFFFFFFFFFFFFFFFFFFFFFFFFFFFFE
:10021000FFFFFFFFFFFFFFFFFFFFFFFFFFFFFFFFEE
:10100000D10020410020027000000000B8020470EE
:1010100020100270001002700000000000000000AC
:10102000000002700000400000000000FFFFFFFF12
:10103000FFFFFFFFFFFFFFFFFFFFFFFFFFFFFFFFC0
:10104000FFFFFFFFFFFFFFFFFFFFFFFFFFFFFFFFB0
:10105000FFFFFFFFFFFFFFFFFFFFFFFFFFFFFFFFA0
:10106000FFFFFFFFFFFFFFFFFFFFFFFFFFFFFFFF90
:1020000000000220F92202704524027099CB027070
:1020100000000000000000000000000000000000C0
:102020000000000000000000000000004D240270CD
:1020300000000000000000005124027055240270CE
:102040007948027081480270894802709148027094
:1020500099480270A1480270A9480270B148027004
:10206000B9480270C1480270C9480270D148027074
:10207000D9480270E1480270E9480270F1480270E4
:10208000F948027001490270094902701149027051
:1020900019490270214902702949027031490270C0
:1020A0003949027041490270494902705149027030
:1020B00059490270614902706949027071490270A0
:1020C0007949027081490270894902709149027010
:1020D00099490270A1490270A9490270B149027080
:1020E000B9490270C1490270C9490270D1490270F0
:1020F000D9490270E1490270E9490270F149027060
:10210000F9490270014A0270094A0270114A0270CC
:10211000194A0270214A0270294A0270314A02703B
:10212000394A0270414A0270494A0270514A0270AB
:10213000594A0270614A0270694A0270714A02701B
:10214000794A0270814A0270894A0270914A02708B
:10215000994A0270A14A0270A94A0270B14A0270FB
:10216000B94A0270C14A0270C94A0270D14A02706B
:10217000D94A0270E14A0270E94A0270F14A0270DB
:10218000F94A0270014B0270094B0270114B027048
:10219000194B0270214B0270294B0270314B0270B7
:1021A000394B0270414B0270494B0270514B027027
:1021B00005820270594B0270614B0270694B0270CC
:1021C000714B0270794B0270814B0270894B027027
:1021D000914B0270994B0270A14B0270A94B027097
:1021E000B14B0270B94B0270C14B0270C94B027007
:1021F000D14B0270D94B0270E14B0270E94B027077
:102200004982027039820270F14B0270F94B027000
:10221000014C0270094C0270114C0270194C027092
:10222000214C0270294C0270314C0270394C027002
:10223000414C0270494C0270514C0270594C027072
:10224000614C0270694C0270714C0270794C0270E2
:10225000814C0270894C0270914C0270994C027052
:10226000A14C0270A94C0270B14C0270B94C0270C2
:10227000C14C0270C94C0270D14C0270D94C027032
:10228000E14C0270E94C0270F14C0270F94C0270A2
:10229000014D0270094D0270114D0270194D02700E
:1022A000214D0270294D0270314D0270394D02707E
:1022B000414D0270494D0270CCEB047000000020CB
:1022C000C40400003CAA047000000000904100001B
:1022D000CCEB04700000202000000000000800206B
:1022E000A497000090410000A49E0100000020205F
:1022F000805E0600FFFFFFFFF8B572B60BF090FBA3
:102300004D4F4E4BBB429C4630D2DCE900140CF1E1
:102310000C0C5CF8043C0A4633B341EA04000E1D81
:10232000013BA51BC0F3020018BF0125002818BF00
:102330000025002D6ED02F2B6CD99A08651A0B46FC
:102340000132560801EBC606E818083313ED027B8C
:10235000B34280ED007BF7D122F00103D20703D511
:1023600051F8232044F82320BC45CED3344B9C4560
:102370004AD2013B0CF110020CF108050026A3EB38
:102380000C0C2CF0070C9FED2A7B944455E9023489
:102390001A46B4B3611EC3F380078808172900F1F9
:1023A000010043D9A7B34FF0040E42F8046BC01BE1
:1023B00003EB8703410803EBC101A3EC027B9942C5
:1023C000FBD120F00101884202EB81020EEB810378
:1023D00017D0191D16608C4213D903F108015660FD
:1023E0008C420ED903F10C0196608C4209D903F19D
:1023F0001001D6608C4204D9143316619C4288BF08
:10240000566108356545C1D162B61DF04FFCFEE747
:10241000BE46CCE723F00303651A33441046511936
:10242000043200689A420860F8D19DE70023D0E7A3
:102430000000000000000000DC220270B8220270E0
:10244000F4220270FEE700BFFEE700BFFEE700BF18
:0C245000FEE700BFFEE700BFFEE700BF94
:10246000F0B5831E83B0284F25A5D5E90045CDE9F9
:102470000045DCB20025012C3D6037D81646234AC2
:102480001478002C36D102AD4FF0010C05EB83031C
:1024900082F800C01E4A53F8085C1E4B83F85700B0
:1024A000DA60D5F824011C4A10F01C0F5D609A60B8
:1024B00000F01F0283F8552003D16446204603B084
:1024C000F0BDD5F8A8211846196022F00302C5F81E
:1024D000A821D5F8A82142F00202C5F8A82100F0F1
:1024E000C7F830603860204603B0F0BD06242046AF
:1024F00003B0F0BD064BEB60FFDE00BFAFF3008022
:1025000000002E4000022E40200E0020800E0020F1
:10251000000C0020240E0020000800204FF0010CC9
:1025200030B5624589B04FF000048DF81A00ADF85F
:1025300018408DF81BC08DF81CC08DF80820CDE91F
:10254000043103D043F2215009B030BD0E4D04AB2D
:102550001C222146284603931DF0B1FB69462846FC
:102560002D610BF031FB05F1140128690BF042FBE2
:1025700005F1180128690BF04BFB044B2A69204632
:102580001A6009B030BD00BF040E0020000E00200C
:1025900030B4334984B00346144604AD012B07C957
:1025A00005E90700A3F10600B0FA80F04FEA5010E9
:1025B0000CD9991ECAB2012A0CD99A1FD2B2012A8B
:1025C00008D9A3F10A02D2B2012A03D9012004B02A
:1025D00030BC7047234D019505F58055029504AD3B
:1025E00005EB820252F80C2C002AEFD001EB4101DE
:1025F0001D4D0A3B4901012B0D444FF4C011C5F894
:10260000B411116B41F480411163116B41F400412D
:1026100011634FF00001116000D928B14FF400217F
:102620004FF4801351635363ACB16378A1781B04FA
:1026300020780902146903F4702300F00F0001F4FC
:1026400070610B4309490343214000200B43136190
:1026500004B030BC7047204604B030BC704700BFA7
:10266000BC02047000900D4000800D40F0F0F0FFBF
:10267000C3684FF0400C1A4603F12001036130B4E7
:10268000196003F1600452F8401B0A600A6803F104
:102690008001146003F1A0041268116003F1C0010D
:1026A0001268146003F1E0041268116003F5807190
:1026B0001268146003F590741268116003F5A0713C
:1026C0001268146003F5B0741268116003F5C071EC
:1026D0001268146003F5D0741268116003F5E0719C
:1026E000126803F5F0731460102412681160116809
:1026F00000220B600B6841681A6080F85440D1F8E2
:102700004041836824F47F04C1F84041D1F840413E
:10271000C1F84041D1F8A84144F00804C1F8A841EB
:10272000D1F8A84124F00404C1F8A84101249C6018
:102730001D686CF31A451D6093F83850426162F3CE
:10274000000542639C6483F838501D6C6CF31A4595
:102750001D6493F87850826162F300058263C3F8C8
:10276000884083F87850D3F880506CF31A45C3F84A
:102770008050C261C26393F8B850C3F8C84062F396
:10278000000583F8B850D3F8C0506CF31A45C3F86D
:10279000C05093F8F850026262F300050264C3F877
:1027A000084183F8F850D3F800516CF31A45C3F888
:1027B000005193F83851426262F300054264C3F855
:1027C000484183F83851D3F840516CF31A45C3F8A7
:1027D000405193F87851826262F300058264C3F835
:1027E000884183F87851D3F880516CF31A45C3F8C7
:1027F0008051C262C264C3F8C84193F8B84162F321
:10280000000483F8B841D3F8C0416CF31A44C3F80C
:10281000C04193F8F841026362F30004026583F853
:10282000F841C1F85831C1F85421D1F8A4310F4A08
:102830009BB21278C1F8A431D1F8A43143F00063FF
:10284000C1F8A431D1F884315AB943F08073C1F88A
:10285000843147220023C1F8482180F8563030BC2B
:10286000704703F08073C1F88431F2E77C9F002049
:102870002DE9F04F4E0087B09946CB0906F01E06B1
:10288000029346EAD116002800F0058183680546C8
:1028900003EB861393F838A0B3011AF0010A0393EF
:1028A00000F0BC8090F85630002B40F0AE8043F62C
:1028B000FF7405A8884693464C44B4F5804F2CBF5E
:1028C000A40B01240AF02EFA95F95430A342C0F06B
:1028D000E8802C69B9F5804FCE4603F1FF332268BA
:1028E00028BF4FF4804E002705EB86062A61A9EB2E
:1028F0000E002246019785F8543001210BEB0703A7
:102900007744216000216160A360A36803F58053D0
:1029100023F47F6323F00F03E360E36803F5805340
:102920002361236903F580536361636903F5805371
:10293000A36163686EF31E436360E369D4F808C063
:102940006EF31E33CCF30B0CE36123F0004323F44E
:102950007F6323F00F0343EA0C03E36118B9636854
:1029600043F4004363606368802161F3070363609D
:10297000736B002B4DD01C607463B8B12C69864614
:1029800095F854308146002F08BF2246B0F5804F9D
:10299000D4F800C003F1FF3328BF4FF4804E85F810
:1029A0005430A0EB0E00C5F810C0A6E718F00F01D8
:1029B00002D1029B002B53D14FEAD808019B08F0AB
:1029C000100848EA0108012101FA08F163BB6B68AD
:1029D000D3F8B001084213D1D3F8400140F480503D
:1029E000C3F84001D3F8B841D3F84001C004F3D58F
:1029F000D3F84001214220F48050C3F8400114D0A4
:102A000005984FF0000A0AF093F9504607B0BDE868
:102A1000F08F74617463CDF804A0AEE74FF0010A43
:102A2000504607B0BDE8F08F6B68A868039C20444F
:102A300082600022C260C3F8B011D3F8B8211142FD
:102A4000DED11D4A07E0C3F8B011D3F8B80108423F
:102A5000D6D1013A2BD0D3F8BC010842F3D0CFE74E
:102A6000AB68039FDC1994F83840A407A4D5B9F1EA
:102A7000000FA1D0DC8E74459ED9DC59C4F30A4402
:102A8000BEFBF4F604FB16E4002C95D1DC5960F390
:102A90005D74DC5190E74FF0030A504607B0BDE883
:102AA000F08F05984FF0020A0AF042F9ADE7059859
:102AB0000AF03EF9A9E700BF7F9698002DE9F0479C
:102AC00002EB4108054684B0002300EB880A01931D
:102AD000DAF81400029330F01F045BD041EAC2110F
:102AE000DFF8B8904FEA88181E46CFB25BB3636830
:102AF000190633D46368E269C3F30E4C0299C2F33A
:102B00001233DAF83420A3EB0C0382420B44029315
:102B10002BD00368CAF81430626812042FD433F043
:102B20001F032CD02B696660236095F854302C610C
:102B3000013385F85430DAF8140030F01F0429D03E
:102B4000019B002BD3D1A368A28B03EA0903C2F334
:102B50000B021343019363681906CBD5DAF83420CE
:102B60004FF0FF3382420293D3D1CAF8146001229E
:102B7000CAF83460AB6843449A60DE60636801A9B8
:102B800028688DF80C708DF80D6000F0ADFFCDE970
:102B90000166C7E704B0BDE8F08700BF00F0FFFFA3
:102BA000B0B10C4B984202D10B4B00221A70436813
:102BB0000020C3F84801D3F8402122F00102C3F8F5
:102BC0004021D3F8402142F00202C3F8402170476F
:102BD00003207047240E0020800E002001F00F011A
:102BE00041F08001FFF744BE01F00F01FFF740BE46
:102BF0002DE9F04F4FEA410885B008F01E0848EA79
:102C0000D118002800F08F8000EB880B82466846C0
:102C10000F460AF087F80023DBF814500FFA88F803
:102C200001934FF0FF3335F01F0502936AD02E4613
:102C3000F37F326843F08003F37732F01F06F7D159
:102C4000FB0807F00F04DFF8E89003F010032343BC
:102C500001249C401EE0DBF81430DBF83420934262
:102C600030D01B68CBF814306A6812042FD433F0CC
:102C70001F032CD0DAF810306E602B609AF85430B5
:102C8000CAF8105001338AF85430DBF8145035F08C
:102C90001F0537D095F91F30002B3DDA6B681906F8
:102CA00020D4019B002BD6D1AB68AA8B03EA090381
:102CB000C2F30B021343DBF834200193DBF814302A
:102CC0009342CED1CBF83460CBF814606B6801A985
:102CD000DAF800008DF80C708DF80D6000F004FF3C
:102CE0000196C7E7DAF80420D2F8B4312343C2F8DA
:102CF000B431D2F8B4312342FBD1D2F8B8312342F7
:102D0000F2D1CEE7DAF808300121002203EB88186F
:102D1000C8F80810C8F80C2000980AF009F800203C
:102D200005B0BDE8F08F032005B0BDE8F08F00BF0F
:102D300000F0FFFF2DE9F04101F00F06CA0883689B
:102D40000546770002F01002CC0947EAD11732435A
:102D500003EB87134FEA87180127974093F8382031
:102D60006FF3000283F83820FFF742FF6B68D3F857
:102D7000B0213A421AD1D3F8B8213A4016D1A96805
:102D800041F8082086B103EB8603002C1646D3F8E1
:102D9000C02114BF6FF40C016FF08C0130460A4063
:102DA000C3F8C021BDE8F081002CF0E702263046D0
:102DB000BDE8F0812DE9F04782B0002800F0AF8037
:102DC0000C4606460F290CD8DFE801F0171F08282B
:102DD000304E686E8B0B0B0B0B0B9510002A40F0DE
:102DE000A3800124204602B0BDE8F087002AF8D075
:102DF00090F8583000241370F4E74268D2F840315C
:102E000043F00103C2F84031ECE742680024D2F8F5
:102E1000403123F00103C2F84031E3E7002AE0D05B
:102E2000117802B0BDE8F047FFF784BF002AD8D080
:102E3000117801F00F04CF09650045EAD115FFF7BD
:102E4000D7FEB368AD015B59C3F3C0321B0440F138
:102E5000CC80002C40F011817268D2F8C03143F070
:102E60000113C2F8C031BDE7002ABAD0117811F0C1
:102E70000F024FEAD11040F0C68072680028D2F8E5
:102E8000C03114BF6FF480306FF001000340C2F80E
:102E9000C03130460024FFF7ABFEA3E7002AA0D0E4
:102EA00000231C4613809DE7002A9AD0147814F062
:102EB0000C0396D1E10914F00F0400F0B7804068CC
:102EC00004F16F0500291C4600EB850314BF4FF485
:102ED000803101215B680B4214BF01230023538022
:102EE00080E7002A3FF47DAF1378002442685B0638
:102EF000C2F8543176E7002464F07F01E5B2304631
:102F00000134C9B2FFF716FF29463046FFF712FF1A
:102F1000042CF1D130460024FFF7AAFB62E703241A
:102F2000204602B0BDE8F08792F802800125B2F891
:102F300000904FEAD80308F00F07414692F803A02B
:102F400003F0100301923B439D40FFF751FE71686F
:102F5000D1F8B0311D427FF445AFD1F8B8311D40F2
:102F60007FF440AF0AF003007B00C9F30A09019A1D
:102F7000012843EAD8134FEAD81800F0A080B468BB
:102F80009E0154F806C004EB831365F39F7C44F85C
:102F900006C01C6869F31A441C60147993F8382041
:102FA00064F3410283F83820002F4DD11A6842F0B3
:102FB00000521A601A6842F400421A60D1F8C02127
:102FC000B8F1000F00F09480800440F44000024308
:102FD000C1F8C02193F838200021474842F001028F
:102FE0000C46016083F83820FCE6002C50D1726852
:102FF000002FD2F8C03114BF4FF4803101210B43B0
:10300000C2F8C031EEE6736803EB8203D3F8C02147
:1030100000284CD022F480324FF48000C3F8C02145
:10302000D3F8C0211043C3F8C00132E74368002938
:10303000D3F8C01114BF4FF480330123194214BFD9
:10304000012300235380CDE6B4FA84F401EB870218
:103050001968640964F35D71196019686FF3CF3101
:103060001960D2F8C041B8F1000F3DD0810441F49D
:1030700040012143C2F8C011ACE7736803EB84033D
:103080000024D3F8C02142F00112C3F8C021A9E600
:103090007368002F03EB840314BF4FF480310121C8
:1030A0001446D3F8C0210A43C3F8C0219AE622F09F
:1030B00001024020C3F8C021D3F8C021B2E7148830
:1030C000B9F5806FB5684FEA8316C4F3C12428BFF1
:1030D0004FF4806955F806C005EB8313013464F39F
:1030E0009F7C45F806C054E7810041F0C001C0E76D
:1030F000800040F0C0006AE7840E0020002800F045
:103100007F812DE9F04F056889B06B68D3F8A42161
:1031100014031AD4D3F84411D3F848210A405106B5
:103120000392C3F8442100F1FE80039BDA0747D4E1
:10313000039B5A0722D4039B1B0603D5AF4A13688F
:103140000133136009B0BDE8F08FD3F8A411002259
:1031500041F40021C3F8A41105A98DF81D20D3F86E
:10316000A43118054CBF172316238DF81C3028688E
:10317000CDE9052200F0B8FC6B68CBE700238DF8A1
:103180001D306A68D2F8844114F48074CDE90533A7
:10319000D1D1D2F8842195F8563012F4007F14BFB3
:1031A0000222002285F85820002BC4D0102305A944
:1031B0008DF81C30286800F097FC85F85640BAE777
:1031C0006B68D3F8AC616EB100244FF0010808FAC7
:1031D00004F75FFA84F93E4240F013810134042C75
:1031E000F5D16B68D3F8BC210292C3F8BC21002A48
:1031F0009ED0002301271A4601930DE0A8F1100389
:10320000DBB2032B40F2D680202F91D0019B0137F7
:103210000133FFB21A460193012302995FFA82F843
:1032200093400B42F0D00F2AE8D8B8F1030FEDD845
:1032300000214FEA4809084609F0FE09CDE90511C9
:1032400005EB890BDBF8143033F01F03DED041446B
:10325000012648EA00084FEA89198E401C4606E01C
:103260005A68100406D41B6833F01F0308D05A684C
:103270001206F5D55A681106C6D45B681A04C3D580
:1032800063681B0647D4059B002B00F088806268AA
:10329000E369C2F30E42C3F312339B1A069A134436
:1032A000DBF814200693DBF834309A425FD01368C1
:1032B000CBF814306268100464D433F01F0361D07B
:1032C0002B6900226260236095F854302C61013331
:1032D00085F85430DBF8143033F01F0394D05A686B
:1032E0001C461106CCD56968C1F8B061D1F8B82187
:1032F0001642C5D1D1F8B0211642FBD1D1F8B801A0
:103300003040BDD1AA684A449360D060C1F8B06132
:1033100063681B06B7D5DBF8143033F01F033FF4A6
:1033200073AF1C46A3E7D3F8AC214FF0FF11C3F8ED
:10333000AC21D3F8BC21C3F8BC21C3F8B411D3F835
:10334000B02112F0FF1FF8D1D3F8843113F4807349
:1033500003D0012385F85630E7E6102205A9ADF821
:103360001C202868CDE9053300F0BEFBDDE6002215
:103370000121CBF81420CBF83420AB684B44996082
:10338000DA6063684FF0000A8DF81C8005A98DF89B
:103390001DA0286800F0A8FBCDE905AA90E7A36866
:1033A000A28B23F47F63C2F30B0223F00F031343BA
:1033B00005936CE74FEA480200211F3ACDE9051159
:1033C000D2B2002B57D1A9680FFA82F9900101EB14
:1033D000821292F8388018F002080CD00A58940033
:1033E000C2F3407806D40B5843F000530B50102121
:1033F000802025E798461021802021E7840E0020B8
:103400007047AB68494628464FEAC41B03EBC41A11
:103410001AF8302FD2090192FFF750FB019A494662
:10342000284682F00102FFF749FB8DF81C908DF8C9
:103430001D800823A9686A685944CDF814A0069332
:10344000C2F8AC71D1E90A07D2F8403143F4005315
:10345000C2F84031D2F840319B04F5D5D2F8403162
:1034600023F40053C1E90C0705A92868C2F84031CC
:1034700000F03AFBB2E698460FFA82F9102180205C
:10348000DEE600BF054B1B6833B15A68D2F84831FD
:1034900043F08003C2F84831704700BF200E00207F
:1034A000014B1870704700BF7C9F00202DE9F04150
:1034B00082B0164604460D460DF10302062100684F
:1034C0001F4600F06BFD9DF80330012B1ED82B78B2
:1034D00013F01F080CD0B8F1010F1BD0B8F1020F88
:1034E0001FD004F10C050520356002B0BDE8F08165
:1034F0002546042155F80C0B2A4600F04FFDA38900
:1035000003F00303A38102233B60EDE7052002B033
:10351000BDE8F08100202546022325F80C0F3B6012
:10352000E2E7AB8801AA052120688DF8043000236A
:103530002546ADF8063000F031FDBDF8063003F049
:10354000030325F80C3FC7F80080CDE72DE9F041D3
:1035500084B0B1F8028005460C46174606210DF1ED
:10356000030200681E4600F019FD9DF80330022B8F
:1035700019D84FEA1822E388012A029320D0022AA0
:103580005FFA88F8D1B212D0032920D021292AD09D
:10359000222932D023293AD00520019A3A6033609B
:1035A00004B0BDE8F081052004B0BDE8F08101AAB7
:1035B00028680C218DF80C8001F086F8029BECE75E
:1035C00001AA0B21286801F07FF8029BE5E7A38898
:1035D00001AA28680D21ADF80C308DF80E8001F09D
:1035E00073F8029BD9E7A38801AA28680E218DF8F9
:1035F0000C3001F069F8029BCFE7A38801AA286884
:103600000F218DF80C3001F05FF8029BC5E7A3880D
:1036100001AA286810218DF80D308DF80C8001F07A
:1036200053F8029BB9E700BF30B583B00D4604469E
:1036300006210DF10702006800F0B0FC9DF807308C
:10364000032B1DD80AD06B880DF1070207212068D3
:103650008DF8073000F0E6FC03B030BD00220721F2
:10366000206800F0DFFC0028F6D101230DF10702ED
:10367000062120688DF8073000F0D4FC03B030BD7F
:103680000520E9E730B583B000230C4605460DF16F
:103690000602062100688DF8073000F07FFC9DF8D7
:1036A0000630012B09D86378032B21D0237813F03F
:1036B0001F0305D16388012B22D0052003B030BD44
:1036C000022BFAD16388002BF7D1A1880B0706D112
:1036D0009DF80730C9B22868FBB100F023FC9DF8C3
:1036E0000730221DA3B10521286800F097FFE5E708
:1036F00001238DF80730237813F01F03E0D1D9E7B9
:103700000DF107021421286800F0DEFF03B030BD80
:103710000621286800F082FFD0E700F021FCDEE7F8
:1037200070B582B01546044606210DF10702006807
:103730001E4600F033FC9DF80730012B0AD804F137
:103740000C020123152133602A60206800F0BCFFC1
:1037500002B070BD052002B070BD00BF30B585B0AD
:103760000D46044606210DF10F02006800F016FC1C
:103770009DF80F30012B17D800230DF10F02062101
:1037800020688DF80F3000F04DFC6B887BB1AA1CCF
:1037900003212068019200F041FF019A092120686D
:1037A00000F092FF05B030BD052005B030BD01230B
:1037B0000DF10F02062120688DF80F3000F032FC69
:1037C000E5E700BFF0B583B0174604460E460DF19D
:1037D0000702062100681D4600F0E0FB9DF8073057
:1037E0006BB9B388012216212A601B0204F10C0276
:1037F0003A60A381206800F067FF03B0F0BD0520A8
:1038000003B0F0BD30B583B00D46044606210DF17E
:103810000702006800F0C2FB9DF8073093B9AA8840
:103820000421AB78254643EA022355F80C0BA3810B
:103830002A4600F0F3FE2A460A21206800F044FFE1
:1038400003B030BD052003B030BD00BF2DE9F0410D
:1038500082B0904604460D460DF10702062100682D
:103860001F4600F09BFB9DF8071079B92646AB88F0
:10387000082156F80C0BA381324600F08FFB02237F
:10388000C8F800603B6002B0BDE8F081052002B0DE
:10389000BDE8F08100232DE9F04188B0CDE9023385
:1038A0004B68013341D0B2FA82F514466D09002A03
:1038B0003BD00F460DF1070206210646D4F80880DA
:1038C00000F06CFB3B7A53B37B68082B2DD13B682F
:1038D0005BB3D3F80220C8F80220D888A8F8060005
:1038E0001A78198812F0600F5B78A8F8001050D190
:1038F0000C2B0FD8674A52F823505DB103AB20461A
:1039000002AA4146A84705282FD198F8002012F0B6
:10391000600F64D18021304600F004FB06E09DF882
:103920000720032A65D0796819B9052008B0BDE8D9
:10393000F081B8F80620002AF7D098F9000098F82E
:1039400000200028F1DB12F0200070D15306E1D5F1
:103950003B6804AA8DF81C00304606911321CDE97E
:10396000048300F0B1FE0528D4D0039BB8F80620EC
:10397000934201D913460392029A0021304600F087
:10398000E9F90028D2D198F90030002B5BDB002048
:10399000CCE7F8B113061DD497066BD4540621D595
:1039A0000021012304AA06900591304613218DF8C9
:1039B0001C30CDF8108000F087FEDDE90523CDE94D
:1039C000022300289FD10146B8F80630304600F0A7
:1039D0000FFAABE712F0200318D151063AD452B2D5
:1039E000002A97DBB8F80610B1FA81F14909C9013C
:1039F00091E798F8010003AB264A414652F820505F
:103A000002AA2046A84708B0BDE8F08100230121A2
:103A100004AA069030460593CDF810808DF81C104E
:103A200000F0FCFDDDE90532CDE902326BE73868D4
:103A300004AA069101218DF81C30CDE9048030469E
:103A400000F0ECFD8FE7034602460146304600F0E9
:103A5000CFF96BE7012404AA0690132130468DF8B4
:103A60001C40CDE9048300F02FFEDDE90532CDE9ED
:103A7000023248E7012104AA069030468DF81C1056
:103A8000CDE9048500F0CAFDDDE90523CDE9022377
:103A900097E700BFC802047030B5114B87B00546E8
:103AA000CDF806304023049103AAADF8043001A9F3
:103AB0000C4B039300F0E2F9044610B1204607B026
:103AC00030BD03AA01A928468DF8064000F0D6F9BA
:103AD00004460028F2D08021284600F0FBF9EDE7EB
:103AE000800001009538027000297DD0B0FA80F284
:103AF000F0B5520985B00446002872D086684EB3EE
:103B00000B7A162B67D0172B5FD0102B25D013F014
:103B10000C051FD15A0002F01E0242EAD31303EB38
:103B20004302580004EB8202D6689EB10F680197E9
:103B30004F68497A02978DF80C10002956D02575E8
:103B400084F820500344204601A904EB8304226931
:103B5000B04700E0012005B0F0BD0121436880F8C6
:103B60006F1023B15B690E2100689847A668002595
:103B70000223012120462A4684F86E3084F86C50D6
:103B8000257584F8205084F82C5084F8385084F837
:103B9000445084F8505084F85C5084F86850C4E96C
:103BA0000355C4E90655C4E90955C4E90C55C4E9EF
:103BB0000F55C4E91255C4E91555C4E91855B04765
:103BC000284684F86F5005B0F0BD0821334605B093
:103BD000BDE8F04018470721334605B0BDE8F04086
:103BE0001847032005B0F0BD032070471175A9E701
:103BF0002DE9F04182B0002A6AD0414C064601A866
:103C00008846174609F08EF825685DB194F86D3046
:103C10000198B34255D0022609F08AF8304602B026
:103C2000BDE8F081019884F86D6009F081F8B31E59
:103C3000C4F8088084F86D60012B84F86C5084F817
:103C40006F50257584F8205084F82C5084F8385033
:103C500084F8445084F8505084F85C5084F86850DC
:103C6000C4E90355C4E90655C4E90955C4E90C552E
:103C7000C4E90F55C4E91255C4E91555C4E91855EE
:103C800011D8204B30462246214663603C60636871
:103C90001B689847064600BB0223304684F86E3006
:103CA00002B0BDE8F08101A8062609F03BF80198B2
:103CB000256084F86D5009F03BF8304602B0BDE84D
:103CC000F081012609F034F8304602B0BDE8F081F9
:103CD0000326304602B0BDE8F08163681BB15B6823
:103CE000206898476560002501A809F01BF8019835
:103CF000256084F86D5009F01BF83D608EE700BF29
:103D0000880E0020FC02047040B1436823B10022F9
:103D10005B6900681146184706207047032070470A
:103D2000B0B1436830B5044683B023B15B68006826
:103D3000984700236360002501A808F0F3FF01986D
:103D4000256084F86D5008F0F3FF284603B030BDBD
:103D5000032070472DE9F04383B0002842D09846F5
:103D6000436806466BB301F00F0141F080054FEA4E
:103D7000450C4CF0010C5FFA8CFC0CEB4C0C00EB8E
:103D80008C0494F81490B9F1000F15D101A81746CE
:103D900008F0C8FF01230198237508F0C9FF2946E0
:103DA00043463A46D6E90005AD68A847054668B9D6
:103DB000284603B0BDE8F0830225284603B0BDE8DD
:103DC000F0830625284603B0BDE8F08301A808F07B
:103DD000A9FF019884F8149008F0AAFF284603B0C0
:103DE000BDE8F0830325284603B0BDE8F08300BF9B
:103DF0002DE9F04383B000283BD01F4643680446BA
:103E000033B301F00F05AE0006EB450600EB860666
:103E100096F81490B9F1000F15D101A8904608F05A
:103E200081FF01230198337508F082FF29463B4644
:103E30004246D4E90005EC68A047044668B920462C
:103E400003B0BDE8F0830224204603B0BDE8F08350
:103E50000624204603B0BDE8F08301A808F062FF05
:103E6000019886F8149008F063FF204603B0BDE87F
:103E7000F0830324204603B0BDE8F08340B319B3B8
:103E800012B310B591F802C01CF00C0E4FEADC130F
:103E90001CD14FEA4C0C14680CF01E0C43EA0C03C6
:103EA00003EB430300EB8303DC60546883F814E006
:103EB00042681C6132B153690A4600680221BDE8BC
:103EC00010401847062010BD04207047042010BD84
:103ED0000320704730B583B08DF80710F8B1436800
:103EE00004460D46CBB15B690DF107020321006862
:103EF000984715F00C020DD16B0003F01E0343EA46
:103F0000D51303EB430304EB8304C4E903222275B6
:103F100003B030BD042003B030BD0620E9E7032024
:103F200003B030BD00B511F00C0F83B08DF8071051
:103F30000BD190B1436863B15B690DF107020421B5
:103F40000068984703B05DF804FB042003B05DF8F7
:103F500004FB062003B05DF804FB0320F2E700BF7A
:103F600000B511F00C0F83B08DF807100BD190B194
:103F7000436863B15B690DF107020521006898474A
:103F800003B05DF804FB042003B05DF804FB0620D9
:103F900003B05DF804FB0320F2E700BF002A37D02E
:103FA0008B1E062B3CD8DFE803F00D2C141B2227B8
:103FB0000400002830D04368002B2BD05B69092116
:103FC0000068184740B3436823B35B690F2100685A
:103FD000184708B34368EBB15B69062100681847CE
:103FE000D0B14368B3B15B6907210068184790F806
:103FF0006E3000201370704790F86C300020137002
:10400000704758B143682BB15B69102100681847AD
:104010000420704706207047032070470846704709
:1040200001207047CB1E0B2B07D8DFE803F01206E8
:10403000061B2206063C434A060901210846704732
:10404000002848D04368002B42D05B690B210068F0
:1040500018470028F2D04368002B39D05B69112142
:1040600000681847002AE8D01378002180F86E30E5
:10407000E4E790F86E30032B2FD0002ADDD092F8C1
:1040800000C00323416800F16C0280F86CC080F826
:104090006E300029D2D04B691421006810B59847C2
:1040A0000021084610BDB0B143688BB15B690C219B
:1040B0000068184778B1436853B15B690D21006807
:1040C000184740B143681BB15B690A210068184773
:1040D0000621084670470321B0E7436800F16C02EF
:1040E000002BF5D05B6908210068184710465AB1CB
:1040F0000022436880F8212023B11B6813B10A46CF
:1041000001211847012070470320704710465AB11B
:104110000022436880F8222023B11B6813B10A46AD
:10412000022118470120704703207047037F002BAE
:1041300067D0426892682DE9F047517986B004460D
:1041400099425AD31268002A57D06FF0604119443F
:1041500012F8310002EBC10200284ED05368002251
:1041600003E0824203F10C0347D01978013203299E
:10417000F7D1187A002857D0A57F00225E6803E0A7
:10418000824206F110064FD031780132A942F7D1B0
:10419000DB78A660637733797BB30025DFF8908006
:1041A000DFF89090AA462F46B0684FF0FF3C8DF89C
:1041B000087003AA431901A993F804E08DF809E0F7
:1041C000405D8DF80600B3F802E0ADF804E05B78DE
:1041D0008DF80730C30916D120680AF1010AC4F826
:1041E00014C0063584F82470A761CDE90384FFF775
:1041F00045FE33795345D7DC00E0012006B0BDE829
:10420000F0870120704720680AF1010A84F82370C2
:1042100006352761C4F80CC0CDE90394FFF72EFEE4
:1042200033799A45C0DBE9E7DB7801206377E5E77E
:104230000D410270ED4002702DE9F04F85B0B2B132
:104240000446A0B10139154605290BD8DFE801F075
:1042500003606A90B6141368187800F01F06012EE8
:1042600000F0D4800126304605B0BDE8F08F03266B
:10427000304605B0BDE8F08F4368002BF2D082686D
:10428000002AEFD010790028ECD0002701264FF04B
:10429000FF3AB94602E00137B842E4DD936807EB24
:1042A000470813F818102B789942F4D12068FFF7CB
:1042B00057FE2B7806465FEAD31B40F0FB8094F84C
:1042C000243013B3626984F82490531C1DD0A36872
:1042D00020689B6813F81810A36901F00F01FFF71D
:1042E00087FD064678B163698DF80C900193A36948
:1042F00084F82290029363682BB11B681BB101AA5A
:10430000022120469847C4E905A9A2681079C2E7AE
:10431000002301260377A0F821308360304605B0E2
:10432000BDE8F08F4368002B9CD01278037F9A423F
:1043300098D0A3B1836893B11A796AB1002606EBCD
:1043400046029B682068013613F81210FFF7C2FD81
:10435000A3681A799642F2DB0023A3602A7800232F
:1043600020462277A37705B0BDE8F04FFFF7DEBE09
:104370004368002B3FF476AF1388427FB2EB132FD4
:104380007FF470AFDEB2837FB3423FF46BAF8368DC
:104390008BB11A796AB1002505EB45029B6820684C
:1043A000013513F81210FFF795FDA3681A799542AD
:1043B000F2DB0023A3602046A677D4E74368002BF6
:1043C0003FF450AF8268002A3FF44CAF10790028C8
:1043D0003FF448AF01260027B046936807EB47013A
:1043E00013F811102B788B420CD1DB09206814BF15
:1043F00084F8233084F824802978FFF793FDA2689D
:10440000064610790137B842E7DC2CE7617F1A795C
:1044100091427FF428AF5A78013A0A2A07D8DFE898
:1044200002F008231806060606063A32260005267C
:1044300019E75B8801AA616820465BBAADF80C30C9
:104440000B68032198470646DDE90123C5E90123EE
:1044500009E704F12007636820463A4604211B68F7
:1044600098476F600646FEE604F11F07F3E7224611
:104470005B880821204602F8203F63681B6805B06E
:10448000BDE8F04F18475B882246072120461B0AEB
:1044900002F81F3FF1E75B882A7B5BBAADF80C306E
:1044A000002A33D0A96801AA636820461B680291DC
:1044B0000921C7E794F82330002B3FF426AFE268C8
:1044C00084F82390511C3FF420AFA36820689B68B8
:1044D00013F81810236901F00F01FFF73BFC0646A3
:1044E00078B1E3688DF80C900193236984F82190EA
:1044F000029363682BB11B681BB1594601AA204681
:104500009847A268C4E903A91079C4E6D5E9016116
:10451000636801AA019620461B680291062198470C
:104520000646A0E6F0B5124C83B00E46256825B1CC
:10453000A36ABBB1022003B0F0BD27463946019201
:1045400000F050F80028F6D105EB850354F833103D
:1045500004EBC30451B1FF23019A66602077A3776F
:104560001760E8E704F128070125E7E70320E2E701
:10457000F80E0020A8B1F8B5044690F8210090B9D3
:10458000012784F8217094F8237017B1C4E903233C
:10459000F8BD2068FFF7DEFB0028F9D084F8217011
:1045A000F8BD032070470220F8BD00BFA8B1F8B5E0
:1045B000044690F8220090B9012784F8227094F8FC
:1045C000247017B1C4E90523F8BD2068FFF710FC7B
:1045D0000028F9D084F82270F8BD0320704702202B
:1045E000F8BD00BF30B583B004460D4601A808F001
:1045F00099FB094B01981A6812B19B7BA34204D026
:1046000008F096FB042003B030BD2A6008F090FB50
:10461000002003B030BD00BF480F00202DE9F04757
:1046200082B0002A40D0264D044601A80F46164607
:1046300008F078FB2B6801989C422DD108F078FB9C
:104640006A68137A002B37D000244FF00109DFF895
:1046500074802346126803EB430302EB83039A68DA
:104660001279012A0AD0AAB16A680134117AE3B238
:104670009942EFD8484602B0BDE8F087C2463246BC
:1046800058683946D047052814D0002808BF4FF095
:104690000009E9E79246F2E74FF0040908F048FB09
:1046A000484602B0BDE8F0874FF00409484602B022
:1046B000BDE8F0878146DDE74FF00109DAE700BF8A
:1046C000480F002039420270F0B583B0134F044602
:1046D0000D4601A8164608F025FB3B6801989C4250
:1046E0000CD108F025FB012D0DD07B683246294600
:1046F00020465B6803B0BDE8F040184708F018FB9F
:10470000042003B0F0BD39462046FFF7C5F93A460C
:1047100002212046FFF782FFE7E700BF480F002095
:104720002DE9F04383B0002A5ED00C4600295BD00F
:104730004B68002B58D03E4E054601A8174608F09E
:10474000F1FAD6F80090B9F1000F0BD0B37BAB4271
:1047500050D04FF00208019808F0EAFA404603B042
:10476000BDE8F08306F110030198B573B36008F05B
:10477000DFFA32462F4928467460FFF739FA80463F
:10478000002840D17268137AE3B1C146414601EB7B
:104790004103116801EB83019C008B681B79012B9D
:1047A00004D10A1D2846FFF7BDFE72681168214436
:1047B0008B681B7963B109F10109137A5FFA89F1FA
:1047C0008B42E4D8336840463B6003B0BDE8F083D9
:1047D0000A1D2846984709F1010972685FFA89F1B4
:1047E000137A8B42D3D8EDE74FF00408404603B06C
:1047F000BDE8F0834FF00108019808F099FA4046AF
:1048000003B0BDE8F0833068FFF78AFA01A808F02A
:1048100089FA33680198002B9ED0B37BAB429BD1C1
:10482000C6E9009986F80E9008F082FA96E700BF74
:10483000480F0020C946027070B582B00D4D044685
:104840000E4601A808F06EFA2B68019813B1AB7BF5
:10485000A34204D008F06CFA042002B070BD08F046
:1048600067FA32460221286802B0BDE87040FFF7BF
:1048700095BB00BF480F002008B5FDF7EDFD08BD52
:1048800008B5FDF7E9FD08BD08B5FDF7E5FD08BD74
:1048900008B5FDF7E1FD08BD08B5FDF7DDFD08BD74
:1048A00008B5FDF7D9FD08BD08B5FDF7D5FD08BD74
:1048B00008B5FDF7D1FD08BD08B5FDF7CDFD08BD74
:1048C00008B5FDF7C9FD08BD08B5FDF7C5FD08BD74
:1048D00008B5FDF7C1FD08BD08B5FDF7BDFD08BD74
:1048E00008B5FDF7B9FD08BD08B5FDF7B5FD08BD74
:1048F00008B5FDF7B1FD08BD08B5FDF7ADFD08BD74
:1049000008B5FDF7A9FD08BD08B5FDF7A5FD08BD73
:1049100008B5FDF7A1FD08BD08B508F011FF08BDF9
:1049200008B508F019FF08BD08B508F021FF08BD5B
:1049300008B508F029FF08BD08B508F031FF08BD2B
:1049400008B508F039FF08BD08B508F041FF08BDFB
:1049500008B508F049FF08BD08B5FDF77DFD08BDA5
:1049600008B5FDF779FD08BD08B5FDF775FD08BD73
:1049700008B5FDF771FD08BD08B5FDF76DFD08BD73
:1049800008B5FDF769FD08BD08B5FDF765FD08BD73
:1049900008B5FDF761FD08BD08B5FDF75DFD08BD73
:1049A00008B5FDF759FD08BD08B5FDF755FD08BD73
:1049B00008B5FDF751FD08BD08B5FDF74DFD08BD73
:1049C00008B5FDF749FD08BD08B5FDF745FD08BD73
:1049D00008B5FDF741FD08BD08B5FDF73DFD08BD73
:1049E00008B5FDF739FD08BD08B5FDF735FD08BD73
:1049F00008B5FDF731FD08BD08B5FDF72DFD08BD73
:104A000008B5FDF729FD08BD08B5FDF725FD08BD72
:104A100008B5FDF721FD08BD08B5FDF71DFD08BD72
:104A200008B5FDF719FD08BD08B5FDF715FD08BD72
:104A300008B5FDF711FD08BD08B5FDF70DFD08BD72
:104A400008B5FDF709FD08BD08B5FDF705FD08BD72
:104A500008B5FDF701FD08BD08B5FDF7FDFC08BD73
:104A600008B5FDF7F9FC08BD08B5FDF7F5FC08BD74
:104A700008B5FDF7F1FC08BD08B5FDF7EDFC08BD74
:104A800008B5FDF7E9FC08BD08B5FDF7E5FC08BD74
:104A900008B5FDF7E1FC08BD08B5FDF7DDFC08BD74
:104AA00008B5FDF7D9FC08BD08B5FDF7D5FC08BD74
:104AB00008B5FDF7D1FC08BD08B5FDF7CDFC08BD74
:104AC00008B5FDF7C9FC08BD08B5FDF7C5FC08BD74
:104AD00008B5FDF7C1FC08BD08B5FDF7BDFC08BD74
:104AE00008B5FDF7B9FC08BD08B5FDF7B5FC08BD74
:104AF00008B5FDF7B1FC08BD08B5FDF7ADFC08BD74
:104B000008B5FDF7A9FC08BD08B5FDF7A5FC08BD73
:104B100008B5FDF7A1FC08BD08B5FDF79DFC08BD73
:104B200008B5FDF799FC08BD08B5FDF795FC08BD73
:104B300008B5FDF791FC08BD08B5FDF78DFC08BD73
:104B400008B5FDF789FC08BD08B5FDF785FC08BD73
:104B500008B5FDF781FC08BD08B5FDF77DFC08BD73
:104B600008B5FDF779FC08BD08B5FDF775FC08BD73
:104B700008B5FDF771FC08BD08B5FDF76DFC08BD73
:104B800008B5FDF769FC08BD08B5FDF765FC08BD73
:104B900008B5FDF761FC08BD08B5FDF75DFC08BD73
:104BA00008B5FDF759FC08BD08B5FDF755FC08BD73
:104BB00008B5FDF751FC08BD08B5FDF74DFC08BD73
:104BC00008B5FDF749FC08BD08B5FDF745FC08BD73
:104BD00008B5FDF741FC08BD08B5FDF73DFC08BD73
:104BE00008B5FDF739FC08BD08B5FDF735FC08BD73
:104BF00008B5FDF731FC08BD08B5FDF72DFC08BD73
:104C000008B5FDF729FC08BD08B5FDF725FC08BD72
:104C100008B5FDF721FC08BD08B5FDF71DFC08BD72
:104C200008B5FDF719FC08BD08B5FDF715FC08BD72
:104C300008B5FDF711FC08BD08B5FDF70DFC08BD72
:104C400008B5FDF709FC08BD08B5FDF705FC08BD72
:104C500008B5FDF701FC08BD08B5FDF7FDFB08BD73
:104C600008B5FDF7F9FB08BD08B5FDF7F5FB08BD74
:104C700008B5FDF7F1FB08BD08B5FDF7EDFB08BD74
:104C800008B5FDF7E9FB08BD08B5FDF7E5FB08BD74
:104C900008B5FDF7E1FB08BD08B5FDF7DDFB08BD74
:104CA00008B5FDF7D9FB08BD08B5FDF7D5FB08BD74
:104CB00008B5FDF7D1FB08BD08B5FDF7CDFB08BD74
:104CC00008B5FDF7C9FB08BD08B5FDF7C5FB08BD74
:104CD00008B5FDF7C1FB08BD08B5FDF7BDFB08BD74
:104CE00008B5FDF7B9FB08BD08B5FDF7B5FB08BD74
:104CF00008B5FDF7B1FB08BD08B5FDF7ADFB08BD74
:104D000008B5FDF7A9FB08BD08B5FDF7A5FB08BD73
:104D100008B5FDF7A1FB08BD08B5FDF79DFB08BD73
:104D200008B5FDF799FB08BD08B5FDF795FB08BD73
:104D300008B5FDF791FB08BD08B5FDF78DFB08BD73
:104D400008B5FDF789FB08BD08B5FDF785FB08BD73
:104D50002DE9F047002705463B4E0138DFF8F0C04B
:104D60003C46DFF8F0E005E0013759360CF1570C0E
:104D7000842F2CD01EF80730DA07F5D4A7F12B03C7
:104D8000A6F1570261469BB2832B03F1010812D8AA
:104D90001EF803309B070ED491F800A004F101091E
:104DA000137800FB0A33B3FBF5F3DBB2132B0B7064
:104DB00098BF0FFA89F401321FFA88F30131B24229
:104DC000E2D1013759360CF1570C842FD2D11F484C
:104DD0004FF00008DFF880906F1E07E008F101082F
:104DE000593009F15709B8F1660F29D00EEB0803C5
:104DF00093F88430DE07F1D4A8F12B03A0F1570219
:104E0000CC469BB2591C652B0EEB03068BB211D816
:104E100096F8841089070DD49CF800A0661C1178C0
:104E200007FB0A11B1FBF5F1C9B213298CF8001088
:104E300098BF34B201320CF1010C9042E2D1CDE7BF
:104E40002046BDE8F08700BFAF192120DFF5202004
:104E5000ACC820200000202000A62020A04B1978FC
:104E600011F001012DE9F04F824689B000F09380E6
:104E70009C4A1378917856780B2BD2780191039243
:104E800040F20781652B40F21F81974B4FF0000ED7
:104E90001868964A0EF10105954B00EB4E0002F59D
:104EA000257102EB0E0BA3F1EC08ADB201EB0E097C
:104EB0009E44002307930EE06B1CB5F5247F00F1A0
:104EC00002000EF1010E0BF1010B09F101099BB279
:104ED00000F287801D4602784478BAF1000F01D1B4
:104EE0008EF800A0B2427CD8019BA342E4D8039B79
:104EF000A342E1D308EB040393F8847017F0020790
:104F0000DAD102F10B0CFF2306905FFA8CFC0293BE
:104F1000CDE9047705E0531C9445DAB226D0B242BD
:104F200024D8A31A08EB02019BB291F884102B330A
:104F300011F0010F99B2EED15629ECD859206D49E4
:104F40001BB2013700FB0211FFB2CB5C0499481C75
:104F50000299994228BF1946812B029145D8C3B2C4
:104F60009445049302F10103DAB2D8D10698002FD8
:104F7000A2D0049B002B44D099F80030FD2B3CD8E4
:104F8000079A0233013289F8003013B207930123E4
:104F90008EF8003090E765268C46019137460396DF
:104FA000514B40F291241868002310F81320451C3F
:104FB0001FFA83FE8A4208D20133A3420FD010F8B1
:104FC00013201FFA83FE8A42F6D315F81320BA4243
:104FD000F2D86245BFF45DAF0133A342EFD10023A5
:104FE0000793079809B0BDE8F08F0599F02B01F100
:104FF000010190D9CBB205938DE79BF80030022BCD
:1050000035D9059B002B3FF457AFBAF1000F04D000
:105010009EF90030012B3FF44FAF029BBE2B7FF671
:105020004BAF059B03EB830303EB83039B00B3FBB5
:10503000F7F3DBB2322B7FF63FAF9BF800305A1EFE
:10504000D2B2022A2AD803EB830399F800109B00FE
:10505000AA338B4229D2079B0239013389F8001009
:105060001BB207934FF0FF338EF8003024E7013373
:10507000079ADBB201328BF8003003EB830312B2E4
:105080009B000792AA3389F8003001238EF8003084
:1050900012E70021DDF804C0174681E799F80010F7
:1050A0007829D8D8002B3FF407AF079B8BF8002056
:1050B0004FF0FF3201338EF800206FF001021BB277
:1050C00089F800200793F7E60C22DDF804C0039F5F
:1050D000B3FBF2F303EB43039900C9B260E700BFEF
:1050E000700F0020880F00209041000094410000C4
:1050F000EC00202088F520209E4B1B782DE9F04FF6
:10510000824613F0010089B000F091809A4A13782A
:10511000917856780B2BD2780191039240F2068158
:10512000832B40F21D81954B4FF0000CD3F82C15CA
:10513000934A0CF10105934B01EB4C0102F55C70B5
:1051400002EB0C0BA3F56078ADB200EB0C099C44AC
:10515000002307930EE040F26D326B1C02310CF11C
:10516000010C95420BF1010B09F101099BB200F210
:1051700085801D460A784878BAF1000F01D18CF875
:1051800000A0B2427AD8019B8342E4D8039B8342B9
:10519000E1D318F8004014F00204DCD102F10B0E48
:1051A000FF2306915FFA8EFE0293CDE9044405E0E9
:1051B000531C9645DAB225D0B24223D8831A18F888
:1051C00002709BB217F0010F03F12B03F0D19FB2D5
:1051D000562FEDD859216C4F1BB2013401FB0277D9
:1051E000E4B2FB5C049F791C029F9F4228BF1F46CC
:1051F000812B029746D8CBB29645049302F1010366
:10520000DAB2D9D10699002CA5D0049B002B45D049
:1052100099F80030FD2B3DD8079A0233013289F806
:10522000003013B2079301238CF8003093E78326F4
:105230008646019037460396504B40F26E34D3F8C1
:105240002C15002311F813204D1C1FFA83FC8242F9
:1052500008D20133A3420FD011F813201FFA83FCA8
:105260008242F6D315F81320BA42F2D87245BFF441
:105270005FAF0133A342EFD100230793079809B032
:10528000BDE8F08F059FF02B07F1010790D9FBB225
:1052900005938DE79BF80030022B35D9059B002B39
:1052A0003FF459AFBAF1000F04D09CF90030012B44
:1052B0003FF451AF029BA02B7FF64DAF059B03EB54
:1052C000830303EB83039B00B3FBF4F3DBB2322BCA
:1052D0007FF641AF9BF800305A1ED2B2022A29D87D
:1052E00003EB830399F800009B00AA33834228D282
:1052F000079B0238013389F800001BB207934FF077
:10530000FF338CF8003026E70133079ADBB2013215
:105310008BF8003003EB830312B29B000792AA3391
:1053200089F8003001238CF8003014E7002017467C
:105330008E4681E799F800007828D9D8002B3FF4F1
:105340000AAF079B8BF800204FF0FF3201338CF837
:1053500000206FF001021BB289F800200793FAE6E3
:105360000C22039F8E46B3FBF2F303EB430398003A
:10537000C0B261E7700F0020840F00209041000050
:10538000C046000080032020581921204F4B1B7875
:105390009B0740F193804E4B2DE9F04F1B7883B073
:1053A0001D2B1FB2019300F38C80BE46DFF82C91B9
:1053B0002C22DFF82CB14FF0000ADFF82881A2F18F
:1053C00057035C4648465FFA8AF59BB2832BD9B2F5
:1053D00019D8A9428C46764638BFAC46BCF1070FB7
:1053E00006D9A94228BF29467B298CBF76463E466E
:1053F000C6F16406017806FB01F188FB01C6C917F6
:10540000C1EB661121700133013001349BB293422C
:10541000DCD1013309F157090AF1010A0BF1570BED
:105420009AB22C4B9945CAD1312F48DD019BA3F18B
:10543000320636B2DFF8B0904FF02C0EDFF8ACB089
:105440004FF0000ADFF89C80AEF1570358464946FA
:105450005FFA8AF49BB2652BDAB219D89442A4465B
:10546000354638BF9446BCF1070F06D9A24228BF83
:1054700022465D2A8CBF35463D46C5F164050A7853
:1054800005FB02F288FB02C5D217C2EB651202705F
:105490000133013101309BB27345DCD109F1570969
:1054A0000D4B0EF1010E0AF1010A4B450BF1570BA2
:1054B0001FFA8EFEC8D103B0BDE8F08F70473E469C
:1054C000B8E7A3F11E0E0FFA8EFE6FE7700F0020F3
:1054D000869F002088F52020AAC82020ACC8202064
:1054E0009C2920201F85EB5100A62020F0062020BB
:1054F0002DE9F0470025DFF830C1DFF83081474C57
:10550000AE462E46464FA5F12B03ACF1570241465D
:105510009BB20CE0E05C800713D582F8009081F824
:10552000009001320133013162459BB21DD0832BC3
:10553000F7D8605DC0F30009C007EBD516700E7098
:10554000EFE7107800EB8000C0EBC0004000A7FB45
:105550000090400908700028E3D1BEF1FF0FE0D0B1
:105560000EF1010E5FFA8EFEDBE7013502F1570CFA
:1055700008F15708842DC6D14FF00008DFF8B0C0FD
:10558000DFF8B090254E4546254FA8F12B03ACF12E
:105590005702494606EB08049BB20EE0F01890F85B
:1055A0008400800714D582F800A081F800A00132A1
:1055B0000133013162459BB21ED0652BF7D894F8B8
:1055C0008400C0F3000AC007E8D515700D70EEE73F
:1055D000107800EB800000EB80004000A7FB00A0EB
:1055E000400908700028E2D1BEF1FF0FDFD00EF1B4
:1055F000010E5FFA8EFEDAE708F1010802F1570C9E
:1056000009F15709B8F1660FBFD1BEF1640F02D995
:10561000044B01225A71BDE8F08700BF0000202032
:105620001F85EB51AC11002003C9202024792020D4
:1056300057A62020785620202DE9F0476648674C71
:10564000674A00F1040C674900F10807664B00F156
:105650000C06DFF8C8E100F1100504F2DC6954F82B
:1056600004AB18325CF8188B18334EF804AF4C4575
:1056700042F82C8CD1F8048043F82C8CD1F80880A7
:1056800043F8288CD1F80C8043F8248CD1F8108092
:1056900043F8208CD1F814A051F8188B43F81CACB7
:1056A00043F8308CD0F814A050F8188B42F81CAC9A
:1056B00042F8308C57F8188B42F8288C56F8188B23
:1056C00042F8248C55F8188B42F8208CC7D14748F3
:1056D000DFF84CC1464900F1040E464A6446464B89
:1056E00000F10807DFF83C8100F10C0600F110051D
:1056F0000CF5A46A54F8049B1832183348F8049F38
:1057000054455EF8189B42F82C9CD1F8049043F85D
:105710002C9CD0F8149042F81C9CD1F8089043F8C7
:10572000289CD1F80C9043F8249CD1F8109043F8B1
:10573000209CD1F8149043F81C9C57F8189B42F811
:10574000289C56F8189B42F8249C55F8189B42F860
:10575000209C50F8189B42F8309C51F8189B43F855
:10576000309CC7D1254D264C264F274E274B07F599
:105770008050274A06F58051BCF82095D5F8C48E94
:10578000D5F8C8EED5F8C0AED4F8C8CED4F8C45E0B
:10579000D4F8C04EC3F8207702F54167C1F8C45E63
:1057A000C1F8C04E1B4D1C4CC0F8C0AEC0F8C48E32
:1057B000C0F8C8EE03F5FA70A3F81497C1F8C8CE84
:1057C000C2F82C75C3F81857C3F81C471060C3F80B
:1057D0002467BDE8F08700BF00140470240D047036
:1057E000B8C00000283D047090970000746B0470EE
:1057F000408A0470C4780000F8590000747B04707B
:10580000409A0470AC780000E05900008852000013
:1058100090410000A0C00000789700009C4D00005F
:105820005066047078540000474A4FF0806310B40B
:10583000C2F8883000BF00BF00BF00BF00BF00BF7C
:1058400000BF00BF00BF00BF00BF00BF00BF00BF60
:1058500000BF00BF00BF00BF00BF00BF00BF00BF50
:1058600000BF00BF00BF00BF00BF00BF00BF00BF40
:1058700000BF00BF00BF00BF00BF00BF00BF00BF30
:1058800000BF00BF00BF00BF00BF00BF00BF00BF20
:1058900000BF00BF00BF00BF00BF00BF00BF00BF10
:1058A00000BF00BF00BF00BF00BF00BF00BF00BF00
:1058B00000BF00BF00BF00BF00BF00BF00BF00BFF0
:1058C00000BF00BF00BF00BF00BF00BF00BF00BFE0
:1058D00000BF00BF00BF00BF00BF00BF00BF00BFD0
:1058E00000BF00BF00BF00BF00BF00BF00BF00BFC0
:1058F00000BF00BF00BF00BF00BF00BF00BF00BFB0
:1059000000BF00BF00BF00BF00BF00BF00BF00BF9F
:1059100000BF00BF00BF00BF00BF00BF00BF00BF8F
:1059200000BF00BF09494FF000600023084CC1F8D8
:1059300088004FF08040074923700B7015234FF00B
:105940008071C2F8880007E000C01B4000801B4047
:105950007D9F00207E9F0020C2F8881000BF00BFFE
:1059600000BF00BF00BF00BF00BF00BF00BF00BF3F
:1059700000BF00BF00BF00BF00BF00BF00BF00BF2F
:1059800000BF00BF00BF00BF00BF00BF00BF00BF1F
:1059900000BF00BF00BF00BF00BF00BF00BF00BF0F
:1059A00000BF00BF00BF00BF00BF00BF00BF00BFFF
:1059B00000BF00BF00BF00BF00BF00BF00BF00BFEF
:1059C00000BF00BF00BF00BF00BF00BF00BF00BFDF
:1059D00000BF00BF00BF00BF00BF00BF00BF00BFCF
:1059E00000BF00BF00BF00BF00BF00BF00BF00BFBF
:1059F00000BF00BF00BF00BF00BF00BF00BF00BFAF
:105A000000BF00BF00BF00BF00BF00BF00BF00BF9E
:105A100000BF00BF00BF00BF00BF00BF00BF00BF8E
:105A200000BF00BF00BF00BF00BF00BF00BF00BF7E
:105A300000BF00BF00BF00BF00BF00BF00BF00BF6E
:105A400000BF00BF00BF00BF00BF00BF00BF00BF5E
:105A500000BF00BF00BF00BF00BF00BF00BF00BF4E
:105A600000BF00BF00BF00BF00BF00BF00BF00BF3E
:105A700000BF00BF00BF00BF00BF00BF00BF00BF2E
:105A800000BF00BF00BF00BF00BF00BF00BF00BF1E
:105A900000BF00BF00BF00BF00BF00BF00BF00BF0E
:105AA00000BF00BF00BF00BF00BF00BF00BF00BFFE
:105AB00000BF00BF00BF00BF00BF00BF00BF00BFEE
:105AC00000BF00BF00BF00BF00BF00BF00BF00BFDE
:105AD00000BF00BF00BF00BF00BF00BF00BF00BFCE
:105AE00000BF00BF00BF00BF00BF00BF00BF00BFBE
:105AF00000BF00BF00BF00BF00BF00BF00BF00BFAE
:105B000000BF00BF00BF00BF00BF00BF00BF00BF9D
:105B100000BF00BF00BF00BF00BF00BF00BF00BF8D
:105B200000BF00BF00BF00BF00BF00BF00BF00BF7D
:105B300000BF00BF00BF00BF00BF00BFC2F884109D
:105B400000BF00BF00BF00BF00BF00BF00BF00BF5D
:105B500000BF00BF00BF00BF00BF00BF00BF00BF4D
:105B600000BF00BF00BF00BF00BF00BF00BF00BF3D
:105B700000BF00BF00BF00BF00BF00BF00BF00BF2D
:105B800000BF00BF00BF00BF00BF00BF00BF00BF1D
:105B900000BF00BF00BF00BF00BF00BF00BF00BF0D
:105BA00000BF00BF00BF00BF00BF00BF00BF00BFFD
:105BB00000BF00BF00BF00BF00BF00BF00BF00BFED
:105BC00000BF00BF00BF00BF00BF00BF00BF00BFDD
:105BD00000BF00BF00BF00BF00BF00BF00BF00BFCD
:105BE00000BF00BF00BF00BF00BF00BF00BF00BFBD
:105BF00000BF00BF00BF00BF00BF00BF00BF00BFAD
:105C000000BF00BF00BF00BF00BF00BF00BF00BF9C
:105C100000BF00BF00BF00BF00BF00BF00BF00BF8C
:105C200000BF00BF00BF00BF00BF00BF00BF00BF7C
:105C300000BF00BF00BF00BF00BF00BF00BF00BF6C
:105C400000BF00BF00BF00BF00BF00BF00BF00BF5C
:105C500000BF00BF00BF00BF00BF00BF00BF00BF4C
:105C600000BF00BF00BF00BF00BF00BF00BF00BF3C
:105C700000BF00BF00BF00BF00BF00BF00BF00BF2C
:105C800000BF00BF00BF00BF00BF00BF00BF00BF1C
:105C900000BF00BF00BF00BF00BF00BF00BF00BF0C
:105CA00000BF00BF00BF00BF00BF00BF00BF00BFFC
:105CB00000BF00BF00BF00BF00BF00BF00BF00BFEC
:105CC00000BF00BF00BF00BF00BF00BF00BF00BFDC
:105CD00000BF00BF00BF00BF00BF00BF00BF00BFCC
:105CE00000BF00BF00BF00BF00BF00BF00BF00BFBC
:105CF00000BF00BF00BF00BF00BF00BF00BF00BFAC
:105D000000BF00BF00BF00BF00BF00BF00BF00BF9B
:105D100000BF00BF00BF00BF00BF00BF00BF00BF8B
:105D2000013B13F0FF037FF417AE4FF08044054BA7
:105D30004FF6FF70C2F88840C2F888105DF8044B37
:105D400018807047629F0020F8B5FFF76DFD5A4C30
:105D50005A4A4FF0FF314FF6FF70A2F1540343F857
:105D6000041B9342FBD103F1590218809870A242A0
:105D7000F3D1534A4FF0FF31524C4FF6FF70A2F16E
:105D8000540343F8041B9342FBD103F159021880DA
:105D900098709442F3D14C4B4FF09631A3F50A6EB4
:105DA00003F55B7243F8041B9342FBD1474B49F266
:105DB00096604FF0AA3103F52472AEF80C0C43F84C
:105DC000041B9342FBD100210A204FF0AA0C404F44
:105DD000404E0A46404D414C414B8EF828C5387024
:105DE000317028702170995C6FF300019954013271
:105DF000842AF8D10022995C6FF341019954013251
:105E0000842AF8D10022995C6FF3820199540132FF
:105E1000842AF8D100229918013291F88400662A68
:105E20006FF3000081F88400F5D100229918013247
:105E300091F88400662A6FF3410081F88400F5D15F
:105E400000229918013291F88400662A6FF38200CB
:105E500081F88400F5D123490023234C0A88234884
:105E600022F4817223700370214C22F00102214838
:105E7000237042F0020203601F4C20480A80037026
:105E80004A781F4D1F4842F0020223801E4C2B709F
:105E900004601E4D1E4C1F482B70656A4A703221EB
:105EA0001D4A056013801D4C1D4893801D4A2380A8
:105EB00003801170F8BD00BF90472120AC1921204C
:105EC000DCF5202052192120304A0000284400002F
:105ED000889F0020879F00208C9F00208B9F0020A0
:105EE00000002020700F00208A9F0020899F002042
:105EF0008D9F00206C0F0020669F0020819F002056
:105F00008E9F0020600F0020F8240100829F002057
:105F100000001F40780F0020AC1100206E9F002071
:105F2000729F0020869F00200B2970B544D9264C13
:105F3000A4FB014E4FEADE0E0EEB4E0E4FEA8E0E24
:105F40005FFA8EFEC0B9832915D8204C014640F275
:105F50006E35D4F82C45661C02E00131A94230D0E0
:105F600014F811C088B2F445F7D316F811C094455F
:105F7000F3D39C45F1D870BD652920D813494FF063
:105F8000000C40F291250C68661C03E00CF1010C3A
:105F9000AC450FD014F81C101FFA8CF07145F5D3E6
:105FA00016F81C109942F1D89142E4D20CF1010C80
:105FB000AC45EFD1604670BD4FF0000EC2E7002047
:105FC00070BD084670BD00BFABAAAAAA90410000F0
:105FD000944B1B78D8062DE9F04F8BB04ED5924AE2
:105FE0009249128809880A44042A00F3F3800025A4
:105FF0006FF304138B4A2C461370EEB20135304612
:10600000FEF72CFF034630461E46FFF775F80121C8
:106010008319084604FA83F41AF04AF90121002092
:106020001AF046F9052DA4B2E7D1002C00F0D28079
:10603000012108461AF03CF9012100201AF038F934
:106040000120FEF785FE044650B9012108461AF0EA
:106050002FF9012120461AF02BF90220FEF778FED5
:10606000FFF746FA6F4B1B78990700F11382704BCC
:10607000002201201A600BB0BDE8F08F6D486E4B16
:106080006E4A01791B881288002900F08B8001215B
:10609000684A51716A4B6B4A5B6A05921E22002363
:1060A0000892644A93800023DFF8B0A1DFF8B0B112
:1060B000079306930AE0099B002B40F02581079B7C
:1060C000089A01339A42079300F0CA819DF81C5048
:1060D0002846FEF7C3FE04462846FFF70DF844EABB
:1060E000000309901BB2002B00F0BA812318069A16
:1060F00001211A44084693B206931AF0D9F80121F7
:1061000000201AF0D5F8002CD5D000234E4A4F4974
:106110004F4802F157051E46884681469C4601932A
:1061200002920491039028E00AEB030292F8842083
:10613000960732D42278132A50D8019EFF2E54D0CD
:1061400006F1010E5FFA8EF64FF0320E01960EFB4D
:1061500002F2ABFB026252090A70013101330130D5
:1061600001348D429BB212D1009E573508F1570879
:1061700009F159090136662E3AD0A6F12B03A5F193
:1061800057014C4640469BB20AEB06070096652B2A
:10619000E3D897F88420D207C6D581F800C080F8EC
:1061A00000C0DAE713444079042B00F36B81254AE1
:1061B000234B05925B6A12689B1A264A1268934227
:1061C00005D300287FF46AAF022308936BE7002809
:1061D0007FF464AF00200BB0BDE8F08FF02A8CBFD5
:1061E0004FF03C0E4FF0320EB1E74FF0320EAEE7FB
:1061F000019B642B02D901230E4A5371094B1B7872
:1062000099077FF558AF144B1B78312B0FFA83FE9B
:1062100000F33581774600234FF02C081D4601938B
:1062200049E000BF700F00206E9F0020729F002089
:106230006C0F0020AC1100206C9F0020709F00208C
:1062400000001F40780F002078562020F006202004
:1062500088F52020600F0020869F0020000020206D
:106260001F85EB5199F8842092074AD4327802FBBB
:1062700004F48BFB0492E417C4EB62140C7001333A
:106280000136013101309BB298451FD1039A08F1C4
:106290000108019B59321FFA88F801330392049ACE
:1062A000662B019302F157020492029A02F15702FF
:1062B00002923FF400AF019A0298A2F12B035FFA19
:1062C00082FC52449BB20092DDE90361652BDAB295
:1062D000D5D89445E1463C4638BF9146B9F1070F01
:1062E00006D9624528BF62465D2A94BF74463C4683
:1062F000009AC4F164040AEB030992F88420D207DF
:10630000B0D505700D70BAE74FF0000E634B644ACC
:10631000DFF8A89103F1570675469046774601933A
:10632000009225E01AF8032092072ED42278132A2F
:106330002ED8BEF1FF0F32D00EF1010E4FF0460CF9
:106340005FFA8EFE0CFB02F2ABFB02C252090A702E
:106350000131013301300134B1429BB20FD101351B
:1063600001F1570609F1570908F15908842D19D090
:10637000A5F12B03A6F15701444648469BB2832B57
:10638000E6D81AF80520D207CCD50F700770DFE7E2
:10639000F02A8CBF4FF03C0C4FF0460CD2E74FF088
:1063A000460CCFE7BEF1640F02D901233D4A537179
:1063B0003D4B1B789C077FF582AE3C4B1B781AB295
:1063C0001D2B029257DC96464FF0000C384E674664
:1063D00021E01AF8030080073FD4087805FB00F09D
:1063E0008BFB0085C017C0EB6510107001320133C4
:1063F00001310134B2429BB216D1009B0CF1010C69
:1064000057365933BCF1840F0093019B03F15703B6
:1064100001933FF454AEACF12B03A6F157025FFA9F
:106420008CF99BB2DDE90014832B5FFA83F8DDD889
:10643000C1454D46704638BF4546072D07D9C8456A
:10644000029828BFC846B8F17B0F88BF7046C0F1DC
:1064500064051AF80C00C007BBD527701770C5E794
:10646000069A144B101E059A5B6A18BF0120136030
:106470000BB0BDE8F08F1E3B0FFA83FEA4E7323B62
:106480001FB2C8E600287FF405AE0A4A0A4B526ADA
:106490001A60A0E6FEF77AFFE9E500BF2479202024
:1064A00058192120AC110020700F0020869F002079
:1064B000F329202000001F40780F00209C29202075
:1064C000A34A136801332DE9F04F99B0136005F02A
:1064D00043FFA04B1B78149313F00103129300F0B9
:1064E000CC829D4B00229D4893F800A059780280F1
:1064F0000FFA8AF91090514599481391159002802E
:106500009878DB7804900593CDF804A00D91C0F243
:1065100094820023149ADFF864B202F00201139E01
:106520001C46079311910E910A9303931FFA89F069
:106530000E9900EB80030C9000EB43039BB21A1DF5
:1065400003F6122392B29BB202920B935FFA89F385
:10655000002940F0FC8159220693019B5725DDF864
:106560000C8002FB03F97F4A009405FB032C7E4B51
:1065700009F1FF35A0F12B029944563B0CF1FF3C89
:1065800092B21D44CDF80C90009B012015F8017FBC
:1065900003F101090BB21CF801EF03F00703BE453C
:1065A00000FA03F3029800EBE10080B21FD9019CCE
:1065B0001BF800E0B4421FFA89F443EA0E0300948A
:1065C000069C0BF8003013B2B8BF2646019C059814
:1065D0005445069CC8BFA246834201DAD0B205905A
:1065E0000498834201DDD3B2049301230A9301325C
:1065F0003F2F08F1010301F1010192B203D81FFA04
:1066000083F801230793039B9D42BDD1009CCDF8E5
:106610000C800C9B03F101090D9B0FFA89F9994538
:10662000CDF8049082DD0A9A039F13960F94002AF6
:1066300000F0C982231E109A18BF012314800A9308
:10664000079B0BB1159B1F80129B002B40F0F7811D
:10665000464B652219461593129B964610920B8065
:1066600099464349029316910B801946039206936B
:1066700000229DF84430CDF85CA0934692461193D9
:106680000892099288B2119D00EB80030E9000EBF6
:1066900043039BB203F5B66203F6BE7392B29BB29C
:1066A00001920D93002D40F0E480069A57245FFA82
:1066B00081F859232F4903FB02F304FB02162E4AEB
:1066C0005C1E2946D318013E0093A2F15603A0F1A7
:1066D0002B021C4492B20BB2012014F8015F0BF1A3
:1066E000010C03F0070316F8017F00FA03F3019889
:1066F000AF4200EBE10080B21AD9069F1FFA8CFB73
:106700007745B8BFC6464F451C4FC8BFC1463F5C22
:106710003B431A4F3B5413B20398984201DDD0B269
:1067200003900298984201DAD3B2029301230993AD
:1067300001323F2D0AF1010301F1010192B203D8A8
:106740001FFA83FA01230893009B9C42C3D117E0F0
:10675000680F0020700F0020840F00206C9F002025
:106760006E9F002024792020AE192120709F0020E8
:10677000729F002078562020DEF52020502D00202A
:106780000E99109B013109B2994206917FF77AAFB9
:10679000099B5246DDF85CA0002B00F01682159B89
:1067A000A3F800B00A9BBBF1050F94BF002303F0D0
:1067B000010309930F9B5B4498B2089B0BB1169B96
:1067C0001A800F9B002B00F08781BBF1000F00F0B7
:1067D0001C82139B0F2B40F21F820F3BD9B2BAF1E0
:1067E000730F00F21F820AF10F03DBB2059A0F2A22
:1067F00040F216820F3AD4B2049A732A00F27381DF
:106800000F32BEF10F0FD5B240F27381AEF10F021D
:10681000B9F1550FD6B200F2718109F10F025FFA9A
:1068200082F8039A0F2A40F26F810F3A5FFA82F9D9
:10683000029A552A00F26E810F325FFA82FA129A9A
:10684000002A40F06D81964F3A70099A002A40F074
:10685000A5810F9A052A03D9BBF1000F40F09E8154
:10686000904B00221A70042898BF002019B0BDE890
:10687000F08FCBB259228C480C93069B099F02FBE8
:1068800003F157224C1E411802FB03F20E9B0791A5
:10689000A0F15601561E2B3B0C4484499BB20A447E
:1068A00000210B92824A1644009619E00D9D0127A3
:1068B000804EAC441FFA8CFC16F80C502A4306F8A4
:1068C0000C203F2805D80AF1010A01221FFA8AFA92
:1068D0000892079A01330131A2429BB200F0A880CE
:1068E000009A14F8010F12F8015F854200920AB273
:1068F000E7D9069DC1F3CF0C0C9F0126AE4502F0EF
:1069000007020FFA83F80BF1010BC8BFBE46A94579
:10691000019D06FA02F2B8BFB946664F654452B20D
:106920003E461FFA8BFBADB27F5D17437755039D43
:10693000A84501DADDB20395029DA84501DDDDB26F
:1069400002950B9D6D5C8542B0D80127B9E75922AD
:106950000993019B5721584802FB03F2DDF828E018
:1069600001FB03F10C9B551E821801F1FF3C2B3BF0
:106970000692A0F156029BB21544504A8A1800951F
:10698000002108924E4A944419E00B9D4FF0010EED
:10699000A8441FFA88F81BF808703A430BF808203F
:1069A0003F2805D8039A013292B20392012207923E
:1069B000069A0133009801319BB290423AD0009A76
:1069C0001CF8017F12F8010F874200920AB2E7D942
:1069D000019F012502F00702C1F3CF08BE420FFA62
:1069E00083F905FA02F2099D04F10104C8BF2E469D
:1069F000BA4552B2B8BFAA46029DA4B205EB080739
:106A0000059DBFB2A9451BF807E042EA0E0E0BF840
:106A100007E001DADDB20595049DA94501DDDDB28F
:106A20000495089D6F5C8742AFD84FF0010EB7E721
:106A30000997A5E6CDF828E0EBE50A920F92214BE5
:106A40000022214993F8009093F801E00A80159103
:106A5000F1451E49CDF818900A809A78DB78169196
:106A60000FFA89F102920393CDF840E000F3B5806C
:106A7000149B03F002031193FAE5154B154A10938A
:106A8000114615921A46129B138083229A46994604
:106A90000B800D92049305921392019339E500BF88
:106AA000829F0020819F0020DEF52020F00620201C
:106AB00078562020502D0020AE1921209C2920201E
:106AC00024792020880F0020709F0020729F0020D2
:106AD0006C9F00206E9F0020BBF1000F00F08180B2
:106AE0001C4619468323BEF10F0F4FF083053FF676
:106AF0008DAE0026B9F1550F7FF68FAE039A4FF099
:106B000065080F2A3FF691AE029A4FF00009552A08
:106B10007FF692AE129A4FF0650A002A3FF493AEC8
:106B2000414F4FF0000EDFF810C1099A8CF800E0D9
:106B300097F800C00CF1010C5FFA8CFC87F800C0DC
:106B4000002A35D10F9A052A02D9BBF1000F2FD1A7
:106B5000364A17786FF300071770344A1778FA0728
:106B60007FF581AE00270428314A61F3070798BFFB
:106B70000020304963F30F27002366F3070364F313
:106B8000174768F30F2365F31F6769F317430F6017
:106B90006AF31F63136019B0BDE8F08F149A5706AB
:106BA0007FF55EAE214A17786FF386171770D4E72A
:106BB000BCF1020FCCD91D4A177827F0410747F0E6
:106BC00040071770C9E70F923AE5089BBBB1169BC7
:106BD0000F98DDF824B01A80F3E50F9B18468BB9A7
:106BE000099000224FF0650983230026144693463E
:106BF00011461D4603920F92CDF808907AE70F9B3D
:106C000063B1184600239B460993652300229946E9
:106C10009646CDE90232DCE50021E0E50998E0E79F
:106C20000024E9E58323E1E5829F0020700F002026
:106C3000880F0020840F0020819F00202DE9F04F55
:106C400087B0059070B1A84B1B789C0740F1448138
:106C5000A64B1B781D2B0FFA83FE40F374811E3B5D
:106C60001DB201E01E25AE46A14B00272C24DFF803
:106C700098C20293B8469F4B9F4E03939F4B009739
:106C800004934FF6D5730193059B002B00F09A8077
:106C900004985FFA87FBDDE90131832BDAB219D85A
:106CA0005A459246A94638BFDA46BAF1070F06D9C7
:106CB0005A4528BF5A467B2A94BFF146A946C9F1D6
:106CC00064090A7809FB02F28CFB02A9D217C2EB15
:106CD000691202700133013101309BB2A342DCD151
:106CE000019B0137029A01340133842F02F15702CC
:106CF000A4B29BB202920193039B03F15703039347
:106D0000049B03F157030493BED1059B002B00F0B5
:106D1000E680764B1B78312B0FFA83F940F3118113
:106D2000323B0FFA83FE764B2C20764A02930023E7
:106D30000392754F9A46754ADFF8BCB101930492ED
:106D4000019C059AA3B22B3B9BB2002A40F08580A0
:106D5000E5B20BEB0408DDE902211EE0AC4228BFDE
:106D60002C465D2C8CBF76464E4698F88440C4F382
:106D7000000CE40721D40BEB030494F88440A4072F
:106D800040F1C88082F800C081F800C001330132B0
:106D900001319BB2984200F08680652BF6D8DCB2B8
:106DA0002E46A54238BF2646072ED7D898F88440ED
:106DB0007646C4F3000CE407DDD582F800A081F824
:106DC00000A0E3E7DDE90221019B5FFA87F919E002
:106DD000484528BF48467B288CBFAA46F246F05D4E
:106DE000C0F3000BC0071DD4F05C80071FD582F8EC
:106DF00000B081F800B00133013201319BB2A342EF
:106E00003FF46EAF832BF6D8D8B24845824638BFE0
:106E1000CA46BAF1070FDBD8F05DAA46C0F3000BF3
:106E2000C007E1D582F8008081F80080E3E71078A0
:106E3000CAF1640A0AFB00FA8CFB0AB04FEAEA7A4C
:106E4000CAEB6010C0B208700028D4D10098FF28A7
:106E5000D1D00130C0B20090CDE7049C02999DF8DA
:106E600004C0652BDDB218D8AC456646724638BF03
:106E70002E46072E06D9654528BF65465D2D94BF71
:106E80004A4672460D78C2F1640205FB02F287FBA6
:106E90000265D217C2EB6512227001330131013451
:106EA0009BB29842DDD1029A0130019B573280B2E9
:106EB00001330292039A662B019302F15702039267
:106EC000049A02F1570204927FF43AAF009B642BBC
:106ED00002D90F4B01225A7107B0BDE8F08F4FF075
:106EE000320EF1461FE700BF700F0020869F002082
:106EF000ACC8202024792020000020209C292020BC
:106F000000A62020785620201F85EB51F006202077
:106F1000AC1100201478C6F1640604FB06F687FB6A
:106F200006C4F617C6EB6414E4B20C70002C7FF4B0
:106F30002DAF009CFF2C3FF429AF0134E4B2009444
:106F400024E7CE46EFE675468EE600BF254B10B42B
:106F50001B78A8B913F0010338D183240120A4467B
:106F60008C452FD370B3501898422BDBA04229DCFC
:106F700059201D4B00FB01310A4492F82B0022E0FE
:106F800013F0010312D165240120A4468C4519D3C6
:106F9000C0B15018984215DBA04213DC5920134BA6
:106FA00000FB01310A4492F82B000CE0104C2078D1
:106FB00094F801C08842A378E4788CBF00200120B7
:106FC0008C45E5D200205DF8044B7047094C2078D1
:106FD00094F801C08842A378E4788CBF0020012097
:106FE000BEE700BF700F00205819212088F520202F
:106FF000880F0020840F0020254B10B51B78A8B9FE
:1070000013F0010338D183240120A4468C4231D3EC
:1070100080B3891A99422DDB61452BDC1D4B592029
:1070200000FB01310A4492F82B0010BD13F001035C
:1070300013D14FF0650C01208C45E6461AD3C8B138
:10704000891A994216DB714514DC134B592000FB59
:1070500001310A4492F82B0010BD104CA07894F82E
:1070600003C08842237894F801E08CBF00200120FF
:107070008C45E4D2002010BD094CA07823788842CA
:1070800094F801C0E4788CBF00200120BEE700BF67
:10709000700F00205819212088F52020880F00202B
:1070A000840F0020294B10B41B78B0B913F00103F2
:1070B00039D183240120A4468C450AD348B1934298
:1070C00007D8944205D3521A92B22B3293B2562B60
:1070D00034D900205DF8044B704713F0010317D139
:1070E00065240120A4468C45F3D30028F1D09342B7
:1070F000EFD89442EDD3521A92B22B3293B2562B60
:10710000E7D85920124B12B200FB0131885CE1E74D
:10711000104C207894F801C08842A378E4788CBFA2
:1071200000200120DFE70C4C207894F801C0884251
:10713000A378E4788CBF00200120BDE75920074BDD
:1071400012B200FB0131885CC4E700BF700F002061
:1071500088F52020880F0020840F00205819212056
:1071600040F2EE230749084A03FB00F0074B10B436
:10717000074CA4FB00405DF8044BC0080860526A4D
:107180001A607047640F002000C01E407C0F002072
:10719000CDCCCCCC054B064A06495B6A1268086820
:1071A0009B1A834234BF00200120704700C01E405C
:1071B0007C0F0020640F00202DE9F04F0023EDB07C
:1071C000884EF25C6FF30002F2540133842BF8D145
:1071D0000023F25C6FF34102F2540133842BF8D1A7
:1071E0000023F218013392F88410662B6FF300012C
:1071F00082F88410F5D10023F218013392F884103C
:10720000662B6FF3410182F88410F5D10024764B90
:107210002AAD84221C702146744B09A81C70744B43
:107220001C70744B1C7018F04AFD214684222846BD
:1072300018F045FD21464BAC84224BA818F03FFDC9
:107240006CA821462C22A2F157039BB203E0013324
:107250009BB2934208D0832BF9D801330F789BB2AD
:10726000013793420F70F6D10131013381429AB256
:10727000E9D161480DF1240E4FF00008A8F12B036D
:10728000A0F157029BB203E001328BB2904216D0BC
:10729000832B03F10101F7D81778132FF4D815F8D1
:1072A00003C001329EF800700CF1010C904207F10E
:1072B000010705F803C08BB28EF80070E8D108F121
:1072C000010859300EF1010EB8F1840FD6D1002318
:1072D000454A0DF22B1B0DF1230701930DF1A70A6F
:1072E000029309AB92F80090DC46404AC3F10103D7
:1072F000D64692F800803A460593CDE903B49B4602
:10730000CDE906A702EB0B0012F8013F1CF8011FA4
:1073100009F1010703EB830308F1010403EB830385
:107320009B00B3FBF1F3592B06DD335C5FFA87F961
:1073300001273B43029733541EF8013F03EB8303BD
:1073400003EB83039B00B3FBF1F3592B07DD335CA5
:1073500001215FFA84F843F002030191335492450E
:10736000D0D1029BDDE903B4DDE906A713B11E4BC2
:1073700083F80090019B13B11C4B83F8008084229A
:10738000002109A818F09BFC84220021284618F04F
:1073900096FC842200214BA818F091FC0DF5C971D0
:1073A0002C22A2F157039BB203E001339BB29A4215
:1073B00008D0652BF9D8013320789BB201309A426E
:1073C0002070F6D101340132A14292B2E9D10B48CA
:1073D0000DF1240E4FF00008A8F12B03A0F1570285
:1073E0009BB211E0000020208A9F0020899F00208E
:1073F0008E9F00208D9F0020AF192120DFF52020D7
:1074000001328BB2904216D0652B03F10101F7D8FF
:107410001478132CF4D815F803C001329EF80040FC
:107420000CF1010C904204F1010405F803C08BB289
:107430008EF80040E8D108F1010859300EF1010E34
:10744000B8F1660FC8D12E4B4FF000090DF1890835
:107450001D782C4B03951C78CDE90199DDF814902B
:10746000049409EB070217F8013F1BF8011F05F10F
:10747000010E03EB8303B01804F1010C03EB83034B
:1074800002469B00B3FBF1F3592B09DD90F88430E1
:107490005FFA8EF543F0010380F8843001230193F5
:1074A0001AF8013F03EB830303EB83039B00B3FB59
:1074B000F1F1592909DD92F8843001215FFA8CF449
:1074C00043F00203029182F88430B845C9D1DDE966
:1074D000013913B10A4B03951D70B9F1000F02D0A9
:1074E000084B04941C70084B1878084B1B78184400
:1074F000039B1844049B184480B26DB0BDE8F08F24
:107500008E9F00208D9F00208A9F0020899F002051
:107510002DE9F041514D2C780A2C1DD8DFE804F0FC
:10752000271C363C46066B7D1C1C200001210846AA
:1075300018F0BEFE0121002018F0BAFEFFF73CFE55
:10754000474B1888013004B210F0FF001C8001D0B6
:10755000FDF7FEFB042C78DC00242046BDE8F0811A
:107560000024404818F05AFA2046BDE8F0813E4A0F
:10757000137801331370FEF757F9FEF7E5FBFEF7BA
:107580005BF8022320462B70BDE8F0810323002422
:107590002B702046BDE8F08100243449304A042392
:1075A00020460C8014802B70BDE8F08101212F4E05
:1075B000084618F07DFE0121002018F079FEFFF743
:1075C000FBFDB6F900405FFA84F80134404624B26E
:1075D000FDF744FC07464046FDF78EFD38443480F5
:1075E00080B208B905232B70B4F5C87FB4DD05233C
:1075F00000242B70B1E70121084618F059FE012143
:10760000002018F055FEFEF75BFF194BD8B10022A1
:107610001A60072300242B709FE7164B5B789B07AB
:1076200001D5FEF7D5FC01210C46084618F040FEB6
:107630000020214618F03CFEFEF742FF0C4B18607C
:107640002046BDE8F0811860E3E7FDF751FF002414
:10765000FDF79CFE06232B707FE700BF740F002010
:107660006A9F002014030470859F0020609F002003
:10767000800F0020700F0020064A0021064808B540
:1076800005F0BCFB054A00210548BDE8084005F0AF
:10769000B5BB00BF7CA9047000400C4090A90470E9
:1076A00000800C401F230249024A0B6013607047A0
:1076B00000400C4000800C40C31C5B1A062B2DE9D7
:1076C000F0433ED90B6803604B6843608B6883606E
:1076D000CB68C36090F80FE0042390F80EC0417BA4
:1076E000027B284CDFF8A09013F0030F4FEA9305BC
:1076F00003F101030AD1665C19F8055014F80C1067
:1077000014F80EC014F802E086EA050290F8008032
:107710002C2B477800F1040010F8026C82EA080272
:1077200010F8015C81EA07018CEA060C02738EEA0C
:10773000050E417380F80EC080F80FE0D4D1BDE88B
:10774000F0830B7803704B7843708B788370CB7821
:10775000C3700B7903714B7943718B798371CB794A
:10776000C3710B7A03724B7A43728B7A8372CB7A32
:10777000C3720B7B03734B7B43738B7B8373CB7B1A
:10778000C373A7E75003047044030470C31D5B1A5E
:107790002DE9F04F0E2B9BB08246199140F29A8250
:1077A00041EA0A030846590740F09482DAF80030AB
:1077B000D0E900215340DAF80820CAF80030DAF89E
:1077C00004304B40CAF804308168DAF80C304A4083
:1077D000C1684B40CAE902239AF807409AF8023080
:1077E00007949AF80B409AF801B001949AF80F4068
:1077F0009AF8039000940593199C9AF80630A046D5
:10780000CDF808B090340693CDF820909AF800E0B7
:107810009AF804C09AF808109AF80C209AF80570A3
:107820009AF809509AF80D009AF80A609AF80E3002
:107830001894DDE900B9CE4C08F1100814F80EE0F8
:1078400014F80C400094CA4C645CC9494D5D085C56
