:02000004700288
:10000000464346420004015600000000010303007D
:1000100000000000000000000000000000000000E0
:1000200000000000000000000000000000000000D0
:1000300000000000000000000000000000000000C0
:100040001000000001040700000000000000000094
:100050000000400000000000000000000000000060
:100060000000000000000000000000000000000090
:100070000000000000000000000000000000000080
:10008000EB04180A063204260000000000000000FD
:10009000050404240000000000000000000000002F
:1000A0000000000000000000000000000000000050
:1000B0000604000000000000000000000000000036
:1000C0000000000000000000000000000000000030
:1000D00020041808000000000000000000000000DC
:1000E0000000000000000000000000000000000010
:1000F0000000000000000000000000000000000000
:10010000D8041808000000000000000000000000F3
:100110000204180804200000000000000000000095
:1001200000000000000000000000000000000000CF
:10013000600400000000000000000000000000005B
:1001400000000000000000000000000000000000AF
:10015000000000000000000000000000000000009F
:10016000000000000000000000000000000000008F
:10017000000000000000000000000000000000007F
:10018000000000000000000000000000000000006F
:10019000000000000000000000000000000000005F
:1001A000000000000000000000000000000000004F
:1001B000000000000000000000000000000000003F
:1001C000000100000010000001000000000000001D
:1001D000000001000000000000000000000000001E
:1001E000000000000000000000000000000000000F
:1001F00000000000000000000000000000000000FF
:10020000FFFFFFFFFFFFFFFFFFFFFFFFFFFFFFFFFE
:10021000FFFFFFFFFFFFFFFFFFFFFFFFFFFFFFFFEE
:10100000D10020410020027000000000000000001C
:1010100020100270001002700000000000000000AC
:10102000000000700000400000000000FFFFFFFF14
:10103000FFFFFFFFFFFFFFFFFFFFFFFFFFFFFFFFC0
:10104000FFFFFFFFFFFFFFFFFFFFFFFFFFFFFFFFB0
:10105000FFFFFFFFFFFFFFFFFFFFFFFFFFFFFFFFA0
:10106000FFFFFFFFFFFFFFFFFFFFFFFFFFFFFFFF90
:1020000000000220F92202705124027055E602708D
:10201000592402705D2402706124027000000000E7
:1020200000000000000000000000000065240270B5
:1020300069240270000000006D2402707124027097
:102040003168027039680270416802704968027034
:1020500051680270596802706168027069680270A4
:102060007168027079680270816802708968027014
:102070009168027099680270A1680270A968027084
:10208000B1680270B9680270C1680270C9680270F4
:10209000D1680270D9680270E1680270E968027064
:1020A000F1680270F96802700169027009690270D2
:1020B0001169027019690270216902702969027040
:1020C00031690270396902704169027049690270B0
:1020D0005169027059690270616902706969027020
:1020E0007169027079690270816902708969027090
:1020F0009169027099690270A1690270A969027000
:10210000B1690270B9690270C1690270C96902706F
:10211000D1690270D9690270E1690270E9690270DF
:10212000F1690270F9690270016A0270096A02704D
:10213000116A0270196A0270216A0270296A0270BB
:10214000316A0270396A0270416A0270496A02702B
:10215000516A0270596A0270616A0270696A02709B
:10216000716A0270796A0270816A0270896A02700B
:10217000916A0270996A0270A16A0270A96A02707B
:10218000B16A0270B96A0270C16A0270C96A0270EB
:10219000D16A0270D96A0270E16A0270E96A02705B
:1021A000F16A0270F96A0270016B0270096B0270C9
:1021B000619D0270116B0270196B0270216B0270CD
:1021C000296B0270316B0270396B0270416B0270C7
:1021D000496B0270516B0270596B0270616B027037
:1021E000696B0270716B0270796B0270816B0270A7
:1021F000896B0270916B0270996B0270A16B027017
:10220000A59D0270959D0270A96B0270B16B027062
:10221000B96B0270C16B0270C96B0270D16B027036
:10222000D96B0270E16B0270E96B0270F16B0270A6
:10223000F96B0270016C0270096C0270116C027013
:10224000196C0270216C0270296C0270316C027082
:10225000396C0270416C0270496C0270516C0270F2
:10226000596C0270616C0270696C0270716C027062
:10227000796C0270816C0270896C0270916C0270D2
:10228000996C0270A16C0270A96C0270B16C027042
:10229000B96C0270C16C0270C96C0270D16C0270B2
:1022A000D96C0270E16C0270E96C0270F16C027022
:1022B000F96C0270016D0270982A05700000002010
:1022C0001805000080E704700000000018430000BB
:1022D000982A05700000202000000000000800205F
:1022E00010020100184300003C61010000002020A2
:1022F000D0220700FFFFFFFF72B6514B83F308881F
:102300000DF08CF94F4F504BBB429C4630D2DCE96C
:1023100000140CF10C0C5CF8043C0A4633B341EA9F
:1023200004000E1D013BA51BC0F3020018BF0125D0
:10233000002818BF0025002D6ED02F2B6CD99A08CD
:10234000651A0B460132560801EBC606E818083339
:1023500013ED027BB34280ED007BF7D122F0010345
:10236000D20703D551F8232044F82320BC45CED30F
:10237000364B9C454AD2013B0CF110020CF108058A
:102380000026A3EB0C0C2CF0070C9FED2B7B944448
:1023900055E902341A46B4B3611EC3F380078808B6
:1023A000172900F1010043D9A7B34FF0040E42F8FA
:1023B000046BC01B03EB8703410803EBC101A3ECD3
:1023C000027B9942FBD120F00101884202EB81029D
:1023D0000EEB810317D0191D16608C4213D903F13F
:1023E000080156608C420ED903F10C0196608C42B4
:1023F00009D903F11001D6608C4204D91433166157
:102400009C4288BF566108356545C1D162B620F04F
:1024100063F9FEE7BE46CCE723F00303651A3344B5
:1024200010465119043200689A420860F8D19DE7BD
:102430000023D0E7AFF300800000000000000000A0
:1024400000000220DC220270B8220270F422027026
:10245000FEE700BFFEE700BFFEE700BFFEE700BFEC
:10246000FEE700BFFEE700BFFEE700BFFEE700BFDC
:08247000FEE700BFFEE700BF1C
:102478009FED2D7B30B4012882B08DED007B4AD9C9
:10248800811ECBB2012B08D9831FDBB2012B04D9E3
:10249800A0F10A03DBB2012B3DD802AC04EB8303A5
:1024A80053F8083C002B36D001EB4101204C490180
:1024B8000C444FF4C011C4F8B4110024196B41F452
:1024C80080411963196B41F400411963A0F10A01B5
:1024D8001C60012902D90638012805D84FF40020CC
:1024E8004FF4801158635963CAB1907851781478C1
:1024F8000A041D69010204F00F0002F4702201F4BD
:1025080070610A430B490243294000200A431A61BB
:1025180002B030BC7047012002B030BC7047104692
:1025280002B030BC704700BF00900D4000A00D40C5
:1025380000800D40F0F0F0FF831EF0B51646DAB2C9
:1025480083B0012A2AA5D5E90045CDE9004540D840
:10255800234A1778002F38D102AC224D04EB8303AD
:1025680085F8870053F8084CD4F840316C6043F084
:102578000203C4F84031012313701B4BEB601B4B63
:10258800AB60D4F840319B07FBD4D4F8243103F076
:102598001F03062B85F8853003D80127384603B07A
:1025A800F0BDD4F8A8310F4823F003032960C4F81C
:1025B800A831D4F8A83143F00203C4F8A83101F0D7
:1025C800CFFE3846356003B0F0BD0327384603B068
:1025D800F0BD0627384603B0F0BD00BFAFF300805A
:1025E80070120020E4110020000F002000080020D5
:1025F80000002E4000022E40C74B2DE9F04F5A69CB
:10260800DFF834B3282A2DED088BD3E9037487B09B
:10261800D3E90656DBF854380392A8BF2822CBF832
:102628005038DBF848380092049308F069F8092814
:10263800CBF8540800F27E820BF5056393ED004A4F
:1026480014EE103ACBF85438039B002B40F37882F1
:1026580038462A46B14B751EFF274FF47F4EDDF8EA
:10266800008001931F70083050F8081C08340C32A1
:10267800343343F8301C50F8041C43F82C1C54F82D
:10268800081C43F8281C54F8041C43F8241C12F8AE
:102698000C1C03F8111C12F80B1C03F8101C12F880
:1026A8000A1C03F80F1C12F8091C03F80E1C294613
:1026B80052F808CC023143F80CCC891B52F804CCF0
:1026C80023F814EC43F808CC884515F901CF03F832
:1026D800127C03F804CCC5DC904D8F4BA5F1340C6B
:1026E800DFED8F3A5E6934239FED8E3A03FB06CC0B
:1026F8009FED8D2A0523DFED8D2ADBF8487806F15A
:10270800FF3802930595002E40F3B5850199002501
:102718004FF00109DFF818E24FF0340A0C78FF2C6B
:1027280071D191F92030012B6DD0002F40F3C28177
:10273800F0EE434A7E4B002293F92000012825D071
:10274800587810F0EF0F21D0B8EE446AD3ED076A3D
:10275800D3ED027A93ED065AE6EE267AD3ED015AC6
:1027680091ED027AE5EE065AD1ED016A77EE677AC5
:1027780036EEE57A67EEA77AE7EE077AF4EEE47AC2
:10278800F1EE10FA02D5F0EE674A144601323433FE
:102798009742D1D1FF2C00F08D810AFB04F20EEB99
:1027A80002035878132842FE227AF4EEE47AF1EE16
:1027B80010FA40F37F8193ED026AF8EE447AD3ED84
:1027C800015AD1ED016A91ED027A76EEE56A1EF8BA
:1027D800022037EE467A83F821500A7086EEA76AFF
:1027E8009A7848708A70DA7893F82230C7EE276AA8
:1027F80081F82140C1ED054ACA7081F8223081ED87
:10280800066AC1ED076A01353431AE4286D1B8F1A6
:10281800000F40F33685019901244FF0000E4FF068
:10282800FF0991F92030012B00F047810B782546EC
:10283800FF2B26D0A64224DD0B4602E034339C450C
:102848001FD093F95420012AF8D093F83420FF2A96
:10285800F4D008789042F1D1D3ED127A91ED057A4F
:1028680077EEC77AF4EEE37AF1EE10FA40F31D81C1
:1028780083F8349083F8559034330EF1010E9C455B
:10288800DFD1A84501F1340104F10104C9DC002EAF
:1028980018DD019A0021012013780131FF2B0DD09A
:1028A80092F9213082F8200003EB4304002B03EB5C
:1028B800840303DB0BEB830383F848008E4202F1A9
:1028C8003402E9DCBEF1000F04D0029B013B029305
:1028D8007FF419AF039B059D002B74DD0020DFF802
:1028E8005CA09BF84C384FF0110E0199044607463E
:1028F800DFED107A4FF0FF0CDFF84480DFF84490EA
:10290800009E029503E001343431A64257DD0A786F
:10291800FF2AF8D100221EE0FCFD0000B8FF2120AC
:1029280017B7D13850A9AB4C00409C470000FA4576
:10293800C8F5212000000000A0F52120000080BF7C
:1029480098062220C88E00201BF80350FF2D10D0B7
:10295800272A0ED001320133DBB2272B1846F3D9D0
:102968009BF801000123FF2801D0272AF2D101207A
:102978000346C0EBC00201340BF8003008EBC0007E
:1029880009EB8202A6420B7001F13401C0F85CA188
:10299800C0F860A14FF0010001F833EC01F8327C77
:1029A80001F8317C41ED077A41ED067A41ED087A6C
:1029B80001F813CCC2F808A0C2F80CA0A7DC029D4D
:1029C80008B18BF84C38049F002F18DDAC4B00225F
:1029D800012034264FF01009DDF800C093F92010CB
:1029E80039B9597883F82000132902D1BCF1270F8F
:1029F8006ADD013234339742F0D1CDF800C0A14BE3
:102A08001B78012B40F09F800099002940F3B38484
:102A18009D4B34221B78002B00F04984019B132026
:102A280002FB013202216B78112B02D1687085F804
:102A380022103435AA42F6D12822FF2193484FF0BC
:102A480034081FF04EFE924E4FF0000E6FF41F63D5
:102A58004FF47F4A774606EB0309337808FB0E9C50
:102A680016F8012C751E03F0FD0364460137343651
:102A7800112B0BF802200BD10EF1010E0FCD0FC454
:102A88000FCD0FC40FCD0FC42B682360ACF820A066
:102A9800009B9F42E1DB009BCBF848E8CBF8D0389D
:102AA80007B0BDEC088BBDE8F08F81F8009081F885
:102AB8002190E1E681F82090A5E6254634310134DD
:102AC800A8453FF7AEAEE2E6019C06FB0CFE93F884
:102AD8000080214683F821C00CF1010C714481F873
:102AE800019004F80E80D3F804E081F82120C1F8A1
:102AF80004E0D3F808E0C1F808E0D3F80CE0C1F826
:102B08000CE0D3F810E0C1F810E0D3F818E0C1F8F1
:102B180018E0D3F81CE0C1F81CE093F802E081F853
:102B280002E093F803E081F803E093F822E081F8EB
:102B380022E05EE7039B04EE100A002B3FF788AD06
:102B4800544B0193C8E5009B002B40F30E84DFF83B
:102B58006091B3EE0E5AF2EE004A1A4699ED007AE9
:102B68003421DFF850A144F61F67019B77EE456AD0
:102B78009AED006A37EE647A01FB0231464E002472
:102B88004FF0020E4FF0010C28E006EBC20250682D
:102B9800B84203D814EE108A40445060D3ED027A4C
:102BA800F4EEC77AF1EE10FA07DC76EE245AF4EE6A
:102BB800E57AF1EE10FA58BF5470F4EEE76AF1EED8
:102BC80010FA08D476EE055AF4EEE75AF1EE10FA48
:102BD800D8BF82F800C0343399421FD093F921003E
:102BE8001A780028D1DAD3ED027AF4EEC77AF1EE3A
:102BF80010FA06DD06EBC20282F801C014705460B8
:102C0800DBE776EE245A06EBC202F4EEE57AF1EE43
:102C180010FA4CBF82F801E05470EFE700221F4819
:102C2800DFF8948002621046019BDFED1D6AC8F848
:102C38009C22D3ED047A343313ED0A7A67EE877A4F
:102C4800F4EEE67AF1EE10FA01DD01300122994244
:102C5800EFD122B1021E114B18BF01221862009B4E
:102C6800022B00F39183002A40F08E8307230193FF
:102C78009FED0C8A0024DFED0C9ADFED0C8A4DE005
:102C8800C8F52120070A0120060A0120A0F5212005
:102C9800B9FF2120B8FF212078FE2120FCFD00008B
:102CA80000409C4500000000CDCCCC3D7B142E3E5E
:102CB800588E0020608E00209806222007EE903A59
:102CC80095F8243006EE903AF8EE677A95F82530B4
:102CD800F8EE666A86EEA77A73BBF0EE486AF4EE01
:102CE800C76A6B78D5ED017A95ED026AF1EE10FAB4
:102CF800C8ED527A88ED556A54BFF0EE665AF0EE88
:102D0800475A112B00F02A81132B3AD0102B20D0D0
:102D18000134009B34359C42BFF68EAE95F82330C3
:102D280095F921602F78002BC8D195F82530002B14
:102D380000F0ED80B0EE487A07EE903A95F826302C
:102D480006EE103AF8EE677AB8EE466AC6EE276ADB
:102D5800C5E7EB78FF2BDBD00133DBB2012BEB703F
:102D6800D6D11323272E6B70D2D806EB460306EB79
:102D780083066F4B03EB86035A689B686A60AB60F7
:102D8800C6E76C4B1B78012B00F07F82AB78FF2BDA
:102D980001D00133AB70684B1B6A002B40F078827E
:102DA800D9ED005ADFED653A654B9AED004A9FED83
:102DB800655AA5EEA34AD3ED003A634B65EE855AF2
:102DC800DFED624A93ED005A63EEA44AA3EEA85AD7
:102DD800B4EEE75AF1EE10FA65DDB4EEC64AF1EE4C
:102DE80010FA60D5F4EEC65AF1EE10FA24DCF4EECF
:102DF800E74AF1EE10FA04D5F4EEC65AF1EE10FAED
:102E08001ADCB4EEC64AF1EE10FA57DDB4EEE75A12
:102E1800F1EE10FA52D5F4EEE74AF1EE10FA0BDCB7
:102E2800F4EEC65AF1EE10FA00F19882B4EEE75AC1
:102E3800F1EE10FA40F3AB82B4EEE97ADFED447AB2
:102E4800F1EE10FA00F12C82B6EE006AB4EEC67A02
:102E5800F1EE10FA04D4F4EEC66AF1EE10FA14D5C5
:102E680095ED037AB4EEE77AF1EE10FA40F1568266
:102E7800002E0ADB06EB460306EB83062C4B03EB1E
:102E880086035A689B686A60AB6095F82230002216
:102E9800023BEA70012B3FF63BAFD8F89C32013376
:102EA800C8F89C3234E7F4EEE74AF1EE10FAA8D5F8
:102EB800B4EEC64AF1EE10FAA3D59DE7F4EEC65A71
:102EC800F1EE10FA00F14482B4EEE75AF1EE10FA8E
:102ED80040F35D82B4EEC64AF1EE10FAACDCF4EED3
:102EE800E74AF1EE10FA04D5B4EEC64AF1EE10FA4C
:102EF800A2DCF4EEC65AF1EE10FA9DD4F4EEE74ADD
:102F0800F1EE10FA00F15582DFED127AC2E16B782A
:102F1800D5ED017A95ED026A112BC8ED527A88ED4C
:102F2800556A3FF4F5AEF0EE486AB0EE487AEBE643
:102F3800C8F52120060A0120FCFD0000B81E053E48
:102F4800548E002052B85E3F5C8E0020E17A543FD8
:102F58009A99993FCDCCAC3F295C0F3E5FED027A40
:102F6800F4EEE75AF1EE10FA7FF7D2AEAB78FF2B0A
:102F780000F05F810133DBB2012BAB7040F0598167
:102F8800CE4B1B6A002B40F05481D5ED037AD5ED6A
:102F9800046A9FEDCB7A67EEA67A019BF4EE477A36
:102FA800F1EE10FAC8BF06230193002EFFF6B0AE6B
:102FB800AB78019A9342FFF4ABAEC7EBC707C149A0
:102FC80001EB8703BF0093ED029AB5EEC09AF1EECC
:102FD80010FAFFF69DAE07F11002DAED004A99EDFE
:102FE800006A8A58F0EE643ADFEDB75AC5F8232034
:102FF800B64AE6EE253AD3ED032AD3ED056A93EDFA
:10300800067AB4EEE29AD2ED005A26EEA2AAB04AA7
:1030180069EE07AAB0EE653ADFEDAE1AC5ED0A6AA9
:10302800F1EE10FAD2ED006AB4EEEAAA9FEDAA2AF0
:10303800A6EEA13A9FEDA95A54BFB0EE62BAB0EE1F
:1030480049BAD5ED017AF1EE10FA85ED039AB4EE9E
:10305800E29A9FEDA34AE6EEA85AC5ED042A26EEA9
:10306800855A7AFE2A1A66EE826A9FED9E2A26EE15
:10307800044A85ED0B7AE6EE024A95ED027A54BFD2
:10308800B0EE6A2AB0EE4A2A5A7CF1EE10FA197CA0
:10309800F4EEC37A9E7CDF7C39FE229ADFED922A19
:1030A800F1EE10FA26EE226A6BEE0B2A00F18D8102
:1030B800F4EEE67AF1EE10FA05DDB4EEE47AF1EE1C
:1030C80010FA00F39381B4EEE47AF1EE10FA40F1CD
:1030D8009581F4EEC37AF1EE10FA40F38F81F4EEA5
:1030E800E67AF1EE10FA00F18781B4EEC67AF1EED5
:1030F80010FA00F37D82F4EEC37AF1EE10FA00F1D3
:103108007B81F4EEE67AF1EE10FA40F3A281B4EE98
:10311800E47AF1EE10FA00F16F81F4EEC37AF1EE81
:1031280010FA00F18B81B4EEC67AF1EE10FACCBF3A
:1031380001230023F4EEE57AF1EE10FA40F1CA819A
:10314800B4EEE37AF1EE10FA40F3C481B4EEC47A37
:10315800F1EE10FA00F12D82F4EEC57AF1EE10FAD4
:1031680005DDB4EEC47AF1EE10FA00F12282B4EE75
:10317800E37AF1EE10FA40F16E81F4EEE57AF1EEC1
:1031880010FA40F36881F4EEC57AF1EE10FA00F116
:103198001082B4EEC47AF1EE10FA00F30482F4EE71
:1031A800E57AF1EE10FA40F11082B3EE0A6AFF20D8
:1031B800B2EE0C7AF2EE0A7A85F82200F1EE006A95
:1031C8003E48006A18B1B2EE037AF2EE027ADFEDF9
:1031D8003C5AF4EEE52AF1EE10FA40F38881DFED6F
:1031E800437A1323F4EEE72A6B70F1EE10FA4CBF22
:1031F8000523042385F82230DFED3D7AB4EEE79A03
:10320800F1EE10FA40F3C381F6EE087A6B786BEEB4
:10321800277AFCEEE77A17EE902A6A86132B7FF45A
:1032280077ADDBF8D438012B7FF472AD11236B70C6
:103238006EE521462F4809F0F7FC002E77DBD5ED27
:10324800037A06EB4603D5ED046A06EB83029FED8D
:103258001C7A67EEA67A284B03EB8203F4EEC77A52
:103268005A68F1EE10FA6A609B68AB607FF79DAE12
:10327800062301939CE6B8F1000F3FF7CCAAFFF7AD
:1032880029BB4FF0000EFFF704BB10236B703FE51E
:10329800F7EE007AB4EEE97AF1EE10FA7FF5D4ADE4
:1032A800F4EEE96AF1EE10FA3FF5E2ADCCE5019BE8
:1032B8001320102402FB0132022128E0FCFD00004B
:1032C8000000F042C88E0020B81E053E5C8E00202B
:1032D800548E00208FC2753DD7A3703FE17A543FCA
:1032E80052B85E3FCDCC4C3D3333733F000048436A
:1032F80000004842B8FF2120C8F521200000F04214
:10330800132B00D16C70343595423FF495AB6B7834
:10331800112BF5D1687085F82210F4E795ED047A41
:10332800F4EEC77AF1EE10FA7FF7AFADA0E5D5ED70
:10333800037AD5ED046A1FED0F7A67EEA67A019B32
:10334800F4EE477AF1EE10FAC8BF06230193DFE4E2
:10335800B4EEE75AF1EE10FA7FF5B6ADF4EEE74AAF
:10336800F1EE10FA7FF7B0AD66E50023B24AB34933
:10337800C2F89C320B622822FF21B1481FF0B1F934
:103388004FF0000EFFF787BB0323019370E4F4EEC0
:10339800E74AF1EE10FA7FF5B7ADB4EEC64AF1EEA2
:1033A80010FA3FF749ADB4EEE75AF1EE10FA3FF7DD
:1033B800A0ADF4EEC65ADFEDA37A9FEDA36AF1EE55
:1033C80010FA58BFF0EE467A64E7B4EEE47AF1EE0C
:1033D80010FA7FF76DAEB4EEC67AF1EE10FA0BD4A0
:1033E800F4EEE67AF1EE10FA7FF76DAEB4EEC67A37
:1033F800F1EE10FA7FF567AE01239BE6B4EEC67ACC
:10340800F1EE10FA05DDF4EEC37AF1EE10FA00F3EE
:10341800EF80F4EEC37AF1EE10FA7FF572AEB4EEF7
:10342800E47AF1EE10FAE7D4F4EEE67AF1EE10FA67
:1034380004DDB4EEE47AF1EE10FADDD4B4EEC67A27
:10344800F1EE10FAD8DCF4EEE67AF1EE10FA3FF776
:103458006AAE00236EE6B4EEC47AF1EE10FA05DD2A
:10346800F4EEE57AF1EE10FA00F39D80F4EEE57AD9
:10347800F1EE10FA40F1A980B4EEE37AF1EE10FA19
:103488003FF593AEF4EEC57AF1EE10FA05DDB4EE31
:10349800E37AF1EE10FA3FF588AEB4EEC47AF1EEB5
:1034A80010FA3FF782AEF4EEC57AF1EE10FA05DDB8
:1034B800B4EEC47AF1EE10FA3FF777AEFF20B3EE20
:1034C800086AB2EE087AF2EE067A85F82200F1EE82
:1034D800046A75E6F4EEC57AF1EE10FA7FF747AEA6
:1034E800B4EEE37AF1EE10FA7FF741AE39E6F4EE86
:1034F800C26AF1EE10FA44DCF4EEE17AF1EE10FA69
:103508003FDCF4EEC61AF1EE10FA78DCB4EEC72A06
:10351800F1EE10FA73DC7BB306EE907A07EE902A90
:1035280007EE101AB8EE666A06EE906AF8EE677A49
:10353800B8EEC77AF8EEE66AC7EE875AC6EE267A7C
:10354800F4EEE75AF1EE10FA54BF17EE900A15EEB2
:10355800900A1FF0A1F806460F4633A3D3E90023CB
:103568001FF0AFFB00284AD13046394630A3D3E9D3
:1035780000231FF07BFB20B9FF226B7885F82220FF
:103588004CE613236B70022385F8223049E6DFED01
:103598002F7AB4EEE79AF1EE10FACCBF3223082363
:1035A8006B866B783AE6F4EEC57AF1EE10FA7FF5A1
:1035B8005DAFFF20B3EE0A6AB2EE077AF2EE067A42
:1035C80085F82200F1EE006AFAE5F4EEC57AF1EE2C
:1035D80010FA7FF773AFB4EEE37AF1EE10FA3FF525
:1035E800E4ADF4EEE57AF1EE10FA7FF561AF54E759
:1035F800F4EEE67AF1EE10FA7FF50BAFFCE63AEE60
:103608002AAADFED137A1323B4EEE7AA6B70F1EE62
:1036180010FA03DD052385F82230EDE5032385F84C
:103628002230FEE5AFF300809A9999999999E93F7C
:10363800666666666666E63F98062220FCFD000020
:10364800A0F521209A99993FCDCCAC3F00000C42BF
:103658000000BE42000000002DE9F04FC74C4FF0BB
:1036680000088FB0D4F8D018A0F8008028298C461C
:10367800A8BF4FF0280C002900F06A82C04B824690
:103688001F68002F40F0C280002940F32C8104F607
:1036980018233A46597815461846102900F01E8115
:1036A800B84BF6EE007A03EBC505B74B93ED006A0D
:1036B800B64BD5ED006AD3ED005A76EE666AB44B88
:1036C80036EE656A95ED017A76EEC66A93ED006A84
:1036D800B04B36EE477AD3ED005AAF4B36EE656AFB
:1036E80093ED005AD3ED015A37EE467AAB4BB0EE64
:1036F800676AE7EE257AA6EE856AD3ED006AFCEEE6
:10370800E77ABCEEC67A17EE103A99B217EE903AFD
:1037180007EE101A9BB2B8EEC77AB4EEE67AF1EE6D
:1037280010FA04DDFCEEE66A16EE902A91B207EE76
:10373800903A9B4AF8EEE77A92ED007AF4EEC77A6F
:10374800F1EE10FA04DDBCEEC77A17EE103A9BB220
:10375800B7EE007AD0ED037AD0ED046AF4EE477A3A
:10376800F1EE10FAF4EE476A48BFF0EE477AF1EE50
:1037780010FA48BFF0EE476A002F40F0C180894A2E
:10378800F4EEE67A7E4DB6EE007A1770012237EE37
:10379800A66A854EF1EE10FA2A60DFF83CE2834A09
:1037A80026EE076A36FEA77ADFED817A1770B4EE47
:1037B800E77AF1EE10FA54DCF7EE006A002275465B
:1037C80003E001322D2A00F07A84D7B207EE907A0E
:1037D800F8EE677A77EEA67AF4EEC77AF1EE10FA89
:1037E800EFDB744FAE4607EB8202D2ED007A67EE4C
:1037F800277AFCEEE77A17EE902A92B2B2F5006FBC
:103808002FD2372A38BF372201922DE004F6570EFF
:1038180004F67F00734613F8012F012A0AD15A1EB5
:1038280008F1010604EB0805A2EB0E025FFA86F820
:1038380085F880289842EED1B8F1000F53D00029BE
:1038480051DD94F8806800225B4B01E094454ADD25
:103858001978154618460132B14203F13403F5D1FF
:103868001EE740F2FF720192544A1778002F40F089
:10387800B580DFED537A534AB4EEE76A05921770C4
:10388800F1EE10FA504A00F3A681069217600A2258
:1038980090F801C0039200924C4ABCF1130FDAF879
:1038A80008B017700A924FF0010231808AF80020A0
:1038B80090F80090AEF800308BF8019040F0E4806A
:1038C800072000258BF8000004EB0900049580F818
:1038D80058288AF80150DAF808B0D8E001323433B1
:1038E80094453FF7D7AE3A4B03200021244C18707B
:1038F8002822384821600FB0BDE8F04F1EF0F1BE15
:10390800294E32888A4200F2428180F007848A1A5E
:1039180097B2012F8CBF4FF0000C4FF0010CDFF86D
:10392800B8E0BEF800209A4240F24081D21A92B222
:10393800012A8CBF4FF0000C0CF0010CBCF1000FF9
:1039480000F042810027174A1770B1EE067AF4EEAC
:10395800C77AF1EE10FA40F1C182F4EEC76AF1EECF
:1039680010FA40F1BB8277EEA67A104AB6EE007ADA
:1039780027EE877AB0EE476A16E700BFA0F5212048
:10398800C08E002038092220888E0020548E002006
:103998008C8E0020588E0020FCFD00006C8E0020CC
:1039A800708E00200A0A0120E40901200C0A012077
:1039B800000034426C2E0470B8FF2120080A012050
:1039C80000006442090A0120BC8E00200B0A012075
:1039D8000D0A0120F8FD2120E6090120F3EE0E7AF8
:1039E80000220D9276EE677A0D92FCEEE77A17EEDA
:1039F800902A92B2232A38BF2322FF2A28BFFF2207
:103A080000927E4A1746059201223A700D9A7C4F21
:103A1800BA4208D8754600BF0D9A01320D920D9A28
:103A2800BA42F8D9AE46774A17680692062F40F28E
:103A38009980009A039240F2FF720192DFED727A48
:103A4800B4EEE76AF1EE10FA40F18E826F4F3A68F1
:103A58000132042A3A6040F28A8290F801C0BCF12F
:103A6800130F00F0BC83059A1778694ADAF808B092
:103A780017700A92012231808AF8002090F800908D
:103A8800AEF800308BF801909AF8012004924FEAC2
:103A98008912604D029205EB8912D2E96B60002809
:103AA80000F0C48006EB491097190B96099700F1AE
:103AB800040800F1080700F10C0600F1140E05EBEC
:103AC800400005EB4808079005EB4707079805EB0A
:103AD8004E0E05EB4606B0F87401CDF820E0B8F8B4
:103AE80076E1ABF80200B7F87801ABF804E0ABF880
:103AF8000600B6F87A01ABF808000898B0F8740127
:103B0800ABF80C00099890F8A6018BF80E000798FE
:103B1800A8F87631A0F8741100990898A7F87811D8
:103B28000399099BA6F87A110199A0F874110499D0
:103B380083F8A6110B9E032ED4BF01360026C2F8C7
:103B4800AC61BCF1100F00F0A8800FB0BDE8F08F99
:103B5800314B282204F6580019600FB0BDE8F04F29
:103B68001EF0BFBD002F40F0C0822C4A009D15807A
:103B78002B4A1580284A1268012A40F2DA824FF44B
:103B880048723188BEF8003003950192BCE2521A9F
:103B9800DFF894E097B2BEF80020012F8CBF4FF0F9
:103BA800000C4FF0010C9A423FF6C0AE80F0BB8289
:103BB8009A1A92B2012A8CBF4FF0000C0CF0010C3B
:103BC800BCF1000F7FF4BEAE974240F2A1820127FC
:103BD800144A1770B9E615460692126801320E2A81
:103BE8002A607FF654AE90F801C0BCF1130F00F0C4
:103BF80025830A220392009237E700BF090A0120B1
:103C08003F420F00BC8E002000006442C48E00209A
:103C18000B0A012090172220C08E0020E009012005
:103C2800E20901200A0A0120E6090120042E00F316
:103C38006C81971906EB491E04980136BCF1100FE8
:103C480087F8A60105EB4E07A7F87411A7F87E318F
:103C58000099019BA7F88811A7F89C310399B2F83D
:103C68007431A7F89211ABF80230B2F87E31ABF894
:103C78000430B2F88831ABF80630B2F89231ABF8BC
:103C88000830B2F89C31ABF80C3092F8A6318BF8BA
:103C98000E30C2F8AC617FF458AF029B4FF00108B8
:103CA800BF4FE918002387F80890D1F8B02187F8AA
:103CB80000807B60002A00F07981052E4FEA4912C6
:103CC80008BF1E46009218BFB04406EB491305EB27
:103CD8004302B2F874217A8105EB4302B2F87E21DF
:103CE800BA8205EB4302B2F88821FA8305EB430256
:103CF8001346B2F89221B3F89C013A851EF0ADFF45
:103D08009DA3D3E900231EF01DFC1EF099FC029B25
:103D180007EE900AB8F1050F2B44FCEEE77A1E4433
:103D280017EE900A96F8A631788687F83C3000F0AE
:103D3800FC8108F10106009B434405EB4302B2F8FD
:103D48007421BA8105EB4302B2F87E21FA8205EBB1
:103D58004302B2F888213A8405EB43021346B2F8CD
:103D68009221B3F89C017A851EF077FF84A3D3E9EA
:103D780000231EF0E7FB1EF063FC029B07EE900A8F
:103D8800052E2B44FCEEE77A984417EE900A98F833
:103D9800A631B88687F83D3000F01D82731C019368
:103DA800009B334405EB4302B2F87421FA8105EB1A
:103DB8004302B2F87E213A8305EB4302B2F8882128
:103DC8007A8405EB43021346B2F89221B3F89C01BA
:103DD800BA851EF042FF6CA3D3E900231EF0B2FBA4
:103DE8001EF02EFC029B07EE900AEB18FCEEE77A19
:103DF8001E4496F8A63117EE900A87F83E30019BCC
:103E0800F886052B00F0E2815E1C1A46029B2B44C3
:103E18009846009B134405EB4302B2F874213A829A
:103E280005EB4302B2F87E217A8305EB4302B2F830
:103E38008821BA8405EB43021346B2F89221B3F8FD
:103E48009C01FA851EF009FF51A3D3E900231EF057
:103E580079FB1EF0F5FB019A052E07EE900A08EB98
:103E6800020308BF0026FCEEE77A93F8A63187F82C
:103E78003F3017EE900A009B38879A19464405EBA5
:103E88004203B3F874317B8205EB4203B3F87E3109
:103E9800BB8305EB4203B3F88831FB8405EB42038F
:103EA8001A46B3F89231B2F89C013B861EF0D5FE53
:103EB80039A3D3E900231EF045FB1EF0C1FB07EE32
:103EC800900A96F8A631FCEEE77A87F8403000238E
:103ED80017EE900AC8E96B337887C9E0F4EEE67A02
:103EE800F1EE10FA36FEA77A012F00F0EE80022FCD
:103EF80000F0AB81032F00F0B88177EEA67A294A4B
:103F0800F6EE006A27EEA66A4EE4B2F89261012046
:103F1800B2F88871B2F87481B2F87EE1C2F8B001E3
:103F2800ABF80860B2F89C61ABF80280ABF80C60A3
:103F38000646ABF804E0ABF8067092F8A6718BF869
:103F48000E70A2F87E31009BA2F87411A2F8883195
:103F5800039BC2F8AC01A2F89231019BA2F89C31F4
:103F6800049B82F8A631ECE50F4A00271760059AF2
:103F780090F801C017788FE43E0AD7A3703DEA3F56
:103F88007B14AE47E17AE43F703D0AD7A370DD3F6A
:103F9800EC51B81E85EBD13FA09999999999B93FF1
:103FA800A87300200C0A0120C48E0020002E7E7009
:103FB80058DD731E022B40F2C9804FEA8912BB4BB1
:103FC800042E02F1280002F10A0802F1140E02F18F
:103FD8001E0C009003EB89104068C7F80E0003EB35
:103FE800080053F80880C7F81480D0F804800098B7
:103FF800C7F8188003EB0E0853F80EE0C7F81EE068
:10400800D8F804E0C7F822E003EB0C0E53F80CC014
:10401800C7F828C0DEF804C0C7F82CC003EB000CB2
:104028001858C7F832009B582A44C7F80A30DCF8F9
:104038000430C7F83630D2F8A631FB6312D0B1F895
:104048007C317B82B1F88631BB83B1F89031FB8437
:10405800B1F89A313B86B1F8A4317B8791F8AA313F
:1040680087F84030029B2B4498460023C8E96B33FD
:1040780000264C440422FF218D488BF8002084F848
:10408800586805241EF02DFB8A4B402231461E60DD
:10409800069B86481E60059B85F870611E700A9B0A
:1040A8001E70854B1E7001238AF80130834B1E60F9
:1040B800834B1C700FB0BDE8F04F1EF012BB40F2EE
:1040C800FF72AE460192FFF7CFBB7E4A77EEA67A23
:1040D80092F800C0BCF1020F30D0B6EE006AB0EE24
:1040E800667A27EE866AFFF75FBB07EB870202EB6B
:1040F8008202D20002F5487292B20192724A128884
:104108000392724A128800920137069A176095E462
:1041180034BF022703276E4A177016E44FF0010CCC
:104128000027FFF7FCBB002208E401264FF0000837
:1041380001E64FF4487203950192E5E7B6EE007A7E
:1041480027EE877AB0EE476AFFF72EBBB1F87431D5
:10415800012E7B81B1F87E31BB82B1F88831FB83B7
:10416800B1F892313B85B1F89C317B8691F8A63144
:1041780087F83C303FF476AFB1F87631032EBB8137
:10418800B1F88031FB82B1F88A313B84B1F89431BF
:104198007B85B1F89E31BB8691F8A73187F83D3011
:1041A8007FF460AFB1F87831FB81B1F882313B839D
:1041B800B1F88C317B84B1F89631BB85B1F8A03168
:1041C800FB8691F8A83187F83E304BE7002301269B
:1041D8001A4601931AE6012300260193E0E500221E
:1041E800354D2A70069D3A602A60059A1778012293
:1041F800384D4FF0000C31802F700A9507258AF84A
:10420800002090F80090DAF80800CDF810C080F887
:104218000190057004EB0900AEF8003080F85828CA
:104228006046DAF808B004228AF801C04FF0130C8F
:104238008BF800200390CDE9000028E401222F60CC
:104248001D4D2A701D4A1760D1E71E4A92F800C01A
:10425800BCF1010F1FD077EEA66AB6EE006AB0EE89
:10426800677A26EE866AFFF79FBA164A92F800C068
:10427800BCF1020FEFD0BCF1010F77EEA67A3FF444
:104288002CAFBCF1030F3FF459AFF6EE006A27EEEE
:10429800A66AFFF789BA77EEA67AB6EE007A27EE15
:1042A800877AB0EE476AFFF77FBA00BF0419222069
:1042B80020FE2120C08E0020080A0120C48E002084
:1042C8000D0A01200C0A0120E0090120E209012061
:1042D8000A0A01200B0A012010B58AB0012ACDE98B
:1042E80005311B4948F641738DF8220007914FF0BC
:1042F80000010391ADF820108DF823108DF82410DB
:104308008DF80C20ADF80E30CDE9011103D043F241
:1043180021500AB010BD0F4C05AB20222046049353
:104328001EF0DFF9201D01A920600BF035FA2146A7
:10433800094B51F8180B1B780BF044FA214651F839
:104348001C0B0BF053FA054B22681A600AB010BD1B
:1043580000000101C4110020E8090120C01100205B
:10436800C3684FF0400C1A4603F12001036130B4D2
:10437800196003F1600452F8401B0A600A6803F1EF
:104388008001146003F1A0041268116003F1C001F8
:104398001268146003F1E0041268116003F580717B
:1043A8001268146003F590741268116003F5A07127
:1043B8001268146003F5B0741268116003F5C071D7
:1043C8001268146003F5D0741268116003F5E07187
:1043D800126803F5F07314601024126811601168F4
:1043E80000220B600B6841681A6080F88440D1F89D
:1043F8004041836824F47F04C1F84041D1F840412A
:10440800C1F84041D1F8A84144F00804C1F8A841D6
:10441800D1F8A84124F00404C1F8A84101249C6003
:104428001D686CF31A451D6093F83850426162F3B9
:104438000005C2649C6483F838501D6C6CF31A45FF
:104448001D6493F87850826162F300050265C3F831
:10445800884083F87850D3F880506CF31A45C3F835
:104468008050C261426593F8B850C3F8C84062F3FF
:10447800000583F8B850D3F8C0506CF31A45C3F858
:10448800C05093F8F850026262F300058265C3F8E1
:10449800084183F8F850D3F800516CF31A45C3F873
:1044A800005193F83851426262F30005C265C3F8BF
:1044B800484183F83851D3F840516CF31A45C3F892
:1044C800405193F87851826262F300050266C3F89E
:1044D800884183F87851D3F880516CF31A45C3F8B2
:1044E800805193F8B851C26262F300054266C3F87E
:1044F800C84183F8B851D3F8C0516CF31A45C3F8D2
:10450800C05193F8F851026362F300058266C3F85C
:10451800084283F8F851D3F800526CF31A45C3F8EF
:10452800005293F83852426362F30005C266C3F83A
:10453800484283F83852D3F840526CF31A45C3F80E
:10454800405293F87852826362F300050267C3F819
:10455800884283F87852D3F880526CF31A45C3F82E
:10456800805293F8B852C26362F300054267C3F8F9
:10457800C84283F8B852D3F8C0526CF31A45C3F84E
:10458800C05293F8F852026462F300058267C3F8D8
:10459800084383F8F852D3F800536CF31A45C3F86C
:1045A80000534264C267C3F8484393F8384362F340
:1045B800000483F83843D3F840436CF31A44C3F833
:1045C800404393F87843826462F30004C0F8802083
:1045D80083F87843C1F85831C1F85421D1F8A4318F
:1045E8000F4A9BB21278C1F8A431D1F8A43143F034
:1045F8000063C1F8A431D1F884315AB943F080730B
:10460800C1F8843147220023C1F8482180F8863058
:1046180030BC704703F08073C1F88431F2E700BF03
:10462800E90901202DE9F04F994687B0CB094E00E2
:104638000293002306F01E06059346EAD1160028C9
:1046480000F007818368054603EB861393F838A0CA
:10465800B3011AF0010A039300F0C08090F8863085
:10466800002B40F0B28043F6FF7405A888469346B5
:104678004C44B4F5804F2CBFA40B01240BF0D0F8A8
:1046880095F88430A342C0F0EA802C69B9F5804FD0
:10469800CE4603F1FF33226828BF4FF4804E00272F
:1046A80005EB86062A61A9EB0E002246019785F8DC
:1046B800843001210BEB07037744216000216160FE
:1046C800A360A36803F5805323F47F6323F00F03EB
:1046D800E360E36803F580532361236903F580539E
:1046E8006361636903F58053A36163686EF31E43D6
:1046F8006360E369D4F808C06EF31E33CCF30B0C87
:10470800E36123F0004323F47F6323F00F0343EABC
:104718000C03E36118B9636843F40043636063689A
:10472800802161F307036360F36C002B51D01C6098
:10473800F464B8B12C69864695F884308146002F18
:1047480008BF2246B0F5804FD4F800C003F1FF330C
:1047580028BF4FF4804E85F88430A0EB0E00C5F8D2
:1047680010C0A6E718F00F0302D10299002955D10D
:104778004FEAD808019908F0100848EA030801230D
:1047880003FA08F381B3A968039801448A600022F8
:10479800CA60BFF34F8F6A68C2F8B031D2F8B81157
:1047A8000B420DD1334907E0C2F8B031D2F8B80155
:1047B800184205D1013958D0D2F8BC011842F3D0BB
:1047C80005984FF0000A0BF031F8504607B0BDE8E5
:1047D800F08F7461F464CDF804A0AAE74FF0010AE1
:1047E800504607B0BDE8F08F6968D1F8B0011842AB
:1047F800E6D1D1F8400140F48040C1F84001D1F839
:10480800B841D1F840014004F3D5D1F84001234222
:1048180020F48040C1F84001B5D0D1E7A968039FD2
:10482800CC1994F83840A407A2D5B9F1000F9FD04D
:10483800CC8E74459CD9CC59C4F30A44BEFBF4F61B
:1048480004FB16E4002C93D1CC5960F35D74CC5171
:104858008EE74FF0030A504607B0BDE8F08F059881
:104868004FF0020A0AF0E2FFAFE705980AF0DEFF10
:10487800ABE700BF7F9698002DE9F04702EB4108AF
:10488800054684B0002300EB880A0193DAF8140087
:10489800029330F01F045BD041EAC211DFF8B890F0
:1048A8004FEA88181E46CFB25BB36368190633D443
:1048B8006368E269C3F30E4C0299C2F31233DAF863
:1048C8004C20A3EB0C0382420B4402932BD00368C9
:1048D800CAF81430626812042FD433F01F032CD0A6
:1048E8002B696660236095F884302C61013385F864
:1048F8008430DAF8140030F01F0429D0019B002B13
:10490800D3D1A368A28B03EA0903C2F30B021343B2
:10491800019363681906CBD5DAF84C204FF0FF33C2
:1049280082420293D3D1CAF814600122CAF84C60BB
:10493800AB6843449A60DE60636801A928688DF813
:104948000C708DF80D6001F067F8CDE90166C7E7D6
:1049580004B0BDE8F08700BF00F0FFFFB0B10C4B1A
:10496800984202D10B4B00221A7043680020C3F80A
:104978004801D3F8402122F00102C3F84021D3F8BE
:10498800402142F00202C3F84021704703207047DB
:10499800E41100207012002001F00F0141F08001A5
:1049A800FFF740BE01F00F01FFF73CBE2DE9F04FC5
:1049B8004C0087B0002604F01E04CDE9011644EA35
:1049C800D114002800F0BE80054602A80AF028FF8E
:1049D8004FF0FF3305EB840C0FFA84FEDCF814402B
:1049E80034F01F04CDE9036300F0B1802046C37F93
:1049F800026843F08003C37732F01F00F7D1019AB1
:104A080001460646DFF84C91D30802F00F028046B3
:104A180003F01003134301229A4094F91F30002B2E
:104A280026DA63681F0639D4002948D0DCF8143028
:104A3800DCF84C70BB4250D01B6823F01F0ACCF83E
:104A480014306368C3F3C03B1B046BD4BAF1000F86
:104A580049D02B69C4F804B0236095F884302C61E0
:104A68005446013385F8843094F91F30002BD8DB85
:104A780000284ED0029803910AF0D8FE002E4DD09F
:104A88000026019B03A928688DF814308DF815605D
:104A980000F0C2FF304607B0BDE8F08FD5F804A09B
:104AA800DAF8B4311343CAF8B431DAF8B43113423E
:104AB800FBD1DAF8B8311342F2D10029B6D1A16896
:104AC8000120A38B01EA0901DCF84C70C3F30B0346
:104AD8001943DCF81430BB42AED10023CCF84C307B
:104AE800CCF8143063682B6900226260236095F863
:104AF80084302C61013385F8843000B1039101269C
:104B0800AB6803EB8E1E0123CEF808300023CEF8E5
:104B18000C3002980AF08AFE002EB1D1304607B058
:104B2800BDE8F08F2B69C4F80480236095F88430C1
:104B38002C61013385F88430BAF1000FDDD00126ED
:104B4800544691E70326304607B0BDE8F08F264665
:104B5800D6E700BF00F0FFFF2DE9F04101F00F0696
:104B6800CA0883680546770002F01002CC0947EAB4
:104B7800D117324303EB87134FEA87180127974071
:104B880093F838206FF3000283F83820FFF70EFF00
:104B98006B68D3F8B0213A421AD1D3F8B8213A4019
:104BA80016D1A96841F8082086B103EB8603002CCA
:104BB8001646D3F8C02114BF6FF40D016FF08D01B4
:104BC80030460A40C3F8C021BDE8F081002CF0E768
:104BD80002263046BDE8F0812DE9F04782B0002872
:104BE80000F0AC800D46044614290FD8DFE801F028
:104BF8001E260B2F374D676DAB0E0E0E0E0E928BC9
:104C08000E0E0E0E1300002A40F09F800125284644
:104C180002B0BDE8F087002AF8D013780025426872
:104C28005B0643F08073C2F85431F0E74268D2F86B
:104C3800403143F00103C2F84031E8E742680025FB
:104C4800D2F8403123F00103C2F84031DFE7002AEF
:104C5800DCD0117802B0BDE8F047FFF77DBF002A2D
:104C6800D4D0167816F00F0540F0DF802946FFF7FC
:104C78009DFE80212046FFF799FE6268D2F8C03178
:104C880043F00113C2F8C031C1E7002ABED0117841
:104C980011F00F024FEAD11040F0B480626800288A
:104CA800D2F8C03114BF6FF480306FF001000340B8
:104CB800C2F8C03120460025FFF778FEA7E7002A92
:104CC800A4D000231D461380A1E7002A9ED01378A4
:104CD80003F00F05062D99D8DB094168002D00F077
:104CE800B78005F16F00002B4FF0000501EB800342
:104CF80014BF4FF4803101215B680B4214BF0123BC
:104D08002B46538083E7002A80D090F8883000250E
:104D180013707CE7002565F07F01EEB2204601356F
:104D2800C9B2FFF719FF31462046FFF715FF072DD7
:104D3800F1D120460025FFF713FB68E70325284635
:104D480002B0BDE8F087002561E792F802800126ED
:104D5800B2F800904FEAD80308F00F07414692F8DE
:104D680003A003F0100301923B439E40FFF71EFE91
:104D78006168D1F8B0311E427FF449AFD1F8B8313B
:104D88001E407FF444AF0AF003007B00C9F30A0910
:104D98004FEAD815012843EAD813019A00F0848015
:104DA800A4684FEA831C54F80CE004EB831366F301
:104DB8009F7E44F80CE01C6869F31A441C6014795F
:104DC80093F8382064F3410283F83820002F4CD13F
:104DD8001A6842F000521A601A6842F400421A60D7
:104DE800D1F8C021002D74D0800440F44000024363
:104DF800C1F8C02193F83820002542F0010283F859
:104E0800382004E7636803EB8203D3F8C021002845
:104E180042D022F480324FF48000C3F8C021D3F886
:104E2800C0211043C3F8C00144E73146FFF7BEFD77
:104E38006368F20903EB85034FF0000514BF4FF4D4
:104E480080310121D3F8C0210A43C3F8C021DEE62E
:104E5800002BD1F8C01114BF4FF48033012319423D
:104E680014BF012300235380D1E6B4FA84F401EB84
:104E780087021968640964F35D71196019686FF332
:104E8800CF311960D2F8C0413DB3810441F44001EB
:104E98002143C2F8C011ADE722F001024020C3F857
:104EA800C021D3F8C021BCE7A6684FEA831C148848
:104EB800B9F5806F56F80CE006EB8313C4F3C124F0
:104EC80028BF4FF48069013464F39F7E46F80CE0F4
:104ED80071E7800040F0C00089E7810041F0C0011F
:104EE800D6E700BF002800F0B5812DE9F04F8568AE
:104EF80089B06B68D3F8A421160313D4D3F84411EE
:104F0800D3F848210A4050060392C3F8442100F11F
:104F18003681039BD90740D4039B5B071BD409B098
:104F2800BDE8F08FD3F8A411002241F40021C3F8A2
:104F3800A41105A98DF81D20D3F8A4311C054CBF78
:104F4800172316238DF81C302868CDE9052200F0B8
:104F580063FD6B68D2E700238DF81D306A68D2F8CC
:104F6800844114F48074CDE90533D8D1D2F8842172
:104F780095F8863012F4007F14BF0222002285F8CB
:104F88008820002BCBD0102305A98DF81C30286869
:104F980000F042FD85F88640C1E76B68D3F8AC9114
:104FA800B9F1000F4BD000260127344603E0013445
:104FB8008036072C42D029FA04F35FFA84FADA071C
:104FC800F5D5AB685146284603EB060818F830BFFC
:104FD8004FEADB1B5A46FFF74FFC8BF001025146A4
:104FE8002846FFF749FC8DF81CA08DF81D70082392
:104FF800A968069307FA04F331446A68CDF8148067
:10500800C2F8AC31D1E90A0CD2F8403143F400536C
:10501800C2F84031D2F840319B04F5D5D2F840317E
:105028000134803623F40053C1E90C0C05A9286823
:10503800C2F8403100F0F0FC072CBCD16B68D3F803
:10504800BC210292C3F8BC21002A3FF465AF0023BB
:1050580001271A4601930EE0A1F11003DBB2062BDB
:1050680040F2D480202F3FF457AF019B0137013322
:10507800FFB21A460193029BD1B2D340DB07F1D5A8
:105088000F2AE9D80629F0D800204FEA41098046BE
:1050980009F0FE09CDE9050005EB890BDBF81430B2
:1050A80033F01F03E1D00844012648EA01084FEA1B
:1050B800891986401C4606E05A68110406D41B6804
:1050C80033F01F0308D05A681006F5D55A6812063F
:1050D800C8D45B681B04C5D56368180647D4059B0C
:1050E800002B00F088806268E369C2F30E42C3F3C4
:1050F80012339B1A069A1344DBF814200693DBF844
:105108004C309A425FD01368CBF8143062681104AF
:1051180064D433F01F0361D02B69002262602360DE
:1051280095F884302C61013385F88430DBF814302D
:1051380033F01F0396D05A681C461206CCD569680E
:10514800C1F8B061D1F8B8211642C5D1D1F8B02163
:105158001642FBD1D1F8B8013040BDD1AA684A4403
:105168009360D060C1F8B06163681806B7D5DBF802
:10517800143033F01F033FF475AF1C46A3E7D3F890
:10518800AC214FF0FF11C3F8AC21D3F8BC21C3F810
:10519800BC21C3F8B411D3F8B02112F0FF1FF8D125
:1051A800D3F8843113F4807303D0012385F8863053
:1051B800AFE6102205A9ADF81C202868CDE9053313
:1051C80000F02AFCA5E600220121CBF81420CBF838
:1051D8004C20AB684B449960DA6063684FF0000A72
:1051E8008DF81C8005A98DF81DA0286800F014FC16
:1051F800CDE905AA90E7A368A28B23F47F63C2F3E5
:105208000B0223F00F03134305936CE74A000021B8
:105218001F3ACDE90511D2B2EBB9A8680FFA82F9A5
:10522800940100EB821292F8381011F002010DD0AF
:1052380002599600C2F3407107D403594FF0800811
:1052480043F000530351102026E7194610204FF071
:10525800800821E7704719460FFA82F910204FF0AD
:10526800800819E7014B1870704700BFE909012051
:105278002DE9F0410C461646002184B094F900202F
:105288008DF803108A4227DA07460DF1030206213A
:1052980000681D46B4F8028000F056FE9DF8033001
:1052A800022B19D84FEA1823E2885FFA88F8012BF5
:1052B800029224D0022BD9B212D003292FD021294F
:1052C8004DD022295DD0232938D00520019B336099
:1052D8002A6004B0BDE8F081052004B0BDE8F08183
:1052E8002378D906F1D1A388002BEED101AA38681A
:1052F8000C218DF80C8001F0B5F9029AE6E72378C5
:1053080003F01F0358EA0303DFD1A388002BDCD185
:1053180001AA0B21386801F0A5F9029AD6E723788B
:10532800DB06D2D1A38801AA38680D218DF80E803A
:10533800ADF80C3001F096F9029AC7E7237803F02C
:105348001F03012BC1D1A38801AA386810218DF849
:105358000C808DF80D3001F085F9029AB6E72378B4
:1053680003F01F03012BB0D1B8F1000FADD1A38812
:1053780001AA38680E218DF80C3001F073F9029AF1
:10538800A4E7237803F01F03012B9ED1B8F1000F87
:105398009BD1A38801AA38680F218DF80C3001F041
:1053A80061F9029A92E700BF70B5002384B00A78C9
:1053B8008DF80F3091F90030002B28DBD30626D169
:1053C8008B880C461BBBCE880EBB05460DF10F0221
:1053D8000621006800F0B8FD9DF80F30012B16D8A3
:1053E8000DF10F02062128688DF80F6000F0F0FD1E
:1053F80063887BB1A21C03212868019201F0E2F8BE
:10540800019A0921286801F02DF904B070BD052022
:1054180004B070BD01230DF10F02062128688DF834
:105428000F3000F0D5FDE5E7F0B5002383B00A782A
:105438008DF8073091F90030002B1FDBD3061DD102
:105448008B880C46D3B9CE88C6B905460DF107023C
:105458000621006800F078FD9DF8073003F0FD078D
:10546800012F0ED057B963880DF10702072128686C
:105478008DF8073000F0ACFD03B0F0BD052003B097
:10548800F0BD032BEFD132460721286800F0A0FDBC
:105498000028F4D10DF10702062128688DF807705D
:1054A80000F096FDEBE700BF30B5002383B08DF820
:1054B80006308DF8073091F90030002B2EDBCB88B1
:1054C8000C465BBB05460DF106020621006800F09C
:1054D8003BFD9DF80630012B20D86378032B02D1C1
:1054E80001238DF80730237813F01F0319D0022BFE
:1054F80014D1638893B9A1880B0706D19DF80730AA
:10550800C9B22868E3B100F0E3FC9DF80730221D1A
:105518008BB10521286801F055F800E0052003B09B
:1055280030BD6388012BF9D10DF1070214212868D9
:1055380001F098F8F3E70621286801F043F8EEE750
:1055480000F0E4FCE1E700BF2DE9F0470C46174600
:10555800002182B094F900208DF803108A4206DAFF
:10556800658825B9B4F80690B9F1020F03D0052073
:1055780002B0BDE8F08706460DF103020621006877
:10558800984600F0E1FC9DF80330012BEFD894F821
:1055980000A01AF01F0A0CD0BAF1010F17D0BAF107
:1055A800020F1BD006F10C0405203C6002B0BDE8D8
:1055B800F0873446042154F80C0B224600F0C4FC52
:1055C800B38903F00303B381C8F80090EDE73446CC
:1055D800284624F80C5FC8F80090E6E7A38801AADB
:1055E800052130688DF804303446ADF8065000F0D7
:1055F800ABFCBDF8063003F0030324F80C3FC8F8F1
:1056080000A0D2E7F0B591F900C0002483B0BCF146
:10561800000F8DF807401C460B7808DADB0606D128
:105628004B8823B98B8813B9CF88012F02D0052066
:1056380003B0F0BD0646154606210DF107020068C5
:1056480000F082FC9DF80730012BF0D806F10C021F
:10565800276015212A60306801F004F8E8E700BFE8
:105668002DE9F0410C460546002182B094F900006E
:105678008DF80710002821780BDA01F01F010129A5
:1056880007D11E46638823B9B4F80680B8F1010F24
:1056980003D0052002B0BDE8F081174606210DF1C0
:1056A8000702286800F050FC9DF80730002BF0D165
:1056B800A38805F10C021621C6F800801B023A6087
:1056C8002868AB8100F0CEFF02B0BDE8F08100BFD2
:1056D80030B591F90020002383B0002A8DF80730F7
:1056E8000B7823DB03F01F03012B1FD1CB880C465B
:1056F800E3B905460DF107020621006800F024FC15
:105708009DF8073093B9A2880421A3782C4643EA70
:10571800022354F80C0BAB81224600F053FF2246BB
:105728000A21286800F09EFF03B030BD052003B0B1
:1057380030BD00BF2DE9F0410C460546002182B07E
:1057480094F900008DF80710002821780BDA01F091
:105758001F01022907D11E46638823B9B4F80680C1
:10576800B8F1020F03D0052002B0BDE8F08117465A
:1057780006210DF10702286800F0E6FB9DF80730C6
:10578800002BF0D1A3880821AB8155F80C0B2A46D1
:1057980000F0DAFB3D60C6F8008002B0BDE8F08199
:1057A8004B682DE9F041013388B04FF00008CDE98E
:1057B80002888DF807805CD01746002A55D00C4621
:1057C8000DF1070206210546BE6800F0BDFB237AED
:1057D800002B44D06368082B47D12368002B44D0A2
:1057E800D3F80220C6F80220D888F0801A781988E1
:1057F80012F01C0F5C78318040F0C28012F0600318
:105808005AD10C2C47D86F4B53F82440002C42D067
:1058180003AB3146384602AAA047039B0146002B3A
:1058280000F0AA80029A002A35D0052933D0F288E0
:105838009A4201D213460392002940F09680029AB8
:10584800284600F059FA88B996F90030002B10DA8A
:10585800034602460146284600F09EFA06E09DF8F7
:105868000720032A1ED0616839B9052008B0BDE8B1
:10587800F081002008B0BDE8F081F288002AF4D059
:1058880096F9000032780028EFDB02F06002202A47
:105898007BD0402A55D00021284600F019FB08B0DB
:1058A800BDE8F0817378052BDFD103AB02AA31463E
:1058B8003846FFF7B9FDD9E708B312061FD4202BE5
:1058C80070D0402BE7D10021012304AA069005914E
:1058D800284613218DF81C30049600F0C3FEDDE93C
:1058E8000523CDE902230028D5D1F188994201D2B8
:1058F8000B4603910021284600F04EFAB6E7202B0C
:1059080013D0402BC7D100210123069004AA05918A
:105918002846132104968DF81C3000F0A3FE01469A
:10592800DDE90523CDE9022379E70121002306906B
:1059380004AA2846049605938DF81C1000F042FE30
:10594800EDE7206804AA069113218DF81C30CDE9F3
:105958000460284600F086FE014605299BD0039B7B
:10596800F28893427FF668AF64E7002328461A4618
:10597800194600F0C1F966E705297FF45DAF8AE7AB
:105988004146284600F0A4FA6FE7206804AA069169
:1059980001218DF81C30CDE90460284600F012FE84
:1059A8000146DAE70023012104AA06902846059358
:1059B80004968DF81C1000F005FEDDE90523CDE9FD
:1059C800022390E7B82D047030B5114B87B0054617
:1059D800CDF806304023049103AAADF8043001A99C
:1059E8000C4B039300F020FA044610B1204607B090
:1059F80030BD03AA01A928468DF8064000F014FA24
:105A080004460028F2D08021284600F039FAEDE754
:105A180080000100A9570270002900F09880B0FAB0
:105A280080F2F0B5520985B00446002800F08A805B
:105A3800066946B30B7A162B7ED0172B76D0102B1F
:105A480024D003F00F0006281DD8400040EAD313E5
:105A580003EB43005D0004EB800046699EB10F68CC
:105A680001974F68497A02978DF80C1000296CD07D
:105A7800227784F828202B44204601A904EB8304CC
:105A8800A269B04700E0012005B0F0BD0121C3685C
:105A980080F8BF1023B15B690E218068984726699A
:105AA800002502230121204684F8BE302A4684F8C6
:105AB800BC50257784F8285084F8345084F8405036
:105AC80084F84C5084F8585084F8645084F8705026
:105AD80084F87C5084F88850C4E90555C4E9085511
:105AE800C4E90B55C4E90E55C4E91155C4E9145568
:105AF800C4E91755C4E91A55C4E91D55C4E9205528
:105B0800C4E9235584F8945084F8A05084F8AC5024
:105B180084F8B850C4E92655C4E92955C4E92C5578
:105B2800B047284684F8BF5005B0F0BD0821334679
:105B380005B0BDE8F04018470721334605B0BDE879
:105B4800F0401847032005B0F0BD017793E7032024
:105B5800704700BF2DE9F04182B0002A00F087802D
:105B680000234F4C064601A888461746019309F0C2
:105B780057FEA5685DB194F8BD300198B3426FD067
:105B8800022609F053FE304602B0BDE8F0810198C4
:105B980084F8BD6009F04AFEB31EC4F8108084F88A
:105BA800BD60012B84F8BC5084F8BF50257784F879
:105BB800285084F8345084F8405084F84C5084F8C5
:105BC800585084F8645084F8705084F87C50C4E9C4
:105BD8000555C4E90855C4E90B55C4E90E55C4E98F
:105BE8001155C4E91455C4E91755C4E91A55C4E94F
:105BF8001D55C4E9205584F8885084F8945084F8D9
:105C0800A05084F8AC5084F8B850C4E92355C4E9CE
:105C18002655C4E92955C4E92C5512D8214B3046DC
:105C280004F108022146E3603C60E3681B6898477A
:105C3800064608BB0223304684F8BE3002B0BDE8F1
:105C4800F08101A80626019509F0EAFD0198A560F2
:105C580084F8BD5009F0EAFD304602B0BDE8F08195
:105C6800012609F0E3FD304602B0BDE8F0810326C5
:105C7800304602B0BDE8F081E3681BB15B68A068FC
:105C88009847E560002501A8019509F0C9FD01982C
:105C9800A56084F8BD5009F0C9FD3D6073E700BFF9
:105CA80000110020EC2D047040B1C36823B100221C
:105CB8005B698068114618470620704703207047C3
:105CC800B8B1C36830B5044683B023B15B68806857
:105CD80098470023E360002501A8019509F0A0FD7D
:105CE8000198A56084F8BD5009F0A0FD284603B0CE
:105CF80030BD0320704700BF2DE9F043002483B076
:105D08000194002842D09846C36806466BB301F058
:105D18000F0141F080054FEA450C4CF0010C5FFA89
:105D28008CFC0CEB4C0C00EB8C0494F81C90B9F137
:105D3800000F15D101A8174609F072FD012301983B
:105D4800237709F073FD294643463A46D6E902050A
:105D5800AD68A847054668B9284603B0BDE8F08392
:105D68000225284603B0BDE8F0830625284603B07F
:105D7800BDE8F08301A809F053FD019884F81C9050
:105D880009F054FD284603B0BDE8F08303252846F2
:105D980003B0BDE8F08300BF2DE9F043002483B0D1
:105DA800019400283BD09846C368044633B301F0F9
:105DB8000F05AE0006EB450600EB860696F81C902C
:105DC800B9F1000F15D101A8174609F029FD0123E3
:105DD8000198337709F02AFD294643463A46D4E923
:105DE8000205EC68A047044668B9204603B0BDE840
:105DF800F0830224204603B0BDE8F0830624204641
:105E080003B0BDE8F08301A809F00AFD019886F8FF
:105E18001C9009F00BFD204603B0BDE8F083032475
:105E2800204603B0BDE8F08340B319B3B2FA82FC50
:105E38004FEA5C1CF2B110B58B7803F00F0EDB094A
:105E4800BEF1060F18D843EA4E03146803EB430368
:105E580000EB83035C61546883F81CC0C2689C61D2
:105E680032B153690A4680680221BDE810401847DC
:105E7800062010BD04207047042010BD0320704781
:105E880070B582B08DF80710F8B1C36804460D46A6
:105E980001F00F06BBB15B690DF1070203218068B1
:105EA8009847062E0CD8ED09002345EA460505EB70
:105EB800450504EB8505C5E905332B7702B070BDB0
:105EC800042002B070BD0620EBE7032002B070BDCD
:105ED80001F00F0300B5062B83B08DF807100BD81F
:105EE80090B1C36863B15B690DF107020421806852
:105EF800984703B05DF804FB042003B05DF804FB89
:105F0800062003B05DF804FB0320F2E701F00F035D
:105F180000B5062B83B08DF807100BD890B1C36875
:105F280063B15B690DF1070205218068984703B0EA
:105F38005DF804FB042003B05DF804FB062003B001
:105F48005DF804FB0320F2E7002A37D08B1E062BEE
:105F58003CD8DFE803F00D2C141B2227040000288E
:105F680030D0C368002B2BD05B69092180681847A3
:105F780040B3C36823B35B690F218068184708B32F
:105F8800C368EBB15B69062180681847D0B1C36864
:105F9800B3B15B6907218068184790F8BE300020CC
:105FA8001370704790F8BC3000201370704758B1D8
:105FB800C3682BB15B6910218068184704207047BB
:105FC8000620704703207047084670470120704735
:105FD800CB1E0B2B07D8DFE803F01206061B2206A0
:105FE80006373E450609012108467047002843D078
:105FF800C368002B3DD05B690B21806818470028D7
:10600800F2D0C368002B34D05B691121806818472F
:10601800002AE8D01378002180F8BE30E4E790F831
:10602800BE30032B2AD0002ADDD092F800C003210D
:10603800C36800F1BC0280F8BCC080F8BE10C3B1D0
:106048005B69142180681847B0B1C3688BB15B697C
:106058000C218068184778B1C36853B15B690D217A
:106068008068184740B1C3681BB15B690A21806822
:1060780018470621084670470321B5E7C36800F1B1
:10608800BC02002BF5D05B6908218068184700BF67
:1060980010465AB10022436880F8212023B11B68BA
:1060A80013B10A46012118470120704703207047A1
:1060B80010465AB10022436880F8222023B11B6899
:1060C80013B10A4602211847012070470320704780
:1060D800037F002B67D0426892682DE9F047517919
:1060E80086B0044699425AD31268002A57D06FF0F6
:1060F8006041194412F8310002EBC10200284ED069
:106108005368002203E0824203F10C0347D0197858
:1061180001320329F7D1187A002857D0A57F002229
:106128005E6803E0824206F110064FD031780132F2
:10613800A942F7D1DB78A660637733797BB3002572
:10614800DFF89080DFF89090AA462F46B0684FF0AD
:10615800FF3C8DF8087003AA431901A993F804E0DD
:106168008DF809E0405D8DF80600B3F802E0ADF85F
:1061780004E05B788DF80730C30916D120680AF16E
:10618800010AC4F814C0063584F82470A761CDE963
:106198000384FFF749FE33795345D7DC00E001203B
:1061A80006B0BDE8F0870120704720680AF1010AAF
:1061B80084F8237006352761C4F80CC0CDE9039430
:1061C800FFF732FE33799A45C0DBE9E7DB78012037
:1061D8006377E5E7B9600270996002702DE9F04FC6
:1061E80085B0B2B10446A0B10139154605290BD8CE
:1061F800DFE801F003606A90B6141368187800F0BD
:106208001F06012E00F0D4800126304605B0BDE8F7
:10621800F08F0326304605B0BDE8F08F4368002BA9
:10622800F2D08268002AEFD010790028ECD000273D
:1062380001264FF0FF3AB94602E00137B842E4DDE3
:10624800936807EB470813F818102B789942F4D194
:106258002068FFF75BFE2B7806465FEAD31B40F009
:10626800FB8094F8243013B3626984F82490531C9B
:106278001DD0A36820689B6813F81810A36901F063
:106288000F01FFF789FD064678B163698DF80C9018
:106298000193A36984F82290029363682BB11B6869
:1062A8001BB101AA022120469847C4E905A9A268A2
:1062B8001079C2E7002301260377A0F82130836014
:1062C800304605B0BDE8F08F4368002B9CD01278AB
:1062D800037F9A4298D0A3B1836893B11A796AB1BF
:1062E800002606EB46029B682068013613F8121058
:1062F800FFF7C6FDA3681A799642F2DB0023A36074
:106308002A78002320462277A37705B0BDE8F04F0E
:10631800FFF7DEBE4368002B3FF476AF1388427F59
:10632800B2EB132F7FF470AFDEB2837FB3423FF43A
:106338006BAF83688BB11A796AB1002505EB45020A
:106348009B682068013513F81210FFF799FDA368C0
:106358001A799542F2DB0023A3602046A677D4E79A
:106368004368002B3FF450AF8268002A3FF44CAFDB
:10637800107900283FF448AF01260027B0469368FB
:1063880007EB470113F811102B788B420CD1DB096E
:10639800206814BF84F8233084F824802978FFF714
:1063A80097FDA268064610790137B842E7DC2CE76A
:1063B800617F1A7991427FF428AF5A78013A0A2A04
:1063C80007D8DFE802F008231806060606063A3260
:1063D8002600052619E75B8801AA616820465BBA92
:1063E800ADF80C300B68032198470646DDE9012318
:1063F800C5E9012309E704F12007636820463A4606
:1064080004211B6898476F600646FEE604F11F07E3
:10641800F3E722465B880821204602F8203F63689C
:106428001B6805B0BDE8F04F18475B882246072176
:1064380020461B0A02F81F3FF1E75B882A7B5BBAFC
:10644800ADF80C30002A33D0A96801AA6368204649
:106458001B6802910921C7E794F82330002B3FF409
:1064680026AFE26884F82390511C3FF420AFA3685C
:1064780020689B6813F81810236901F00F01FFF7D3
:106488003BFC064678B1E3688DF80C9001932369CC
:1064980084F82190029363682BB11B681BB159469D
:1064A80001AA20469847A268C4E903A91079C4E65E
:1064B800D5E90161636801AA019620461B6802912B
:1064C800062198470646A0E6F0B5124C83B00E4662
:1064D800256825B1A36ABBB1022003B0F0BD2746E9
:1064E8003946019200F050F80028F6D105EB8503F3
:1064F80054F8331004EBC30451B1FF23019A6660CA
:106508002077A3771760E8E704F128070125E7E774
:106518000320E2E774120020B8B1F8B5044690F8F9
:10652800210080B9012784F8217094F8237017B1ED
:10653800C4E90323F8BD2068FFF7DEFB0028F9D083
:1065480084F82170F8BD0220F8BD0320704700BF11
:10655800B8B1F8B5044690F8220080B9012784F84C
:10656800227094F8247017B1C4E90523F8BD206897
:10657800FFF712FC0028F9D084F82270F8BD022039
:10658800F8BD0320704700BF70B582B000250446EF
:106598000E4601A8019509F043F9094B01981A68BC
:1065A80012B19B7BA34204D009F040F9042002B049
:1065B80070BD326009F03AF9284602B070BD00BFDC
:1065C800C41200202DE9F04182B0002A3DD00024F9
:1065D800234E074601A888461546019409F020F97C
:1065E800336801989F4229D109F020F9D6F804C0F0
:1065F80001279CF808E0BEF1000F1BD02346DCF809
:10660800000003EB43032A46414600EB83039868E6
:10661800007901280AD15868FFF7E0FD052819D04C
:10662800D6F804C000B907469CF808E00134E3B284
:106638007345E4D3384602B0BDE8F081042709F079
:10664800F5F8384602B0BDE8F0810427384602B0B4
:10665800BDE8F0810746384602B0BDE8F08100BFCA
:10666800C4120020F0B583B00023144F044601A8DB
:1066780001930D46164609F0D3F83B6801989C42F1
:106688000CD109F0D3F8012D0DD07B68324629468C
:1066980020465B6803B0BDE8F040184709F0C6F82B
:1066A800042003B0F0BD39462046FFF78DF93A467D
:1066B80002212046FFF786FFE7E700BFC41200204B
:1066C8002DE9F04383B0002A61D0B1FA81F30C467A
:1066D8005B0900295BD017464A68002A57D03E4E0E
:1066E800054601A8019309F09BF8D6F80090B9F186
:1066F800000F0BD0B37BAB424FD04FF0020801988C
:1067080009F094F8404603B0BDE8F083334B019894
:10671800B360B57309F08AF8324631492846746087
:10672800FFF718FA8046002840D17268137AE3B15F
:10673800C146414601EB4103116801EB83019C000E
:106748008B681B79012B04D10A1D2846FFF7BCFE74
:106758007268116821448B681B7963B109F10109DA
:10676800137A5FFA89F18B42E4D8336840463B607C
:1067780003B0BDE8F0830A1D2846984709F10109CE
:1067880072685FFA89F1137A8B42D3D8EDE74FF03C
:106798000408404603B0BDE8F0834FF001080198B3
:1067A80009F044F8404603B0BDE8F0833068FFF7CD
:1067B80087FA01A8CDF8049009F032F833680198F7
:1067C800002B9DD0B37BAB429AD1C6E9009986F8DD
:1067D8000E9009F02BF895E7C4120020D41200207F
:1067E8006D66027070B582B000230E4D044601A894
:1067F80001930E4609F014F82B68019813B1AB7B8E
:10680800A34204D009F012F8042002B070BD09F0C8
:106818000DF832460221286802B0BDE87040FFF743
:1068280093BB00BFC412002008B5FBF71FFE08BDCC
:1068380008B5FBF71BFE08BD08B5FBF717FE08BD3A
:1068480008B5FBF713FE08BD08B5FBF70FFE08BD3A
:1068580008B5FBF70BFE08BD08B5FBF707FE08BD3A
:1068680008B5FBF703FE08BD08B5FBF7FFFD08BD3B
:1068780008B5FBF7FBFD08BD08B5FBF7F7FD08BD3C
:1068880008B5FBF7F3FD08BD08B5FBF7EFFD08BD3C
:1068980008B5FBF7EBFD08BD08B5FBF7E7FD08BD3C
:1068A80008B5FBF7E3FD08BD08B5FBF7DFFD08BD3C
:1068B80008B5FBF7DBFD08BD08B5FBF7D7FD08BD3C
:1068C80008B5FBF7D3FD08BD08B508F099FC08BD6D
:1068D80008B508F0A5FC08BD08B508F0B1FC08BD6E
:1068E80008B508F0BDFC08BD08B508F0C9FC08BD2E
:1068F80008B508F0D5FC08BD08B508F0E1FC08BDEE
:1069080008B508F0EDFC08BD08B5FBF7AFFD08BDFC
:1069180008B5FBF7ABFD08BD08B5FBF7A7FD08BD3B
:1069280008B5FBF7A3FD08BD08B5FBF79FFD08BD3B
:1069380008B5FBF79BFD08BD08B5FBF797FD08BD3B
:1069480008B5FBF793FD08BD08B5FBF78FFD08BD3B
:1069580008B5FBF78BFD08BD08B5FBF787FD08BD3B
:1069680008B5FBF783FD08BD08B5FBF77FFD08BD3B
:1069780008B5FBF77BFD08BD08B5FBF777FD08BD3B
:1069880008B5FBF773FD08BD08B5FBF76FFD08BD3B
:1069980008B5FBF76BFD08BD08B5FBF767FD08BD3B
:1069A80008B5FBF763FD08BD08B5FBF75FFD08BD3B
:1069B80008B5FBF75BFD08BD08B5FBF757FD08BD3B
:1069C80008B5FBF753FD08BD08B5FBF74FFD08BD3B
:1069D80008B5FBF74BFD08BD08B5FBF747FD08BD3B
:1069E80008B5FBF743FD08BD08B5FBF73FFD08BD3B
:1069F80008B5FBF73BFD08BD08B5FBF737FD08BD3B
:106A080008B5FBF733FD08BD08B5FBF72FFD08BD3A
:106A180008B5FBF72BFD08BD08B5FBF727FD08BD3A
:106A280008B5FBF723FD08BD08B5FBF71FFD08BD3A
:106A380008B5FBF71BFD08BD08B5FBF717FD08BD3A
:106A480008B5FBF713FD08BD08B5FBF70FFD08BD3A
:106A580008B5FBF70BFD08BD08B5FBF707FD08BD3A
:106A680008B5FBF703FD08BD08B5FBF7FFFC08BD3B
:106A780008B5FBF7FBFC08BD08B5FBF7F7FC08BD3C
:106A880008B5FBF7F3FC08BD08B5FBF7EFFC08BD3C
:106A980008B5FBF7EBFC08BD08B5FBF7E7FC08BD3C
:106AA80008B5FBF7E3FC08BD08B5FBF7DFFC08BD3C
:106AB80008B5FBF7DBFC08BD08B5FBF7D7FC08BD3C
:106AC80008B5FBF7D3FC08BD08B5FBF7CFFC08BD3C
:106AD80008B5FBF7CBFC08BD08B5FBF7C7FC08BD3C
:106AE80008B5FBF7C3FC08BD08B5FBF7BFFC08BD3C
:106AF80008B5FBF7BBFC08BD08B5FBF7B7FC08BD3C
:106B080008B5FBF7B3FC08BD08B5FBF7AFFC08BD3B
:106B180008B5FBF7ABFC08BD08B5FBF7A7FC08BD3B
:106B280008B5FBF7A3FC08BD08B5FBF79FFC08BD3B
:106B380008B5FBF79BFC08BD08B5FBF797FC08BD3B
:106B480008B5FBF793FC08BD08B5FBF78FFC08BD3B
:106B580008B5FBF78BFC08BD08B5FBF787FC08BD3B
:106B680008B5FBF783FC08BD08B5FBF77FFC08BD3B
:106B780008B5FBF77BFC08BD08B5FBF777FC08BD3B
:106B880008B5FBF773FC08BD08B5FBF76FFC08BD3B
:106B980008B5FBF76BFC08BD08B5FBF767FC08BD3B
:106BA80008B5FBF763FC08BD08B5FBF75FFC08BD3B
:106BB80008B5FBF75BFC08BD08B5FBF757FC08BD3B
:106BC80008B5FBF753FC08BD08B5FBF74FFC08BD3B
:106BD80008B5FBF74BFC08BD08B5FBF747FC08BD3B
:106BE80008B5FBF743FC08BD08B5FBF73FFC08BD3B
:106BF80008B5FBF73BFC08BD08B5FBF737FC08BD3B
:106C080008B5FBF733FC08BD08B5FBF72FFC08BD3A
:106C180008B5FBF72BFC08BD08B5FBF727FC08BD3A
:106C280008B5FBF723FC08BD08B5FBF71FFC08BD3A
:106C380008B5FBF71BFC08BD08B5FBF717FC08BD3A
:106C480008B5FBF713FC08BD08B5FBF70FFC08BD3A
:106C580008B5FBF70BFC08BD08B5FBF707FC08BD3A
:106C680008B5FBF703FC08BD08B5FBF7FFFB08BD3B
:106C780008B5FBF7FBFB08BD08B5FBF7F7FB08BD3C
:106C880008B5FBF7F3FB08BD08B5FBF7EFFB08BD3C
:106C980008B5FBF7EBFB08BD08B5FBF7E7FB08BD3C
:106CA80008B5FBF7E3FB08BD08B5FBF7DFFB08BD3C
:106CB80008B5FBF7DBFB08BD08B5FBF7D7FB08BD3C
:106CC80008B5FBF7D3FB08BD08B5FBF7CFFB08BD3C
:106CD80008B5FBF7CBFB08BD08B5FBF7C7FB08BD3C
:106CE80008B5FBF7C3FB08BD08B5FBF7BFFB08BD3C
:106CF80008B5FBF7BBFB08BD08B5FBF7B7FB08BD3C
:106D08002DE9F047002705463B4E0138DFF8F0C073
:106D18003C46DFF8F0E005E001374F360CF14D0C4A
:106D2800902F2CD01EF80730DA07F5D4A7F12603E8
:106D3800A6F14D0261469BB28F2B03F1010812D8D0
:106D48001EF803309B070ED491F800A004F1010946
:106D5800137800FB0A33B3FBF5F3DBB2132B0B708C
:106D680098BF0FFA89F401321FFA88F30131B24251
:106D7800E2D101374F360CF14D0C902FD2D11F487C
:106D88004FF00008DFF880906F1E07E008F1010857
:106D9800813009F17F09B8F1660F29D00EEB08039D
:106DA80093F89030DE07F1D4A8F13F03A0F17F02F9
:106DB800CC469BB2591C652B0EEB03068BB211D83F
:106DC80096F8901089070DD49CF800A0661C1178DD
:106DD80007FB0A11B1FBF5F1C9B213298CF80010B1
:106DE80098BF34B201320CF1010C9042E2D1CDE7E8
:106DF8002046BDE8F08700BF491300203F4000202F
:106E080018F62020000020207CC32020A14B1B78EE
:106E18002DE9F04F804613F0010089B000F09B8007
:106E28009D4A1378917892F801E00B2BD278009163
:106E3800029240F20C81652B40F22281974B00248C
:106E48001A68974B04F1010C964F02EB440203EBCE
:106E5800040AA3F1F80B07F54B7000231FFA8CFC0A
:106E6800274400EB040907930FE040F229310CF1A5
:106E7800010302320AF1010A8C4507F1010709F101
:106E880001099BB200F28D809C4613785178B8F1C5
:106E9800000F01D18AF80080734500F282800098C3
:106EA8008842E2D802988842DFD30BEB010090F8C1
:106EB800904014F00204D8D103F10B05FF20EDB285
:106EC8000190CDE90344CDE9059705E0581C9D42A2
:106ED800C3B229D0734527D80BEB0306C81A96F816
:106EE8009060F607F2D43F28F0DC00F13F063F300F
:106EF8006D4803EBC31904F1010700FA86F6E5DBD8
:106F080016F80900FCB2019F039E874206F10106AC
:106F180028BF07468128019747D8F0B29D420390C1
:106F280003F10100C3B2D5D1DDE90597002C9CD04F
:106F3800039B002B44D099F80030FD2B3DD80799CE
:106F48000233013189F800300BB207934FF0010387
:106F58008AF8003089E74FF0650E8446009077463E
:106F6800CDF808E04D4B40F22A351A68002312F894
:106F78001310561C9CB2814207D20133AB420ED08B
:106F880012F813109CB28142F7D316F81310B942C5
:106F9800F3D86145BFF455AF0133AB42F0D10023BC
:106FA8000793079809B0BDE8F08F049EF02806F112
:106FB80001068BD9F0B2049088E73B78022B34D9CC
:106FC800049B002B3FF451AFB8F1000F04D09AF99D
:106FD8000030012B3FF449AF019BBE2B7FF645AF34
:106FE800049B03EB830303EB83039B00B3FBF4F3E2
:106FF800DBB2322B7FF639AF3B78591EC9B2022972
:1070080029D803EB830399F800009B008C33834253
:1070180028D2079B0238013389F800001BB2079376
:107028004FF0FF338AF800301FE7013307994FF01C
:107038000100DBB201318AF800003B7003EB8303E7
:1070480009B29B0007918C3389F800300DE70020C6
:107058008C46174686E799F800005A28D9D8002B9D
:107068003FF403AF079B39704FF0FF3101338AF8C3
:1070780000106FF001011BB289F800100793F4E6C5
:107088000C228C46029FB3FBF2F303EB43039800F8
:10709800C0B267E7E8120020BC3F00201843000098
:1070A800F80020201C430000C03F0020A24B2DE91F
:1070B800F04F1B7889B0009013F0010000F09B801E
:1070C8009E4A1378917855780B2BD27801910392C8
:1070D80040F20E818F2B40F22581994B0024D3F882
:1070E8005C26984B04F1010E974902EB440203EB2E
:1070F800040BA3F2244901F5607000231FFA8EFEE9
:1071080001EB040800EB040A07930FE00EF10103FA
:10711800BEF5607F02F102020BF1010B08F10108D4
:107128000AF1010A9BB280F08B809E460098137882
:10713800517808B98BF80000AB4200F281800198C1
:107148008842E3D803988842E0D319F8014014F044
:107158000204DBD103F10B07FF20CDF818A0FFB222
:107168000290CDE9044405E0581C9F42C3B22BD0DD
:10717800AB4229D819F80360C81AF607F4D42628B0
:10718800F2DC00F1260C03EB830626306F4804F18D
:10719800010AC3EB061600FA8CFCE5DB1CF80600B6
:1071A8005FFA8AF4049E06F1010C029E864228BF0B
:1071B80006468128029647D85FFA8CF09F420490D1
:1071C80003F10100C3B2D3D1DDF818A0002C9DD083
:1071D800049B002B44D09AF80030FD2B3CD807992B
:1071E800023301318AF800300BB207934FF00103E4
:1071F8008BF800308AE78F25844601902F46039547
:107208004F4BD3F85C26002312F81310561C9CB27F
:10721800814208D20133B3F5607F0FD012F8131002
:107228009CB28142F6D316F81310B942F2D86145E0
:10723800BFF457AF0133B3F5607FEFD10023079355
:10724800079809B0BDE8F08F059EF02806F1010601
:107258008AD9F0B2059087E798F80030022B34D924
:10726800059B002B3FF452AF009B23B19BF90030E4
:10727800012B3FF44BAF029BA02B7FF647AF059B3A
:1072880003EB830303EB83039B00B3FBF4F3DBB251
:10729800322B7FF63BAF98F80030591EC9B202294D
:1072A8002AD803EB83039AF800009B008C338342AF
:1072B80029D2079B023801338AF800001BB20793D2
:1072C8004FF0FF338BF8003020E7013307994FF078
:1072D8000100DBB201318BF8000088F8003003EBC5
:1072E800830309B29B0007918C338AF800300DE7BD
:1072F80000208C46174683E79AF800005A28D8D809
:10730800002B3FF403AF079B88F800104FF0FF31C4
:1073180001338BF800106FF001011BB28AF80010DE
:107328000793F3E60C228C46039FB3FBF2F303EBBF
:1073380043039800C0B263E7E8120020F812002067
:10734800184300002404202078490000FC12002083
:10735800474B1B789B0740F18680464B2DE9F04F41
:107368001B781D2B1FB27FDC3C46DFF814912722C7
:10737800DFF810B14FF0000ADFF80C81A2F14D03DD
:107388005D4648465FFA8AF69BB28F2BD9B219D868
:10739800B1428E46A44638BFB646BEF10B0F06D999
:1073A800B14228BF314683298CBFA446BC46CCF1E4
:1073B800640C01780CFB01F188FB01ECC917C1EBE7
:1073C8006C1129700133013001359BB29342DCD135
:1073D800013309F14D090AF1010A0BF14D0B9AB27B
:1073E800254B9945CAD1DFF8A4904026DFF8A0B014
:1073F8004FF0000ADFF89080A6F17F03584649460F
:107408005FFA8AF59BB2652BDAB219D89542AE4677
:10741800A44638BF9646BEF10B0F06D9AA4228BF2C
:107428002A46592A8CBFA446BC46CCF1640C0A787B
:107438000CFB02F288FB02ECD217C2EB6C12027052
:107448000133013101309BB2B342DCD109F17F092C
:107458000A4B01360AF1010A4B450BF17F0BB6B214
:10746800CAD1BDE8F08F70471E3B1CB27DE700BF54
:10747800E8120020F40901206821212016F62020B6
:1074880018F62020403A20201F85EB517CC320208D
:10749800A40720202DE9F04F002683B0654B4FF05C
:1074A800270CDFF8A4A1B346634CB046DFF89C91E3
:1074B8000093A6F126035146009AF5B29BB218E054
:1074C800A84228BF28468328A05D8CBF4FF0460EEF
:1074D8004FF0320EC0F30007C0071AD4E05C8007F3
:1074E8001CD517700F700133013201319BB29C45D6
:1074F80025D08F2BF7D8D8B2A842074638BF2F46D9
:107508000B2FDDD8A05D4FF0460EC0F30007C00773
:10751800E4D582F8008081F80080E4E710780EFB5B
:1075280000F0A9FB0070400908700028DBD1BBF10E
:10753800FF0FD8D00BF1010B5FFA8BFBD3E7009B51
:1075480001360CF1010C0AF14D0A4D33902E1FFA49
:107558008CFC0093ADD1394B4FF0000A4024DFF882
:10756800D8800193D646364BDFF8E0900093AAF115
:107578003F035FFA8AF508EB0A0C9BB2DDE90012BB
:107588001AE0A84228BF284659289CF890008CBFCA
:1075980046273C27C0F30006C0071DD408EB0300AC
:1075A80090F8900080071CD516700E7001330132D8
:1075B80001319BB29C4225D0652BF7D8D8B2A8429E
:1075C800064638BF2E460B2EDBD89CF8900046277F
:1075D800C0F30006C007E1D582F800E081F800E0BA
:1075E800E4E7107807FB00F0A9FB00604009087089
:1075F8000028DBD1BBF1FF0FD8D00BF1010B5FFAEC
:107608008BFBD3E7019B0AF1010A01347F33BAF1FE
:10761800660FA4B20193009B03F17F030093A6D1E8
:10762800BBF1640F02D9074B01225A7103B0BDE8C0
:10763800F08F00BF18F62020000020207CC32020F7
:10764800906520200C7400202C9820201F85EB5179
:107658005448DFF890C1544A5449554B2DE9F04736
:10766800DFF884E1071D00F1080600F10C0500F1C0
:1076780010040CF5E0695CF804AB183257F8188B65
:1076880018334EF804AFCC4542F82C8CD1F804805E
:1076980043F82C8CD1F8088043F8288CD1F80C805A
:1076A80043F8248CD1F8108043F8208CD1F814A02A
:1076B80051F8188B43F81CAC43F8308CD0F814A060
:1076C80050F8188B42F81CAC42F8308C56F8188BDE
:1076D80042F8288C55F8188B42F8248C54F8188BEB
:1076E80042F8208CC7D133483349344F051D344AFA
:1076F80000F10804334B00F10C0E334E00F1100C6E
:10770800DFF8E89057F804AB183355F8188B18329F
:1077180046F804AF43F82C8CD1F8048042F82C8C3E
:10772800D1F8088042F8288CD1F80C8042F8248CD3
:10773800D1F8108042F8208CD1F814A051F8188B99
:1077480042F81CAC42F8308C4945D0F814A050F8E7
:10775800188B43F81CAC43F8308C54F8188B43F85A
:10776800288C5EF8188B43F8248C5CF8188B43F847
:10777800208CC7D1154A164B164C02F5566016498F
:10778800C3F8BC4903F55A74C2F85C06C3F8C019BB
:10779800124813491460C3F8C409C3F8C819BDE8EE
:1077A800F08700BF683E047014D400006868047055
:1077B80014AA0000BC980470B4BE047068920470E7
:1077C800245E00001C840000745700001843000069
:1077D80010540000FCD30000FCA900000484000041
:1077E8000C5E00006837047074500000ACE404704C
:1077F800474A4FF0806310B4C2F8883000BF00BF1A
:1078080000BF00BF00BF00BF00BF00BF00BF00BF78
:1078180000BF00BF00BF00BF00BF00BF00BF00BF68
:1078280000BF00BF00BF00BF00BF00BF00BF00BF58
:1078380000BF00BF00BF00BF00BF00BF00BF00BF48
