:02000004700288
:10000000464346420004015600000000010303007D
:1000100000000000000000000000000000000000E0
:1000200000000000000000000000000000000000D0
:1000300000000000000000000000000000000000C0
:100040001000000001040700000000000000000094
:100050000000400000000000000000000000000060
:100060000000000000000000000000000000000090
:100070000000000000000000000000000000000080
:10008000EB04180A063204260000000000000000FD
:10009000050404240000000000000000000000002F
:1000A0000000000000000000000000000000000050
:1000B0000604000000000000000000000000000036
:1000C0000000000000000000000000000000000030
:1000D00020041808000000000000000000000000DC
:1000E0000000000000000000000000000000000010
:1000F0000000000000000000000000000000000000
:10010000D8041808000000000000000000000000F3
:100110000204180804200000000000000000000095
:1001200000000000000000000000000000000000CF
:10013000600400000000000000000000000000005B
:1001400000000000000000000000000000000000AF
:10015000000000000000000000000000000000009F
:10016000000000000000000000000000000000008F
:10017000000000000000000000000000000000007F
:10018000000000000000000000000000000000006F
:10019000000000000000000000000000000000005F
:1001A000000000000000000000000000000000004F
:1001B000000000000000000000000000000000003F
:1001C000000100000010000001000000000000001D
:1001D000000001000000000000000000000000001E
:1001E000000000000000000000000000000000000F
:1001F00000000000000000000000000000000000FF
:10020000FFFFFFFFFFFFFFFFFFFFFFFFFFFFFFFFFE
:10021000FFFFFFFFFFFFFFFFFFFFFFFFFFFFFFFFEE
:10100000D10020410020027000000000000000001C
:1010100020100270001002700000000000000000AC
:10102000000000700000400000000000FFFFFFFF14
:10103000FFFFFFFFFFFFFFFFFFFFFFFFFFFFFFFFC0
:10104000FFFFFFFFFFFFFFFFFFFFFFFFFFFFFFFFB0
:10105000FFFFFFFFFFFFFFFFFFFFFFFFFFFFFFFFA0
:10106000FFFFFFFFFFFFFFFFFFFFFFFFFFFFFFFF90
:1020000000000220F92202705124027041DA0270AD
:10201000592402705D2402706124027000000000E7
:1020200000000000000000000000000065240270B5
:1020300069240270000000006D2402707124027097
:10204000D1570270D9570270E1570270E9570270F8
:10205000F1570270F9570270015802700958027066
:1020600011580270195802702158027029580270D4
:102070003158027039580270415802704958027044
:1020800051580270595802706158027069580270B4
:102090007158027079580270815802708958027024
:1020A0009158027099580270A1580270A958027094
:1020B000B1580270B9580270C1580270C958027004
:1020C000D1580270D9580270E1580270E958027074
:1020D000F1580270F95802700159027009590270E2
:1020E0001159027019590270215902702959027050
:1020F00031590270395902704159027049590270C0
:10210000515902705959027061590270695902702F
:10211000715902707959027081590270895902709F
:102120009159027099590270A1590270A95902700F
:10213000B1590270B9590270C1590270C95902707F
:10214000D1590270D9590270E1590270E9590270EF
:10215000F1590270F9590270015A0270095A02705D
:10216000115A0270195A0270215A0270295A0270CB
:10217000315A0270395A0270415A0270495A02703B
:10218000515A0270595A0270615A0270695A0270AB
:10219000715A0270795A0270815A0270895A02701B
:1021A000915A0270995A0270A15A0270A95A02708B
:1021B000798C0270B15A0270B95A0270C15A027019
:1021C000C95A0270D15A0270D95A0270E15A02708B
:1021D000E95A0270F15A0270F95A0270015B0270FA
:1021E000095B0270115B0270195B0270215B027067
:1021F000295B0270315B0270395B0270415B0270D7
:10220000BD8C0270AD8C0270495B0270515B027034
:10221000595B0270615B0270695B0270715B0270F6
:10222000795B0270815B0270895B0270915B027066
:10223000995B0270A15B0270A95B0270B15B0270D6
:10224000B95B0270C15B0270C95B0270D15B027046
:10225000D95B0270E15B0270E95B0270F15B0270B6
:10226000F95B0270015C0270095C0270115C027023
:10227000195C0270215C0270295C0270315C027092
:10228000395C0270415C0270495C0270515C027002
:10229000595C0270615C0270695C0270715C027072
:1022A000795C0270815C0270895C0270915C0270E2
:1022B000995C0270A15C0270840A05700000002025
:1022C00018050000F4C804700000000090410000F0
:1022D000840A057000002020000000000008002093
:1022E00078EB000090410000904E0100000020209B
:1022F000D4D70600FFFFFFFF72B6514B83F3088867
:102300000CF082FB4F4F504BBB429C4630D2DCE975
:1023100000140CF10C0C5CF8043C0A4633B341EA9F
:1023200004000E1D013BA51BC0F3020018BF0125D0
:10233000002818BF0025002D6ED02F2B6CD99A08CD
:10234000651A0B460132560801EBC606E818083339
:1023500013ED027BB34280ED007BF7D122F0010345
:10236000D20703D551F8232044F82320BC45CED30F
:10237000364B9C454AD2013B0CF110020CF108058A
:102380000026A3EB0C0C2CF0070C9FED2B7B944448
:1023900055E902341A46B4B3611EC3F380078808B6
:1023A000172900F1010043D9A7B34FF0040E42F8FA
:1023B000046BC01B03EB8703410803EBC101A3ECD3
:1023C000027B9942FBD120F00101884202EB81029D
:1023D0000EEB810317D0191D16608C4213D903F13F
:1023E000080156608C420ED903F10C0196608C42B4
:1023F00009D903F11001D6608C4204D91433166157
:102400009C4288BF566108356545C1D162B61FF050
:1024100051FBFEE7BE46CCE723F00303651A3344C5
:1024200010465119043200689A420860F8D19DE7BD
:102430000023D0E7AFF300800000000000000000A0
:1024400000000220DC220270B8220270F422027026
:10245000FEE700BFFEE700BFFEE700BFFEE700BFEC
:10246000FEE700BFFEE700BFFEE700BFFEE700BFDC
:08247000FEE700BFFEE700BF1C
:102478009FED2D7B30B4012882B08DED007B4AD9C9
:10248800811ECBB2012B08D9831FDBB2012B04D9E3
:10249800A0F10A03DBB2012B3DD802AC04EB8303A5
:1024A80053F8083C002B36D001EB4101204C490180
:1024B8000C444FF4C011C4F8B4110024196B41F452
:1024C80080411963196B41F400411963A0F10A01B5
:1024D8001C60012902D90638012805D84FF40020CC
:1024E8004FF4801158635963CAB1907851781478C1
:1024F8000A041D69010204F00F0002F4702201F4BD
:1025080070610A430B490243294000200A431A61BB
:1025180002B030BC7047012002B030BC7047104692
:1025280002B030BC704700BF00900D4000A00D40C5
:1025380000800D40F0F0F0FF831EF0B51646DAB2C9
:1025480083B0012A2AA5D5E90045CDE9004540D840
:10255800234A1778002F38D102AC224D04EB8303AD
:1025680085F8870053F8084CD4F840316C6043F084
:102578000203C4F84031012313701B4BEB601B4B63
:10258800AB60D4F840319B07FBD4D4F8243103F076
:102598001F03062B85F8853003D80127384603B07A
:1025A800F0BDD4F8A8310F4823F003032960C4F81C
:1025B800A831D4F8A83143F00203C4F8A83100F0D8
:1025C8009FFE3846356003B0F0BD0327384603B098
:1025D800F0BD0627384603B0F0BD00BFAFF300805A
:1025E80070120020E4110020000F002000080020D5
:1025F80000002E4000022E402DE9F04FC74C4FF04E
:1026080000088FB0D4F8D018A0F8008028298C468C
:10261800A8BF4FF0280C002900F06A82C04B824600
:102628001F68002F40F0C280002940F32C8104F677
:1026380018233A46597815461846102900F01E8185
:10264800B84BF6EE007A03EBC505B74B93ED006A7D
:10265800B64BD5ED006AD3ED005A76EE666AB44BF8
:1026680036EE656A95ED017A76EEC66A93ED006AF4
:10267800B04B36EE477AD3ED005AAF4B36EE656A6B
:1026880093ED005AD3ED015A37EE467AAB4BB0EED4
:10269800676AE7EE257AA6EE856AD3ED006AFCEE56
:1026A800E77ABCEEC67A17EE103A99B217EE903A6E
:1026B80007EE101A9BB2B8EEC77AB4EEE67AF1EEDE
:1026C80010FA04DDFCEEE66A16EE902A91B207EEE7
:1026D800903A9B4AF8EEE77A92ED007AF4EEC77AE0
:1026E800F1EE10FA04DDBCEEC77A17EE103A9BB291
:1026F800B7EE007AD0ED037AD0ED046AF4EE477AAB
:10270800F1EE10FAF4EE476A48BFF0EE477AF1EEC0
:1027180010FA48BFF0EE476A002F40F0C180894A9E
:10272800F4EEE67A7E4DB6EE007A1770012237EEA7
:10273800A66A854EF1EE10FA2A60DFF83CE2834A79
:1027480026EE076A36FEA77ADFED817A1770B4EEB7
:10275800E77AF1EE10FA54DCF7EE006A00227546CB
:1027680003E001322D2A00F07A84D7B207EE907A7E
:10277800F8EE677A77EEA67AF4EEC77AF1EE10FAF9
:10278800EFDB744FAE4607EB8202D2ED007A67EEBC
:10279800277AFCEEE77A17EE902A92B2B2F5006F2C
:1027A8002FD2372A38BF372201922DE004F6570E70
:1027B80004F67F00734613F8012F012A0AD15A1E26
:1027C80008F1010604EB0805A2EB0E025FFA86F891
:1027D80085F880289842EED1B8F1000F53D000292F
:1027E80051DD94F8806800225B4B01E094454ADD96
:1027F8001978154618460132B14203F13403F5D170
:102808001EE740F2FF720192544A1778002F40F0F9
:10281800B580DFED537A534AB4EEE76A0592177034
:10282800F1EE10FA504A00F3A681069217600A22C8
:1028380090F801C0039200924C4ABCF1130FDAF8E9
:1028480008B017700A924FF0010231808AF8002010
:1028580090F80090AEF800308BF8019040F0E480DA
:10286800072000258BF8000004EB0900049580F888
:1028780058288AF80150DAF808B0D8E00132343321
:1028880094453FF7D7AE3A4B03200021244C1870EB
:102898002822384821600FB0BDE8F04F1FF00FB96B
:1028A800294E32888A4200F2428180F007848A1ACF
:1028B80097B2012F8CBF4FF0000C4FF0010CDFF8DE
:1028C800B8E0BEF800209A4240F24081D21A92B293
:1028D800012A8CBF4FF0000C0CF0010CBCF1000F6A
:1028E80000F042810027174A1770B1EE067AF4EE1D
:1028F800C77AF1EE10FA40F1C182F4EEC76AF1EE40
:1029080010FA40F1BB8277EEA67A104AB6EE007A4A
:1029180027EE877AB0EE476A16E700BF90AA212013
:10292800287C002028BE2120F07B0020BC7B0020D2
:10293800F47B0020C07B0020C8E90000D47B002085
:10294800D87B002072F300204CF3002074F30020A1
:10295800000034429C210470A8B4212070F30020A8
:102968000000644271F30020247C002073F30020EF
:1029780075F30020E8B221204EF30020F3EE0E7A22
:1029880000220D9276EE677A0D92FCEEE77A17EE4A
:10299800902A92B2232A38BF2322FF2A28BFFF2277
:1029A80000927E4A1746059201223A700D9A7C4F92
:1029B800BA4208D8754600BF0D9A01320D920D9A99
:1029C800BA42F8D9AE46774A17680692062F40F2FF
:1029D8009980009A039240F2FF720192DFED727AB9
:1029E800B4EEE76AF1EE10FA40F18E826F4F3A6862
:1029F8000132042A3A6040F28A8290F801C0BCF1A0
:102A0800130F00F0BC83059A1778694ADAF808B002
:102A180017700A92012231808AF8002090F80090FD
:102A2800AEF800308BF801909AF8012004924FEA32
:102A38008912604D029205EB8912D2E96B60002879
:102A480000F0C48006EB491097190B96099700F11E
:102A5800040800F1080700F10C0600F1140E05EB5C
:102A6800400005EB4808079005EB4707079805EB7A
:102A78004E0E05EB4606B0F87401CDF820E0B8F824
:102A880076E1ABF80200B7F87801ABF804E0ABF8F0
:102A98000600B6F87A01ABF808000898B0F8740197
:102AA800ABF80C00099890F8A6018BF80E0007986F
:102AB800A8F87631A0F8741100990898A7F8781149
:102AC8000399099BA6F87A110199A0F87411049941
:102AD80083F8A6110B9E032ED4BF01360026C2F838
:102AE800AC61BCF1100F00F0A8800FB0BDE8F08F0A
:102AF800314B282204F6580019600FB0BDE8F04F9A
:102B08001EF0DDBF002F40F0C0822C4A009D1580CA
:102B18002B4A1580284A1268012A40F2DA824FF4BB
:102B280048723188BEF8003003950192BCE2521A0F
:102B3800DFF894E097B2BEF80020012F8CBF4FF069
:102B4800000C4FF0010C9A423FF6C0AE80F0BB82F9
:102B58009A1A92B2012A8CBF4FF0000C0CF0010CAB
:102B6800BCF1000F7FF4BEAE974240F2A18201276C
:102B7800144A1770B9E615460692126801320E2AF1
:102B88002A607FF654AE90F801C0BCF1130F00F034
:102B980025830A220392009237E700BF71F30020D1
:102BA8003F420F00247C0020000064422C7C00205F
:102BB80073F3002080CC2120287C002048F30020DB
:102BC8004AF3002072F300204EF30020042E00F395
:102BD8006C81971906EB491E04980136BCF1100F59
:102BE80087F8A60105EB4E07A7F87411A7F87E3100
:102BF8000099019BA7F88811A7F89C310399B2F8AE
:102C08007431A7F89211ABF80230B2F87E31ABF804
:102C18000430B2F88831ABF80630B2F89231ABF82C
:102C28000830B2F89C31ABF80C3092F8A6318BF82A
:102C38000E30C2F8AC617FF458AF029B4FF0010828
:102C4800BF4FE918002387F80890D1F8B02187F81A
:102C580000807B60002A00F07981052E4FEA491236
:102C680008BF1E46009218BFB04406EB491305EB97
:102C78004302B2F874217A8105EB4302B2F87E214F
:102C8800BA8205EB4302B2F88821FA8305EB4302C6
:102C98001346B2F89221B3F89C013A851FF0CBF99C
:102CA8009DA3D3E900231EF057FE1EF0D3FE029B1E
:102CB80007EE900AB8F1050F2B44FCEEE77A1E44A4
:102CC80017EE900A96F8A631788687F83C3000F01F
:102CD800FC8108F10106009B434405EB4302B2F86E
:102CE8007421BA8105EB4302B2F87E21FA8205EB22
:102CF8004302B2F888213A8405EB43021346B2F83E
:102D08009221B3F89C017A851FF095F984A3D3E941
:102D180000231EF021FE1EF09DFE029B07EE900A86
:102D2800052E2B44FCEEE77A984417EE900A98F8A3
:102D3800A631B88687F83D3000F01D82731C0193D8
:102D4800009B334405EB4302B2F87421FA8105EB8A
:102D58004302B2F87E213A8305EB4302B2F8882198
:102D68007A8405EB43021346B2F89221B3F89C012A
:102D7800BA851FF060F96CA3D3E900231EF0ECFDBF
:102D88001EF068FE029B07EE900AEB18FCEEE77A4D
:102D98001E4496F8A63117EE900A87F83E30019B3C
:102DA800F886052B00F0E2815E1C1A46029B2B4434
:102DB8009846009B134405EB4302B2F874213A820B
:102DC80005EB4302B2F87E217A8305EB4302B2F8A1
:102DD8008821BA8405EB43021346B2F89221B3F86E
:102DE8009C01FA851FF027F951A3D3E900231EF0AF
:102DF800B3FD1EF02FFE019A052E07EE900A08EB90
:102E0800020308BF0026FCEEE77A93F8A63187F89C
:102E18003F3017EE900A009B38879A19464405EB15
:102E28004203B3F874317B8205EB4203B3F87E3179
:102E3800BB8305EB4203B3F88831FB8405EB4203FF
:102E48001A46B3F89231B2F89C013B861FF0F3F8AA
:102E580039A3D3E900231EF07FFD1EF0FBFD07EE2A
:102E6800900A96F8A631FCEEE77A87F840300023FE
:102E780017EE900AC8E96B337887C9E0F4EEE67A72
:102E8800F1EE10FA36FEA77A012F00F0EE80022F3D
:102E980000F0AB81032F00F0B88177EEA67A294ABB
:102EA800F6EE006A27EEA66A4EE4B2F892610120B7
:102EB800B2F88871B2F87481B2F87EE1C2F8B00154
:102EC800ABF80860B2F89C61ABF80280ABF80C6014
:102ED8000646ABF804E0ABF8067092F8A6718BF8DA
:102EE8000E70A2F87E31009BA2F87411A2F8883106
:102EF800039BC2F8AC01A2F89231019BA2F89C3165
:102F0800049B82F8A631ECE50F4A00271760059A62
:102F180090F801C017788FE43E0AD7A3703DEA3FC6
:102F28007B14AE47E17AE43F703D0AD7A370DD3FDA
:102F3800EC51B81E85EBD13FA09999999999B93F61
:102F48001065002074F300202C7C0020002E7E7079
:102F580058DD731E022B40F2C9804FEA8912BB4B21
:102F6800042E02F1280002F10A0802F1140E02F1FF
:102F78001E0C009003EB89104068C7F80E0003EBA5
:102F8800080053F80880C7F81480D0F80480009827
:102F9800C7F8188003EB0E0853F80EE0C7F81EE0D8
:102FA800D8F804E0C7F822E003EB0C0E53F80CC085
:102FB800C7F828C0DEF804C0C7F82CC003EB000C23
:102FC8001858C7F832009B582A44C7F80A30DCF86A
:102FD8000430C7F83630D2F8A631FB6312D0B1F806
:102FE8007C317B82B1F88631BB83B1F89031FB84A8
:102FF800B1F89A313B86B1F8A4317B8791F8AA31B0
:1030080087F84030029B2B4498460023C8E96B336D
:1030180000264C440422FF218D488BF8002084F8B8
:10302800586805241EF04BFD8A4B402231461E602D
:10303800069B86481E60059B85F870611E700A9B7A
:103048001E70854B1E7001238AF80130834B1E6069
:10305800834B1C700FB0BDE8F04F1EF030BD40F23E
:10306800FF72AE460192FFF7CFBB7E4A77EEA67A93
:1030780092F800C0BCF1020F30D0B6EE006AB0EE94
:10308800667A27EE866AFFF75FBB07EB870202EBDB
:103098008202D20002F5487292B20192724A1288F4
:1030A8000392724A128800920137069A176095E4D3
:1030B80034BF022703276E4A177016E44FF0010C3D
:1030C8000027FFF7FCBB002208E401264FF00008A8
:1030D80001E64FF4487203950192E5E7B6EE007AEF
:1030E80027EE877AB0EE476AFFF72EBBB1F8743146
:1030F800012E7B81B1F87E31BB82B1F88831FB8328
:10310800B1F892313B85B1F89C317B8691F8A631B4
:1031180087F83C303FF476AFB1F87631032EBB81A7
:10312800B1F88031FB82B1F88A313B84B1F894312F
:103138007B85B1F89E31BB8691F8A73187F83D3081
:103148007FF460AFB1F87831FB81B1F882313B830D
:10315800B1F88C317B84B1F89631BB85B1F8A031D8
:10316800FB8691F8A83187F83E304BE7002301260B
:103178001A4601931AE6012300260193E0E500228E
:10318800354D2A70069D3A602A60059A1778012203
:10319800384D4FF0000C31802F700A9507258AF8BA
:1031A800002090F80090DAF80800CDF810C080F8F8
:1031B8000190057004EB0900AEF8003080F858283B
:1031C8006046DAF808B004228AF801C04FF0130C00
:1031D8008BF800200390CDE9000028E401222F603D
:1031E8001D4D2A701D4A1760D1E71E4A92F800C08B
:1031F800BCF1010F1FD077EEA66AB6EE006AB0EEFA
:10320800677A26EE866AFFF79FBA164A92F800C0D8
:10321800BCF1020FEFD0BCF1010F77EEA67A3FF4B4
:103228002CAFBCF1030F3FF459AFF6EE006A27EE5E
:10323800A66AFFF789BA77EEA67AB6EE007A27EE85
:10324800877AB0EE476AFFF77FBA00BFF4CD212036
:1032580010B32120287C002070F300202C7C002053
:1032680075F3002074F3002048F300204AF300208F
:1032780072F3002073F3002010B58AB0012ACDE95B
:1032880005311B4948F641738DF8220007914FF02C
:1032980000010391ADF820108DF823108DF824104B
:1032A8008DF80C20ADF80E30CDE9011103D043F2B2
:1032B80021500AB010BD0F4C05AB202220460493C4
:1032C8001EF0FDFB201D01A920600BF05BFC2146D0
:1032D800094B51F8180B1B780BF06AFC214651F882
:1032E8001C0B0BF079FC054B22681A600AB010BD64
:1032F80000000101C411002050F30020C01100207B
:10330800C3684FF0400C1A4603F12001036130B442
:10331800196003F1600452F8401B0A600A6803F15F
:103328008001146003F1A0041268116003F1C00168
:103338001268146003F1E0041268116003F58071EB
:103348001268146003F590741268116003F5A07197
:103358001268146003F5B0741268116003F5C07147
:103368001268146003F5D0741268116003F5E071F7
:10337800126803F5F0731460102412681160116864
:1033880000220B600B6841681A6080F88440D1F80D
:103398004041836824F47F04C1F84041D1F840419A
:1033A800C1F84041D1F8A84144F00804C1F8A84147
:1033B800D1F8A84124F00404C1F8A84101249C6074
:1033C8001D686CF31A451D6093F83850426162F32A
:1033D8000005C2649C6483F838501D6C6CF31A4570
:1033E8001D6493F87850826162F300050265C3F8A2
:1033F800884083F87850D3F880506CF31A45C3F8A6
:103408008050C261426593F8B850C3F8C84062F36F
:10341800000583F8B850D3F8C0506CF31A45C3F8C8
:10342800C05093F8F850026262F300058265C3F851
:10343800084183F8F850D3F800516CF31A45C3F8E3
:10344800005193F83851426262F30005C265C3F82F
:10345800484183F83851D3F840516CF31A45C3F802
:10346800405193F87851826262F300050266C3F80E
:10347800884183F87851D3F880516CF31A45C3F822
:10348800805193F8B851C26262F300054266C3F8EE
:10349800C84183F8B851D3F8C0516CF31A45C3F842
:1034A800C05193F8F851026362F300058266C3F8CD
:1034B800084283F8F851D3F800526CF31A45C3F860
:1034C800005293F83852426362F30005C266C3F8AB
:1034D800484283F83852D3F840526CF31A45C3F87F
:1034E800405293F87852826362F300050267C3F88A
:1034F800884283F87852D3F880526CF31A45C3F89F
:10350800805293F8B852C26362F300054267C3F869
:10351800C84283F8B852D3F8C0526CF31A45C3F8BE
:10352800C05293F8F852026462F300058267C3F848
:10353800084383F8F852D3F800536CF31A45C3F8DC
:1035480000534264C267C3F8484393F8384362F3B0
:10355800000483F83843D3F840436CF31A44C3F8A3
:10356800404393F87843826462F30004C0F88020F3
:1035780083F87843C1F85831C1F85421D1F8A431FF
:103588000F4A9BB21278C1F8A431D1F8A43143F0A4
:103598000063C1F8A431D1F884315AB943F080737B
:1035A800C1F8843147220023C1F8482180F88630C9
:1035B80030BC704703F08073C1F88431F2E700BF74
:1035C80051F300202DE9F04F994687B0CB094E0002
:1035D8000293002306F01E06059346EAD11600283A
:1035E80000F007818368054603EB861393F838A03B
:1035F800B3011AF0010A039300F0C08090F88630F6
:10360800002B40F0B28043F6FF7405A88846934625
:103618004C44B4F5804F2CBFA40B01240BF0F6FAF0
:1036280095F88430A342C0F0EA802C69B9F5804F40
:10363800CE4603F1FF33226828BF4FF4804E00279F
:1036480005EB86062A61A9EB0E002246019785F84C
:10365800843001210BEB070377442160002161606E
:10366800A360A36803F5805323F47F6323F00F035B
:10367800E360E36803F580532361236903F580530E
:103688006361636903F58053A36163686EF31E4346
:103698006360E369D4F808C06EF31E33CCF30B0CF7
:1036A800E36123F0004323F47F6323F00F0343EA2D
:1036B8000C03E36118B9636843F40043636063680B
:1036C800802161F307036360F36C002B51D01C6009
:1036D800F464B8B12C69864695F884308146002F89
:1036E80008BF2246B0F5804FD4F800C003F1FF337D
:1036F80028BF4FF4804E85F88430A0EB0E00C5F843
:1037080010C0A6E718F00F0302D10299002955D17D
:103718004FEAD808019908F0100848EA030801237D
:1037280003FA08F381B3A968039801448A60002268
:10373800CA60BFF34F8F6A68C2F8B031D2F8B811C7
:103748000B420DD1334907E0C2F8B031D2F8B801C5
:10375800184205D1013958D0D2F8BC011842F3D02B
:1037680005984FF0000A0BF057FA504607B0BDE82D
:10377800F08F7461F464CDF804A0AAE74FF0010A51
:10378800504607B0BDE8F08F6968D1F8B00118421B
:10379800E6D1D1F8400140F48040C1F84001D1F8A9
:1037A800B841D1F840014004F3D5D1F84001234293
:1037B80020F48040C1F84001B5D0D1E7A968039F43
:1037C800CC1994F83840A407A2D5B9F1000F9FD0BE
:1037D800CC8E74459CD9CC59C4F30A44BEFBF4F68C
:1037E80004FB16E4002C93D1CC5960F35D74CC51E2
:1037F8008EE74FF0030A504607B0BDE8F08F0598F2
:103808004FF0020A0BF008FAAFE705980BF004FA3C
:10381800ABE700BF7F9698002DE9F04702EB41081F
:10382800054684B0002300EB880A0193DAF81400F7
:10383800029330F01F045BD041EAC211DFF8B89060
:103848004FEA88181E46CFB25BB36368190633D4B3
:103858006368E269C3F30E4C0299C2F31233DAF8D3
:103868004C20A3EB0C0382420B4402932BD0036839
:10387800CAF81430626812042FD433F01F032CD016
:103888002B696660236095F884302C61013385F8D4
:103898008430DAF8140030F01F0429D0019B002B83
:1038A800D3D1A368A28B03EA0903C2F30B02134323
:1038B800019363681906CBD5DAF84C204FF0FF3333
:1038C80082420293D3D1CAF814600122CAF84C602C
:1038D800AB6843449A60DE60636801A928688DF884
:1038E8000C708DF80D6001F067F8CDE90166C7E747
:1038F80004B0BDE8F08700BF00F0FFFFB0B10C4B8B
:10390800984202D10B4B00221A7043680020C3F87A
:103918004801D3F8402122F00102C3F84021D3F82E
:10392800402142F00202C3F840217047032070474B
:10393800E41100207012002001F00F0141F0800115
:10394800FFF740BE01F00F01FFF73CBE2DE9F04F35
:103958004C0087B0002604F01E04CDE9011644EAA5
:10396800D114002800F0BE80054602A80BF04EF9DD
:103978004FF0FF3305EB840C0FFA84FEDCF814409B
:1039880034F01F04CDE9036300F0B1802046C37F03
:10399800026843F08003C37732F01F00F7D1019A21
:1039A80001460646DFF84C91D30802F00F02804624
:1039B80003F01003134301229A4094F91F30002B9F
:1039C80026DA63681F0639D4002948D0DCF8143099
:1039D800DCF84C70BB4250D01B6823F01F0ACCF8AF
:1039E80014306368C3F3C03B1B046BD4BAF1000FF7
:1039F80049D02B69C4F804B0236095F884302C6151
:103A08005446013385F8843094F91F30002BD8DBF5
:103A180000284ED0029803910BF0FEF8002E4DD0EE
:103A28000026019B03A928688DF814308DF81560CD
:103A380000F0C2FF304607B0BDE8F08FD5F804A00B
:103A4800DAF8B4311343CAF8B431DAF8B4311342AE
:103A5800FBD1DAF8B8311342F2D10029B6D1A16806
:103A68000120A38B01EA0901DCF84C70C3F30B03B6
:103A78001943DCF81430BB42AED10023CCF84C30EB
:103A8800CCF8143063682B6900226260236095F8D3
:103A980084302C61013385F8843000B1039101260C
:103AA800AB6803EB8E1E0123CEF808300023CEF856
:103AB8000C3002980BF0B0F8002EB1D1304607B0A8
:103AC800BDE8F08F2B69C4F80480236095F8843032
:103AD8002C61013385F88430BAF1000FDDD001265E
:103AE800544691E70326304607B0BDE8F08F2646D6
:103AF800D6E700BF00F0FFFF2DE9F04101F00F0607
:103B0800CA0883680546770002F01002CC0947EA24
:103B1800D117324303EB87134FEA871801279740E1
:103B280093F838206FF3000283F83820FFF70EFF70
:103B38006B68D3F8B0213A421AD1D3F8B8213A4089
:103B480016D1A96841F8082086B103EB8603002C3A
:103B58001646D3F8C02114BF6FF40D016FF08D0124
:103B680030460A40C3F8C021BDE8F081002CF0E7D8
:103B780002263046BDE8F0812DE9F04782B00028E2
:103B880000F0AC800D46044614290FD8DFE801F098
:103B98001E260B2F374D676DAB0E0E0E0E0E928B39
:103BA8000E0E0E0E1300002A40F09F8001252846B5
:103BB80002B0BDE8F087002AF8D0137800254268E3
:103BC8005B0643F08073C2F85431F0E74268D2F8DC
:103BD800403143F00103C2F84031E8E7426800256C
:103BE800D2F8403123F00103C2F84031DFE7002A60
:103BF800DCD0117802B0BDE8F047FFF77DBF002A9E
:103C0800D4D0167816F00F0540F0DF802946FFF76C
:103C18009DFE80212046FFF799FE6268D2F8C031E8
:103C280043F00113C2F8C031C1E7002ABED01178B1
:103C380011F00F024FEAD11040F0B48062680028FA
:103C4800D2F8C03114BF6FF480306FF00100034028
:103C5800C2F8C03120460025FFF778FEA7E7002A02
:103C6800A4D000231D461380A1E7002A9ED0137814
:103C780003F00F05062D99D8DB094168002D00F0E7
:103C8800B78005F16F00002B4FF0000501EB8003B2
:103C980014BF4FF4803101215B680B4214BF01232C
:103CA8002B46538083E7002A80D090F8883000257F
:103CB80013707CE7002565F07F01EEB220460135E0
:103CC800C9B2FFF719FF31462046FFF715FF072D48
:103CD800F1D120460025FFF713FB68E703252846A6
:103CE80002B0BDE8F087002561E792F8028001265E
:103CF800B2F800904FEAD80308F00F07414692F84F
:103D080003A003F0100301923B439E40FFF71EFE01
:103D18006168D1F8B0311E427FF449AFD1F8B831AB
:103D28001E407FF444AF0AF003007B00C9F30A0980
:103D38004FEAD815012843EAD813019A00F0848085
:103D4800A4684FEA831C54F80CE004EB831366F371
:103D58009F7E44F80CE01C6869F31A441C601479CF
:103D680093F8382064F3410283F83820002F4CD1AF
:103D78001A6842F000521A601A6842F400421A6047
:103D8800D1F8C021002D74D0800440F440000243D3
:103D9800C1F8C02193F83820002542F0010283F8C9
:103DA800382004E7636803EB8203D3F8C0210028B6
:103DB80042D022F480324FF48000C3F8C021D3F8F7
:103DC800C0211043C3F8C00144E73146FFF7BEFDE8
:103DD8006368F20903EB85034FF0000514BF4FF445
:103DE80080310121D3F8C0210A43C3F8C021DEE69F
:103DF800002BD1F8C01114BF4FF4803301231942AE
:103E080014BF012300235380D1E6B4FA84F401EBF4
:103E180087021968640964F35D71196019686FF3A2
:103E2800CF311960D2F8C0413DB3810441F440015B
:103E38002143C2F8C011ADE722F001024020C3F8C7
:103E4800C021D3F8C021BCE7A6684FEA831C1488B8
:103E5800B9F5806F56F80CE006EB8313C4F3C12460
:103E680028BF4FF48069013464F39F7E46F80CE064
:103E780071E7800040F0C00089E7810041F0C0018F
:103E8800D6E700BF002800F0B5812DE9F04F85681E
:103E980089B06B68D3F8A421160313D4D3F844115E
:103EA800D3F848210A4050060392C3F8442100F190
:103EB8003681039BD90740D4039B5B071BD409B009
:103EC800BDE8F08FD3F8A411002241F40021C3F813
:103ED800A41105A98DF81D20D3F8A4311C054CBFE9
:103EE800172316238DF81C302868CDE9052200F029
:103EF80063FD6B68D2E700238DF81D306A68D2F83D
:103F0800844114F48074CDE90533D8D1D2F88421E2
:103F180095F8863012F4007F14BF0222002285F83B
:103F28008820002BCBD0102305A98DF81C302868D9
:103F380000F042FD85F88640C1E76B68D3F8AC9184
:103F4800B9F1000F4BD000260127344603E00134B5
:103F58008036072C42D029FA04F35FFA84FADA078C
:103F6800F5D5AB685146284603EB060818F830BF6C
:103F78004FEADB1B5A46FFF74FFC8BF00102514614
:103F88002846FFF749FC8DF81CA08DF81D70082302
:103F9800A968069307FA04F331446A68CDF81480D7
:103FA800C2F8AC31D1E90A0CD2F8403143F40053DD
:103FB800C2F84031D2F840319B04F5D5D2F84031EF
:103FC8000134803623F40053C1E90C0C05A9286894
:103FD800C2F8403100F0F0FC072CBCD16B68D3F874
:103FE800BC210292C3F8BC21002A3FF465AF00232C
:103FF80001271A4601930EE0A1F11003DBB2062B4C
:1040080040F2D480202F3FF457AF019B0137013392
:10401800FFB21A460193029BD1B2D340DB07F1D518
:104028000F2AE9D80629F0D800204FEA410980462E
:1040380009F0FE09CDE9050005EB890BDBF8143022
:1040480033F01F03E1D00844012648EA01084FEA8B
:10405800891986401C4606E05A68110406D41B6874
:1040680033F01F0308D05A681006F5D55A681206AF
:10407800C8D45B681B04C5D56368180647D4059B7C
:10408800002B00F088806268E369C2F30E42C3F334
:1040980012339B1A069A1344DBF814200693DBF8B4
:1040A8004C309A425FD01368CBF814306268110420
:1040B80064D433F01F0361D02B690022626023604F
:1040C80095F884302C61013385F88430DBF814309E
:1040D80033F01F0396D05A681C461206CCD569687F
:1040E800C1F8B061D1F8B8211642C5D1D1F8B021D4
:1040F8001642FBD1D1F8B8013040BDD1AA684A4474
:104108009360D060C1F8B06163681806B7D5DBF872
:10411800143033F01F033FF475AF1C46A3E7D3F800
:10412800AC214FF0FF11C3F8AC21D3F8BC21C3F880
:10413800BC21C3F8B411D3F8B02112F0FF1FF8D195
:10414800D3F8843113F4807303D0012385F88630C3
:10415800AFE6102205A9ADF81C202868CDE9053383
:1041680000F02AFCA5E600220121CBF81420CBF8A8
:104178004C20AB684B449960DA6063684FF0000AE2
:104188008DF81C8005A98DF81DA0286800F014FC86
:10419800CDE905AA90E7A368A28B23F47F63C2F355
:1041A8000B0223F00F03134305936CE74A00002129
:1041B8001F3ACDE90511D2B2EBB9A8680FFA82F916
:1041C800940100EB821292F8381011F002010DD020
:1041D80002599600C2F3407107D403594FF0800882
:1041E80043F000530351102026E7194610204FF0E2
:1041F800800821E7704719460FFA82F910204FF01E
:10420800800819E7014B1870704700BF51F3002070
:104218002DE9F0410C461646002184B094F900209F
:104228008DF803108A4227DA07460DF103020621AA
:1042380000681D46B4F8028000F056FE9DF8033071
:10424800022B19D84FEA1823E2885FFA88F8012B65
:10425800029224D0022BD9B212D003292FD02129BF
:104268004DD022295DD0232938D00520019B336009
:104278002A6004B0BDE8F081052004B0BDE8F081F3
:104288002378D906F1D1A388002BEED101AA38688A
:104298000C218DF80C8001F0B5F9029AE6E7237835
:1042A80003F01F0358EA0303DFD1A388002BDCD1F6
:1042B80001AA0B21386801F0A5F9029AD6E72378FC
:1042C800DB06D2D1A38801AA38680D218DF80E80AB
:1042D800ADF80C3001F096F9029AC7E7237803F09D
:1042E8001F03012BC1D1A38801AA386810218DF8BA
:1042F8000C808DF80D3001F085F9029AB6E7237825
:1043080003F01F03012BB0D1B8F1000FADD1A38882
:1043180001AA38680E218DF80C3001F073F9029A61
:10432800A4E7237803F01F03012B9ED1B8F1000FF7
:104338009BD1A38801AA38680F218DF80C3001F0B1
:1043480061F9029A92E700BF70B5002384B00A7839
:104358008DF80F3091F90030002B28DBD30626D1D9
:104368008B880C461BBBCE880EBB05460DF10F0291
:104378000621006800F0B8FD9DF80F30012B16D813
:104388000DF10F02062128688DF80F6000F0F0FD8E
:1043980063887BB1A21C03212868019201F0E2F82E
:1043A800019A0921286801F02DF904B070BD052093
:1043B80004B070BD01230DF10F02062128688DF8A5
:1043C8000F3000F0D5FDE5E7F0B5002383B00A789B
:1043D8008DF8073091F90030002B1FDBD3061DD173
:1043E8008B880C46D3B9CE88C6B905460DF10702AD
:1043F8000621006800F078FD9DF8073003F0FD07FE
:10440800012F0ED057B963880DF1070207212868DC
:104418008DF8073000F0ACFD03B0F0BD052003B007
:10442800F0BD032BEFD132460721286800F0A0FD2C
:104438000028F4D10DF10702062128688DF80770CD
:1044480000F096FDEBE700BF30B5002383B08DF890
:1044580006308DF8073091F90030002B2EDBCB8821
:104468000C465BBB05460DF106020621006800F00C
:104478003BFD9DF80630012B20D86378032B02D131
:1044880001238DF80730237813F01F0319D0022B6E
:1044980014D1638893B9A1880B0706D19DF807301A
:1044A800C9B22868E3B100F0E3FC9DF80730221D8B
:1044B8008BB10521286801F055F800E0052003B00C
:1044C80030BD6388012BF9D10DF10702142128684A
:1044D80001F098F8F3E70621286801F043F8EEE7C1
:1044E80000F0E4FCE1E700BF2DE9F0470C46174671
:1044F800002182B094F900208DF803108A4206DA70
:10450800658825B9B4F80690B9F1020F03D00520E3
:1045180002B0BDE8F08706460DF1030206210068E7
:10452800984600F0E1FC9DF80330012BEFD894F891
:1045380000A01AF01F0A0CD0BAF1010F17D0BAF177
:10454800020F1BD006F10C0405203C6002B0BDE848
:10455800F0873446042154F80C0B224600F0C4FCC2
:10456800B38903F00303B381C8F80090EDE734463C
:10457800284624F80C5FC8F80090E6E7A38801AA4B
:10458800052130688DF804303446ADF8065000F047
:10459800ABFCBDF8063003F0030324F80C3FC8F861
:1045A80000A0D2E7F0B591F900C0002483B0BCF1B7
:1045B800000F8DF807401C460B7808DADB0606D199
:1045C8004B8823B98B8813B9CF88012F02D00520D7
:1045D80003B0F0BD0646154606210DF10702006836
:1045E80000F082FC9DF80730012BF0D806F10C0290
:1045F800276015212A60306801F004F8E8E700BF59
:104608002DE9F0410C460546002182B094F90000DE
:104618008DF80710002821780BDA01F01F01012915
:1046280007D11E46638823B9B4F80680B8F1010F94
:1046380003D0052002B0BDE8F081174606210DF130
:104648000702286800F050FC9DF80730002BF0D1D5
:10465800A38805F10C021621C6F800801B023A60F7
:104668002868AB8100F0CEFF02B0BDE8F08100BF42
:1046780030B591F90020002383B0002A8DF8073067
:104688000B7823DB03F01F03012B1FD1CB880C46CB
:10469800E3B905460DF107020621006800F024FC85
:1046A8009DF8073093B9A2880421A3782C4643EAE1
:1046B800022354F80C0BAB81224600F053FF22462C
:1046C8000A21286800F09EFF03B030BD052003B022
:1046D80030BD00BF2DE9F0410C460546002182B0EF
:1046E80094F900008DF80710002821780BDA01F002
:1046F8001F01022907D11E46638823B9B4F8068032
:10470800B8F1020F03D0052002B0BDE8F0811746CA
:1047180006210DF10702286800F0E6FB9DF8073036
:10472800002BF0D1A3880821AB8155F80C0B2A4641
:1047380000F0DAFB3D60C6F8008002B0BDE8F08109
:104748004B682DE9F041013388B04FF00008CDE9FE
:1047580002888DF807805CD01746002A55D00C4691
:104768000DF1070206210546BE6800F0BDFB237A5D
:10477800002B44D06368082B47D12368002B44D012
:10478800D3F80220C6F80220D888F0801A78198851
:1047980012F01C0F5C78318040F0C28012F0600388
:1047A8005AD10C2C47D86F4B53F82440002C42D0D8
:1047B80003AB3146384602AAA047039B0146002BAB
:1047C80000F0AA80029A002A35D0052933D0F28851
:1047D8009A4201D213460392002940F09680029A29
:1047E800284600F059FA88B996F90030002B10DAFB
:1047F800034602460146284600F09EFA06E09DF868
:104808000720032A1ED0616839B9052008B0BDE821
:10481800F081002008B0BDE8F081F288002AF4D0C9
:1048280096F9000032780028EFDB02F06002202AB7
:104838007BD0402A55D00021284600F019FB08B04B
:10484800BDE8F0817378052BDFD103AB02AA3146AE
:104858003846FFF7B9FDD9E708B312061FD4202B55
:1048680070D0402BE7D10021012304AA06900591BE
:10487800284613218DF81C30049600F0C3FEDDE9AC
:104888000523CDE902230028D5D1F188994201D228
:104898000B4603910021284600F04EFAB6E7202B7C
:1048A80013D0402BC7D100210123069004AA0591FB
:1048B8002846132104968DF81C3000F0A3FE01460B
:1048C800DDE90523CDE9022379E7012100230690DC
:1048D80004AA2846049605938DF81C1000F042FEA1
:1048E800EDE7206804AA069113218DF81C30CDE964
:1048F8000460284600F086FE014605299BD0039BEC
:10490800F28893427FF668AF64E7002328461A4688
:10491800194600F0C1F966E705297FF45DAF8AE71B
:104928004146284600F0A4FA6FE7206804AA0691D9
:1049380001218DF81C30CDE90460284600F012FEF4
:104948000146DAE70023012104AA069028460593C8
:1049580004968DF81C1000F005FEDDE90523CDE96D
:10496800022390E7E820047030B5114B87B0054664
:10497800CDF806304023049103AAADF8043001A90C
:104988000C4B039300F020FA044610B1204607B000
:1049980030BD03AA01A928468DF8064000F014FA94
:1049A80004460028F2D08021284600F039FAEDE7C5
:1049B8008000010049470270002900F09880B0FA91
:1049C80080F2F0B5520985B00446002800F08A80CC
:1049D800066946B30B7A162B7ED0172B76D0102B90
:1049E80024D003F00F0006281DD8400040EAD31356
:1049F80003EB43005D0004EB800046699EB10F683D
:104A080001974F68497A02978DF80C1000296CD0ED
:104A1800227784F828202B44204601A904EB83043C
:104A2800A269B04700E0012005B0F0BD0121C368CC
:104A380080F8BF1023B15B690E218068984726690A
:104A4800002502230121204684F8BE302A4684F836
:104A5800BC50257784F8285084F8345084F84050A6
:104A680084F84C5084F8585084F8645084F8705096
:104A780084F87C5084F88850C4E90555C4E9085581
:104A8800C4E90B55C4E90E55C4E91155C4E91455D8
:104A9800C4E91755C4E91A55C4E91D55C4E9205598
:104AA800C4E9235584F8945084F8A05084F8AC5095
:104AB80084F8B850C4E92655C4E92955C4E92C55E9
:104AC800B047284684F8BF5005B0F0BD08213346EA
:104AD80005B0BDE8F04018470721334605B0BDE8EA
:104AE800F0401847032005B0F0BD017793E7032095
:104AF800704700BF2DE9F04182B0002A00F087809E
:104B080000234F4C064601A88846174601930AF031
:104B18007DF8A5685DB194F8BD300198B3426FD0B7
:104B280002260AF079F8304602B0BDE8F081019813
:104B380084F8BD600AF070F8B31EC4F8108084F8D9
:104B4800BD60012B84F8BC5084F8BF50257784F8E9
:104B5800285084F8345084F8405084F84C5084F835
:104B6800585084F8645084F8705084F87C50C4E934
:104B78000555C4E90855C4E90B55C4E90E55C4E9FF
:104B88001155C4E91455C4E91755C4E91A55C4E9BF
:104B98001D55C4E9205584F8885084F8945084F849
:104BA800A05084F8AC5084F8B850C4E92355C4E93F
:104BB8002655C4E92955C4E92C5512D8214B30464D
:104BC80004F108022146E3603C60E3681B689847EB
:104BD800064608BB0223304684F8BE3002B0BDE862
:104BE800F08101A8062601950AF010F80198A56041
:104BF80084F8BD500AF010F8304602B0BDE8F081E4
:104C080001260AF009F8304602B0BDE8F081032613
:104C1800304602B0BDE8F081E3681BB15B68A0686C
:104C28009847E560002501A8019509F0EFFF019874
:104C3800A56084F8BD5009F0EFFF3D6073E700BF41
:104C4800001100201C21047040B1C36823B1002268
:104C58005B69806811461847062070470320704733
:104C6800B8B1C36830B5044683B023B15B688068C7
:104C780098470023E360002501A8019509F0C6FFC5
:104C88000198A56084F8BD5009F0C6FF284603B016
:104C980030BD0320704700BF2DE9F043002483B0E6
:104CA8000194002842D09846C36806466BB301F0C9
:104CB8000F0141F080054FEA450C4CF0010C5FFAFA
:104CC8008CFC0CEB4C0C00EB8C0494F81C90B9F1A8
:104CD800000F15D101A8174609F098FF0123019884
:104CE800237709F099FF294643463A46D6E9020553
:104CF800AD68A847054668B9284603B0BDE8F08303
:104D08000225284603B0BDE8F0830625284603B0EF
:104D1800BDE8F08301A809F079FF019884F81C9098
:104D280009F07AFF284603B0BDE8F083032528463A
:104D380003B0BDE8F08300BF2DE9F043002483B041
:104D4800019400283BD09846C368044633B301F069
:104D58000F05AE0006EB450600EB860696F81C909C
:104D6800B9F1000F15D101A8174609F04FFF01232B
:104D78000198337709F050FF294643463A46D4E96B
:104D88000205EC68A047044668B9204603B0BDE8B0
:104D9800F0830224204603B0BDE8F08306242046B1
:104DA80003B0BDE8F08301A809F030FF019886F848
:104DB8001C9009F031FF204603B0BDE8F0830324BE
:104DC800204603B0BDE8F08340B319B3B2FA82FCC1
:104DD8004FEA5C1CF2B110B58B7803F00F0EDB09BB
:104DE800BEF1060F18D843EA4E03146803EB4303D9
:104DF80000EB83035C61546883F81CC0C2689C6143
:104E080032B153690A4680680221BDE8104018474C
:104E1800062010BD04207047042010BD03207047F1
:104E280070B582B08DF80710F8B1C36804460D4616
:104E380001F00F06BBB15B690DF107020321806821
:104E48009847062E0CD8ED09002345EA460505EBE0
:104E5800450504EB8505C5E905332B7702B070BD20
:104E6800042002B070BD0620EBE7032002B070BD3D
:104E780001F00F0300B5062B83B08DF807100BD88F
:104E880090B1C36863B15B690DF1070204218068C2
:104E9800984703B05DF804FB042003B05DF804FBF9
:104EA800062003B05DF804FB0320F2E701F00F03CE
:104EB80000B5062B83B08DF807100BD890B1C368E6
:104EC80063B15B690DF1070205218068984703B05B
:104ED8005DF804FB042003B05DF804FB062003B072
:104EE8005DF804FB0320F2E7002A37D08B1E062B5F
:104EF8003CD8DFE803F00D2C141B222704000028FF
:104F080030D0C368002B2BD05B6909218068184713
:104F180040B3C36823B35B690F218068184708B39F
:104F2800C368EBB15B69062180681847D0B1C368D4
:104F3800B3B15B6907218068184790F8BE3000203C
:104F48001370704790F8BC3000201370704758B148
:104F5800C3682BB15B69102180681847042070472B
:104F680006207047032070470846704701207047A5
:104F7800CB1E0B2B07D8DFE803F01206061B220610
:104F880006373E450609012108467047002843D0E8
:104F9800C368002B3DD05B690B2180681847002847
:104FA800F2D0C368002B34D05B69112180681847A0
:104FB800002AE8D01378002180F8BE30E4E790F8A2
:104FC800BE30032B2AD0002ADDD092F800C003217E
:104FD800C36800F1BC0280F8BCC080F8BE10C3B141
:104FE8005B69142180681847B0B1C3688BB15B69ED
:104FF8000C218068184778B1C36853B15B690D21EB
:105008008068184740B1C3681BB15B690A21806892
:1050180018470621084670470321B5E7C36800F121
:10502800BC02002BF5D05B6908218068184700BFD7
:1050380010465AB10022436880F8212023B11B682A
:1050480013B10A4601211847012070470320704711
:1050580010465AB10022436880F8222023B11B6809
:1050680013B10A46022118470120704703207047F0
:10507800037F002B67D0426892682DE9F047517989
:1050880086B0044699425AD31268002A57D06FF066
:105098006041194412F8310002EBC10200284ED0D9
:1050A8005368002203E0824203F10C0347D01978C9
:1050B80001320329F7D1187A002857D0A57F00229A
:1050C8005E6803E0824206F110064FD03178013263
:1050D800A942F7D1DB78A660637733797BB30025E3
:1050E800DFF89080DFF89090AA462F46B0684FF01E
:1050F800FF3C8DF8087003AA431901A993F804E04E
:105108008DF809E0405D8DF80600B3F802E0ADF8CF
:1051180004E05B788DF80730C30916D120680AF1DE
:10512800010AC4F814C0063584F82470A761CDE9D3
:105138000384FFF749FE33795345D7DC00E00120AB
:1051480006B0BDE8F0870120704720680AF1010A1F
:1051580084F8237006352761C4F80CC0CDE90394A0
:10516800FFF732FE33799A45C0DBE9E7DB780120A7
:105178006377E5E759500270395002702DE9F04F16
:1051880085B0B2B10446A0B10139154605290BD83E
:10519800DFE801F003606A90B6141368187800F02D
:1051A8001F06012E00F0D4800126304605B0BDE868
:1051B800F08F0326304605B0BDE8F08F4368002B1A
:1051C800F2D08268002AEFD010790028ECD00027AE
:1051D80001264FF0FF3AB94602E00137B842E4DD54
:1051E800936807EB470813F818102B789942F4D105
:1051F8002068FFF75BFE2B7806465FEAD31B40F07A
:10520800FB8094F8243013B3626984F82490531C0B
:105218001DD0A36820689B6813F81810A36901F0D3
:105228000F01FFF789FD064678B163698DF80C9088
:105238000193A36984F82290029363682BB11B68D9
:105248001BB101AA022120469847C4E905A9A26812
:105258001079C2E7002301260377A0F82130836084
:10526800304605B0BDE8F08F4368002B9CD012781B
:10527800037F9A4298D0A3B1836893B11A796AB12F
:10528800002606EB46029B682068013613F81210C8
:10529800FFF7C6FDA3681A799642F2DB0023A360E4
:1052A8002A78002320462277A37705B0BDE8F04F7F
:1052B800FFF7DEBE4368002B3FF476AF1388427FCA
:1052C800B2EB132F7FF470AFDEB2837FB3423FF4AB
:1052D8006BAF83688BB11A796AB1002505EB45027B
:1052E8009B682068013513F81210FFF799FDA36831
:1052F8001A799542F2DB0023A3602046A677D4E70B
:105308004368002B3FF450AF8268002A3FF44CAF4B
:10531800107900283FF448AF01260027B04693686B
:1053280007EB470113F811102B788B420CD1DB09DE
:10533800206814BF84F8233084F824802978FFF784
:1053480097FDA268064610790137B842E7DC2CE7DA
:10535800617F1A7991427FF428AF5A78013A0A2A74
:1053680007D8DFE802F008231806060606063A32D0
:105378002600052619E75B8801AA616820465BBA02
:10538800ADF80C300B68032198470646DDE9012388
:10539800C5E9012309E704F12007636820463A4676
:1053A80004211B6898476F600646FEE604F11F0754
:1053B800F3E722465B880821204602F8203F63680D
:1053C8001B6805B0BDE8F04F18475B8822460721E7
:1053D80020461B0A02F81F3FF1E75B882A7B5BBA6D
:1053E800ADF80C30002A33D0A96801AA63682046BA
:1053F8001B6802910921C7E794F82330002B3FF47A
:1054080026AFE26884F82390511C3FF420AFA368CC
:1054180020689B6813F81810236901F00F01FFF743
:105428003BFC064678B1E3688DF80C90019323693C
:1054380084F82190029363682BB11B681BB159460D
:1054480001AA20469847A268C4E903A91079C4E6CE
:10545800D5E90161636801AA019620461B6802919B
:10546800062198470646A0E6F0B5124C83B00E46D2
:10547800256825B1A36ABBB1022003B0F0BD274659
:105488003946019200F050F80028F6D105EB850363
:1054980054F8331004EBC30451B1FF23019A66603A
:1054A8002077A3771760E8E704F128070125E7E7E5
:1054B8000320E2E774120020B8B1F8B5044690F86A
:1054C800210080B9012784F8217094F8237017B15E
:1054D800C4E90323F8BD2068FFF7DEFB0028F9D0F4
:1054E80084F82170F8BD0220F8BD0320704700BF82
:1054F800B8B1F8B5044690F8220080B9012784F8BD
:10550800227094F8247017B1C4E90523F8BD206807
:10551800FFF712FC0028F9D084F82270F8BD0220A9
:10552800F8BD0320704700BF70B582B0002504465F
:105538000E4601A8019509F069FB094B01981A6804
:1055480012B19B7BA34204D009F066FB042002B091
:1055580070BD326009F060FB284602B070BD00BF24
:10556800C41200202DE9F04182B0002A3DD0002469
:10557800234E074601A888461546019409F046FBC4
:10558800336801989F4229D109F046FBD6F804C038
:1055980001279CF808E0BEF1000F1BD02346DCF879
:1055A800000003EB43032A46414600EB8303986857
:1055B800007901280AD15868FFF7E0FD052819D0BD
:1055C800D6F804C000B907469CF808E00134E3B2F5
:1055D8007345E4D3384602B0BDE8F081042709F0EA
:1055E8001BFB384602B0BDE8F0810427384602B0FC
:1055F800BDE8F0810746384602B0BDE8F08100BF3B
:10560800C4120020F0B583B00023144F044601A84B
:1056180001930D46164609F0F9FA3B6801989C4239
:105628000CD109F0F9FA012D0DD07B6832462946D4
:1056380020465B6803B0BDE8F040184709F0ECFA73
:10564800042003B0F0BD39462046FFF78DF93A46ED
:1056580002212046FFF786FFE7E700BFC4120020BB
:105668002DE9F04383B0002A61D0B1FA81F30C46EA
:105678005B0900295BD017464A68002A57D03E4E7E
:10568800054601A8019309F0C1FAD6F80090B9F1CE
:10569800000F0BD0B37BAB424FD04FF002080198FC
:1056A80009F0BAFA404603B0BDE8F083334B0198DD
:1056B800B360B57309F0B0FA3246314928467460D0
:1056C800FFF718FA8046002840D17268137AE3B1D0
:1056D800C146414601EB4103116801EB83019C007F
:1056E8008B681B79012B04D10A1D2846FFF7BCFEE5
:1056F8007268116821448B681B7963B109F101094B
:10570800137A5FFA89F18B42E4D8336840463B60EC
:1057180003B0BDE8F0830A1D2846984709F101093E
:1057280072685FFA89F1137A8B42D3D8EDE74FF0AC
:105738000408404603B0BDE8F0834FF00108019823
:1057480009F06AFA404603B0BDE8F0833068FFF715
:1057580087FA01A8CDF8049009F058FA336801983F
:10576800002B9DD0B37BAB429AD1C6E9009986F84D
:105778000E9009F051FA95E7C4120020D4120020C7
:105788000D56027070B582B000230E4D044601A874
:1057980001930E4609F03AFA2B68019813B1AB7BD6
:1057A800A34204D009F038FA042002B070BD09F011
:1057B80033FA32460221286802B0BDE87040FFF78C
:1057C80093BB00BFC412002008B5FCF74FFE08BD0C
:1057D80008B5FCF74BFE08BD08B5FCF747FE08BD49
:1057E80008B5FCF743FE08BD08B5FCF73FFE08BD49
:1057F80008B5FCF73BFE08BD08B5FCF737FE08BD49
:1058080008B5FCF733FE08BD08B5FCF72FFE08BD48
:1058180008B5FCF72BFE08BD08B5FCF727FE08BD48
:1058280008B5FCF723FE08BD08B5FCF71FFE08BD48
:1058380008B5FCF71BFE08BD08B5FCF717FE08BD48
:1058480008B5FCF713FE08BD08B5FCF70FFE08BD48
:1058580008B5FCF70BFE08BD08B5FCF707FE08BD48
:1058680008B5FCF703FE08BD08B508F0BFFE08BD83
:1058780008B508F0CBFE08BD08B508F0D7FE08BD8E
:1058880008B508F0E3FE08BD08B508F0EFFE08BD4E
:1058980008B508F0FBFE08BD08B508F007FF08BD0D
:1058A80008B508F013FF08BD08B5FCF7DFFD08BD13
:1058B80008B5FCF7DBFD08BD08B5FCF7D7FD08BD4A
:1058C80008B5FCF7D3FD08BD08B5FCF7CFFD08BD4A
:1058D80008B5FCF7CBFD08BD08B5FCF7C7FD08BD4A
:1058E80008B5FCF7C3FD08BD08B5FCF7BFFD08BD4A
:1058F80008B5FCF7BBFD08BD08B5FCF7B7FD08BD4A
:1059080008B5FCF7B3FD08BD08B5FCF7AFFD08BD49
:1059180008B5FCF7ABFD08BD08B5FCF7A7FD08BD49
:1059280008B5FCF7A3FD08BD08B5FCF79FFD08BD49
:1059380008B5FCF79BFD08BD08B5FCF797FD08BD49
:1059480008B5FCF793FD08BD08B5FCF78FFD08BD49
:1059580008B5FCF78BFD08BD08B5FCF787FD08BD49
:1059680008B5FCF783FD08BD08B5FCF77FFD08BD49
:1059780008B5FCF77BFD08BD08B5FCF777FD08BD49
:1059880008B5FCF773FD08BD08B5FCF76FFD08BD49
:1059980008B5FCF76BFD08BD08B5FCF767FD08BD49
:1059A80008B5FCF763FD08BD08B5FCF75FFD08BD49
:1059B80008B5FCF75BFD08BD08B5FCF757FD08BD49
:1059C80008B5FCF753FD08BD08B5FCF74FFD08BD49
:1059D80008B5FCF74BFD08BD08B5FCF747FD08BD49
:1059E80008B5FCF743FD08BD08B5FCF73FFD08BD49
:1059F80008B5FCF73BFD08BD08B5FCF737FD08BD49
:105A080008B5FCF733FD08BD08B5FCF72FFD08BD48
:105A180008B5FCF72BFD08BD08B5FCF727FD08BD48
:105A280008B5FCF723FD08BD08B5FCF71FFD08BD48
:105A380008B5FCF71BFD08BD08B5FCF717FD08BD48
:105A480008B5FCF713FD08BD08B5FCF70FFD08BD48
:105A580008B5FCF70BFD08BD08B5FCF707FD08BD48
:105A680008B5FCF703FD08BD08B5FCF7FFFC08BD49
:105A780008B5FCF7FBFC08BD08B5FCF7F7FC08BD4A
:105A880008B5FCF7F3FC08BD08B5FCF7EFFC08BD4A
:105A980008B5FCF7EBFC08BD08B5FCF7E7FC08BD4A
:105AA80008B5FCF7E3FC08BD08B5FCF7DFFC08BD4A
:105AB80008B5FCF7DBFC08BD08B5FCF7D7FC08BD4A
:105AC80008B5FCF7D3FC08BD08B5FCF7CFFC08BD4A
:105AD80008B5FCF7CBFC08BD08B5FCF7C7FC08BD4A
:105AE80008B5FCF7C3FC08BD08B5FCF7BFFC08BD4A
:105AF80008B5FCF7BBFC08BD08B5FCF7B7FC08BD4A
:105B080008B5FCF7B3FC08BD08B5FCF7AFFC08BD49
:105B180008B5FCF7ABFC08BD08B5FCF7A7FC08BD49
:105B280008B5FCF7A3FC08BD08B5FCF79FFC08BD49
:105B380008B5FCF79BFC08BD08B5FCF797FC08BD49
:105B480008B5FCF793FC08BD08B5FCF78FFC08BD49
:105B580008B5FCF78BFC08BD08B5FCF787FC08BD49
:105B680008B5FCF783FC08BD08B5FCF77FFC08BD49
:105B780008B5FCF77BFC08BD08B5FCF777FC08BD49
:105B880008B5FCF773FC08BD08B5FCF76FFC08BD49
:105B980008B5FCF76BFC08BD08B5FCF767FC08BD49
:105BA80008B5FCF763FC08BD08B5FCF75FFC08BD49
:105BB80008B5FCF75BFC08BD08B5FCF757FC08BD49
:105BC80008B5FCF753FC08BD08B5FCF74FFC08BD49
:105BD80008B5FCF74BFC08BD08B5FCF747FC08BD49
:105BE80008B5FCF743FC08BD08B5FCF73FFC08BD49
:105BF80008B5FCF73BFC08BD08B5FCF737FC08BD49
:105C080008B5FCF733FC08BD08B5FCF72FFC08BD48
:105C180008B5FCF72BFC08BD08B5FCF727FC08BD48
:105C280008B5FCF723FC08BD08B5FCF71FFC08BD48
:105C380008B5FCF71BFC08BD08B5FCF717FC08BD48
:105C480008B5FCF713FC08BD08B5FCF70FFC08BD48
:105C580008B5FCF70BFC08BD08B5FCF707FC08BD48
:105C680008B5FCF703FC08BD08B5FCF7FFFB08BD49
:105C780008B5FCF7FBFB08BD08B5FCF7F7FB08BD4A
:105C880008B5FCF7F3FB08BD08B5FCF7EFFB08BD4A
:105C980008B5FCF7EBFB08BD08B5FCF7E7FB08BD4A
:105CA8002DE9F047002705463B4E0138DFF8F0C0E4
:105CB8003C46DFF8F0E005E0013759360CF1570CA7
:105CC800842F2CD01EF80730DA07F5D4A7F12B0360
:105CD800A6F1570261469BB2832B03F1010812D843
:105CE8001EF803309B070ED491F800A004F10109B7
:105CF800137800FB0A33B3FBF5F3DBB2132B0B70FD
:105D080098BF0FFA89F401321FFA88F30131B242C1
:105D1800E2D1013759360CF1570C842FD2D11F48E4
:105D28004FF00008DFF880906F1E07E008F10108C7
:105D3800593009F15709B8F1660F29D00EEB08035D
:105D480093F88430DE07F1D4A8F12B03A0F15702B1
:105D5800CC469BB2591C652B0EEB03068BB211D8AF
:105D680096F8841089070DD49CF800A0661C117859
:105D780007FB0A11B1FBF5F1C9B213298CF8001021
:105D880098BF34B201320CF1010C9042E2D1CDE758
:105D98002046BDE8F08700BF53130020974100203C
:105DA800ACC820200000202000A62020A04B197895
:105DB80011F001012DE9F04F824689B000F093807F
:105DC8009C4A1378917856780B2BD27801910392DC
:105DD80040F20781652B40F21F81974B4FF0000E70
:105DE8001868964A0EF10105954B00EB4E0002F536
:105DF800257102EB0E0BA3F1EC08ADB201EB0E0915
:105E08009E44002307930EE06B1CB5F5247F00F138
:105E180002000EF1010E0BF1010B09F101099BB211
:105E280000F287801D4602784478BAF1000F01D14C
:105E38008EF800A0B2427CD8019BA342E4D8039B11
:105E4800A342E1D308EB040393F8847017F0020728
:105E5800DAD102F10B0CFF2306905FFA8CFC029357
:105E6800CDE9047705E0531C9445DAB226D0B24256
:105E780024D8A31A08EB02019BB291F884102B33A3
:105E880011F0010F99B2EED15629ECD859206D497D
:105E98001BB2013700FB0211FFB2CB5C0499481C0E
:105EA8000299994228BF1946812B029145D8C3B25D
:105EB8009445049302F10103DAB2D8D10698002F71
:105EC800A2D0049B002B44D099F80030FD2B3CD87D
:105ED800079A0233013289F8003013B2079301237D
:105EE8008EF8003090E765268C4601913746039678
:105EF800514B40F291241868002310F81320451CD8
:105F08001FFA83FE8A4208D20133A3420FD010F849
:105F180013201FFA83FE8A42F6D315F81320BA42DB
:105F2800F2D86245BFF45DAF0133A342EFD100233D
:105F38000793079809B0BDE8F08F0599F02B01F198
:105F4800010190D9CBB205938DE79BF80030022B65
:105F580035D9059B002B3FF457AFBAF1000F04D099
:105F68009EF90030012B3FF44FAF029BBE2B7FF60A
:105F78004BAF059B03EB830303EB83039B00B3FB4E
:105F8800F7F3DBB2322B7FF63FAF9BF800305A1E97
:105F9800D2B2022A2AD803EB830399F800109B0097
:105FA800AA338B4229D2079B0239013389F80010A2
:105FB8001BB207934FF0FF338EF8003024E701330C
:105FC800079ADBB201328BF8003003EB830312B27D
:105FD8009B000792AA3389F8003001238EF800301D
:105FE80012E70021DDF804C0174681E799F8001090
:105FF8007829D8D8002B3FF407AF079B8BF80020EF
:106008004FF0FF3201338EF800206FF001021BB20F
:1060180089F800200793F7E60C22DDF804C0039FF7
:10602800B3FBF2F303EB43039900C9B260E700BF87
:10603800E81200203C4100209041000094410000FB
:10604800EC002020404100209E4B1B782DE9F04FAA
:10605800824613F0010089B000F091809A4A1378C3
:10606800917856780B2BD2780191039240F20681F1
:10607800832B40F21D81954B4FF0000CD3F82C1563
:10608800934A0CF10105934B01EB4C0102F55C704E
:1060980002EB0C0BA3F56078ADB200EB0C099C4445
:1060A800002307930EE040F26D326B1C02310CF1B5
:1060B800010C95420BF1010B09F101099BB200F2A9
:1060C80085801D460A784878BAF1000F01D18CF80E
:1060D80000A0B2427AD8019B8342E4D8039B834252
:1060E800E1D318F8004014F00204DCD102F10B0EE1
:1060F800FF2306915FFA8EFE0293CDE9044405E082
:10610800531C9645DAB225D0B24223D8831A18F820
:1061180002709BB217F0010F03F12B03F0D19FB26D
:10612800562FEDD859216C4F1BB2013401FB027771
:10613800E4B2FB5C049F791C029F9F4228BF1F4664
:10614800812B029746D8CBB29645049302F10103FE
:10615800DAB2D9D10699002CA5D0049B002B45D0E2
:1061680099F80030FD2B3DD8079A0233013289F89F
:10617800003013B2079301238CF8003093E783268D
:106188008646019037460396504B40F26E34D3F85A
:106198002C15002311F813204D1C1FFA83FC824292
:1061A80008D20133A3420FD011F813201FFA83FC41
:1061B8008242F6D315F81320BA42F2D87245BFF4DA
:1061C8005FAF0133A342EFD100230793079809B0CB
:1061D800BDE8F08F059FF02B07F1010790D9FBB2BE
:1061E80005938DE79BF80030022B35D9059B002BD2
:1061F8003FF459AFBAF1000F04D09CF90030012BDD
:106208003FF451AF029BA02B7FF64DAF059B03EBEC
:10621800830303EB83039B00B3FBF4F3DBB2322B62
:106228007FF641AF9BF800305A1ED2B2022A29D815
:1062380003EB830399F800009B00AA33834228D21A
:10624800079B0238013389F800001BB207934FF00F
:10625800FF338CF8003026E70133079ADBB20132AE
:106268008BF8003003EB830312B29B000792AA332A
:1062780089F8003001238CF8003014E70020174615
:106288008E4681E799F800007828D9D8002B3FF48A
:106298000AAF079B8BF800204FF0FF3201338CF8D0
:1062A80000206FF001021BB289F800200793FAE67C
:1062B8000C22039F8E46B3FBF2F303EB43039800D3
:1062C800C0B261E7E8120020F812002090410000F7
:1062D800C046000080032020FC1200204F4B1B7892
:1062E8009B0740F193804E4B2DE9F04F1B7883B00C
:1062F800312B1FB2019300F38C80BE46DFF82C913E
:106308002C22DFF82CB14FF0000ADFF82881A2F127
:1063180057035C4648465FFA8AF59BB2832BD9B28D
:1063280019D8A9428C46764638BFAC46BCF1070F4F
:1063380006D9A94228BF29467B298CBF76463E4606
:10634800C6F16406017806FB01F188FB01C6C9178E
:10635800C1EB661121700133013001349BB29342C5
:10636800DCD1013309F157090AF1010A0BF1570B86
:106378009AB22C4B9945CAD1272F48DD019BA3F12E
:10638800280636B2DFF8B0904FF02C0EDFF8ACB02C
:106398004FF0000ADFF89C80AEF157035846494693
:1063A8005FFA8AF49BB2652BDAB219D89442A446F4
:1063B800354638BF9446BCF1070F06D9A24228BF1C
:1063C80022465D2A8CBF35463D46C5F164050A78EC
:1063D80005FB02F288FB02C5D217C2EB65120270F8
:1063E8000133013101309BB27345DCD109F1570902
:1063F8000D4B0EF1010E0AF1010A4B450BF1570B3B
:106408001FFA8EFEC8D103B0BDE8F08F70473E4634
:10641800B8E7A3F1320E0FFA8EFE6FE7E8120020FC
:106428005CF3002088F52020AAC82020ACC82020D2
:106438009C2920201F85EB5100A62020F006202053
:106448002DE9F0470025DFF82CC1DFF82C81464CF8
:10645800AE462E46454FA5F12B03ACF157024146F7
:106468009BB20CE0E05C800713D582F8009081F8BD
:10647800009001320133013162459BB21DD0832B5C
:10648800F7D8605DC0F30009C007EBD516700E7031
:10649800EFE7107800EB800000EB80004000A7FBDE
:1064A8000090400908700028E3D1BEF1FF0FE0D04A
:1064B8000EF1010E5FFA8EFEDBE7013502F1570C93
:1064C80008F15708842DC6D14FF00008DFF8ACC09A
:1064D800DFF8AC90244E4546244FA8F12B03ACF1CD
:1064E8005702494606EB08049BB20EE0F01890F8F4
:1064F8008400800714D582F800A081F800A001323A
:106508000133013162459BB21CD0652BF7D894F852
:106518008400C0F3000AC007E8D515700D70EEE7D7
:106528001078C0EB00108000A7FB00A0400908709D
:106538000028E4D1BEF1FF0FE1D00EF1010E5FFAA1
:106548008EFEDCE708F1010802F1570C09F1570942
:10655800B8F1660FC1D1BEF1640F02D9044B012214
:106568005A71BDE8F08700BF000020201F85EB515D
:106578007465002003C920202479202057A62020F4
:10658800785620202DE9F0476648674C674A00F1A5
:10659800040C674900F10807664B00F10C06DFF8A8
:1065A800C8E100F1100504F2DC6954F804AB1832B4
:1065B8005CF8188B18334EF804AF4C4542F82C8C15
:1065C800D1F8048043F82C8CD1F8088043F8288C43
:1065D800D1F80C8043F8248CD1F8108043F8208C33
:1065E800D1F814A051F8188B43F81CAC43F8308C40
:1065F800D0F814A050F8188B42F81CAC42F8308C34
:1066080057F8188B42F8288C56F8188B42F8248CC7
:1066180055F8188B42F8208CC7D14748DFF84CC191
:10662800464900F1040E464A6446464B00F1080705
:10663800DFF83C8100F10C0600F110050CF5A46AA6
:1066480054F8049B1832183348F8049F54455EF8F0
:10665800189B42F82C9CD1F8049043F82C9CD0F855
:10666800149042F81C9CD1F8089043F8289CD1F863
:106678000C9043F8249CD1F8109043F8209CD1F852
:10668800149043F81C9C57F8189B42F8289C56F81D
:10669800189B42F8249C55F8189B42F8209C50F807
:1066A800189B42F8309C51F8189B43F8309CC7D18E
:1066B800254D264C264F274E274B07F58050274A55
:1066C80006F58051BCF82095D5F8C48ED5F8C8EEEB
:1066D800D5F8C0AED4F8C8CED4F8C45ED4F8C04E4D
:1066E800C3F8207702F54167C1F8C45EC1F8C04E0F
:1066F8001B4D1C4CC0F8C0AEC0F8C48EC0F8C8EE24
:1067080003F5FA70A3F81497C1F8C8CEC2F82C752F
:10671800C3F81857C3F81C471060C3F82467BDE8CE
:10672800F08700BF14310470382A0470B8C0000024
:106738003C5A0470909700008888047054A704702D
:10674800C4780000F85900008898047054B70470A1
:10675800AC780000E0590000885200009041000029
:10676800A0C00000789700009C4D0000648304706E
:1067780078540000474A4FF0806310B4C2F888305C
:1067880000BF00BF00BF00BF00BF00BF00BF00BF09
:1067980000BF00BF00BF00BF00BF00BF00BF00BFF9
:1067A80000BF00BF00BF00BF00BF00BF00BF00BFE9
:1067B80000BF00BF00BF00BF00BF00BF00BF00BFD9
:1067C80000BF00BF00BF00BF00BF00BF00BF00BFC9
:1067D80000BF00BF00BF00BF00BF00BF00BF00BFB9
:1067E80000BF00BF00BF00BF00BF00BF00BF00BFA9
:1067F80000BF00BF00BF00BF00BF00BF00BF00BF99
:1068080000BF00BF00BF00BF00BF00BF00BF00BF88
:1068180000BF00BF00BF00BF00BF00BF00BF00BF78
:1068280000BF00BF00BF00BF00BF00BF00BF00BF68
:1068380000BF00BF00BF00BF00BF00BF00BF00BF58
:1068480000BF00BF00BF00BF00BF00BF00BF00BF48
:1068580000BF00BF00BF00BF00BF00BF00BF00BF38
:1068680000BF00BF00BF00BF00BF00BF00BF00BF28
:1068780009494FF000600023084CC1F888004FF028
:106888008040074923700B7015234FF08071C2F8C0
:10689800880007E000C01B4000801B4053F3002025
:1068A80054F30020C2F8881000BF00BF00BF00BF2B
:1068B80000BF00BF00BF00BF00BF00BF00BF00BFD8
:1068C80000BF00BF00BF00BF00BF00BF00BF00BFC8
:1068D80000BF00BF00BF00BF00BF00BF00BF00BFB8
:1068E80000BF00BF00BF00BF00BF00BF00BF00BFA8
:1068F80000BF00BF00BF00BF00BF00BF00BF00BF98
:1069080000BF00BF00BF00BF00BF00BF00BF00BF87
:1069180000BF00BF00BF00BF00BF00BF00BF00BF77
:1069280000BF00BF00BF00BF00BF00BF00BF00BF67
:1069380000BF00BF00BF00BF00BF00BF00BF00BF57
:1069480000BF00BF00BF00BF00BF00BF00BF00BF47
:1069580000BF00BF00BF00BF00BF00BF00BF00BF37
:1069680000BF00BF00BF00BF00BF00BF00BF00BF27
:1069780000BF00BF00BF00BF00BF00BF00BF00BF17
:1069880000BF00BF00BF00BF00BF00BF00BF00BF07
:1069980000BF00BF00BF00BF00BF00BF00BF00BFF7
:1069A80000BF00BF00BF00BF00BF00BF00BF00BFE7
:1069B80000BF00BF00BF00BF00BF00BF00BF00BFD7
:1069C80000BF00BF00BF00BF00BF00BF00BF00BFC7
:1069D80000BF00BF00BF00BF00BF00BF00BF00BFB7
:1069E80000BF00BF00BF00BF00BF00BF00BF00BFA7
:1069F80000BF00BF00BF00BF00BF00BF00BF00BF97
:106A080000BF00BF00BF00BF00BF00BF00BF00BF86
:106A180000BF00BF00BF00BF00BF00BF00BF00BF76
:106A280000BF00BF00BF00BF00BF00BF00BF00BF66
:106A380000BF00BF00BF00BF00BF00BF00BF00BF56
:106A480000BF00BF00BF00BF00BF00BF00BF00BF46
:106A580000BF00BF00BF00BF00BF00BF00BF00BF36
:106A680000BF00BF00BF00BF00BF00BF00BF00BF26
:106A780000BF00BF00BF00BF00BF00BF00BF00BF16
:106A880000BF00BF00BF00BFC2F8841000BF00BF36
:106A980000BF00BF00BF00BF00BF00BF00BF00BFF6
:106AA80000BF00BF00BF00BF00BF00BF00BF00BFE6
:106AB80000BF00BF00BF00BF00BF00BF00BF00BFD6
:106AC80000BF00BF00BF00BF00BF00BF00BF00BFC6
:106AD80000BF00BF00BF00BF00BF00BF00BF00BFB6
:106AE80000BF00BF00BF00BF00BF00BF00BF00BFA6
:106AF80000BF00BF00BF00BF00BF00BF00BF00BF96
:106B080000BF00BF00BF00BF00BF00BF00BF00BF85
:106B180000BF00BF00BF00BF00BF00BF00BF00BF75
:106B280000BF00BF00BF00BF00BF00BF00BF00BF65
:106B380000BF00BF00BF00BF00BF00BF00BF00BF55
:106B480000BF00BF00BF00BF00BF00BF00BF00BF45
:106B580000BF00BF00BF00BF00BF00BF00BF00BF35
:106B680000BF00BF00BF00BF00BF00BF00BF00BF25
:106B780000BF00BF00BF00BF00BF00BF00BF00BF15
:106B880000BF00BF00BF00BF00BF00BF00BF00BF05
:106B980000BF00BF00BF00BF00BF00BF00BF00BFF5
:106BA80000BF00BF00BF00BF00BF00BF00BF00BFE5
:106BB80000BF00BF00BF00BF00BF00BF00BF00BFD5
:106BC80000BF00BF00BF00BF00BF00BF00BF00BFC5
:106BD80000BF00BF00BF00BF00BF00BF00BF00BFB5
:106BE80000BF00BF00BF00BF00BF00BF00BF00BFA5
:106BF80000BF00BF00BF00BF00BF00BF00BF00BF95
:106C080000BF00BF00BF00BF00BF00BF00BF00BF84
:106C180000BF00BF00BF00BF00BF00BF00BF00BF74
:106C280000BF00BF00BF00BF00BF00BF00BF00BF64
:106C380000BF00BF00BF00BF00BF00BF00BF00BF54
:106C480000BF00BF00BF00BF00BF00BF00BF00BF44
:106C580000BF00BF00BF00BF00BF00BF00BF00BF34
:106C680000BF00BF00BF00BF00BF00BF013B13F063
:106C7800FF037FF417AE4FF08044054B4FF6FF70CB
:106C8800C2F88840C2F888105DF8044B1880704735
:106C980036F30020F8B5FFF76DFD5B4C5B4A4FF00B
:106CA800FF314FF6FF70A2F1540343F8041B9342DF
:106CB800FBD103F1590218809870A242F3D1544ACB
:106CC8004FF0FF31534C4FF6FF70A2F1540343F8D5
:106CD800041B9342FBD103F1590218809870944227
:106CE800F3D14D4B4FF0C831A3F50A6E03F55B7233
:106CF80043F8041B9342FBD1484B4CF6C8004FF0B5
:106D0800C83103F52472AEF80C0C43F8041B934207
:106D1800FBD100210A204FF0C80C414F414E0A46D2
:106D2800414D424C424B8EF828C53870317028705E
:106D38002170995C6FF3000199540132842AF8D1CB
:106D48000022995C6FF3410199540132842AF8D1E9
:106D58000022995C6FF3820199540132842AF8D198
:106D680000229918013291F88400662A6FF3000016
:106D780081F88400F5D100229918013291F8840035
:106D8800662A6FF3410081F88400F5D10022991832
:106D9800013291F88400662A6FF3820081F884003A
:106DA800F5D124490023244C0A88244822F481720E
:106DB80023700370224C22F001022248237042F013
:106DC80002020360204C21480A8003704A78204D53
:106DD800204842F0020223801F4C2B7004601F4D94
:106DE8001F4C20482B70656A4A701F4A1F4905606E
:106DF80013801F4C1F4893800B804B211E4A238011
:106E080003701170F8BD00BF3441002050130020FA
:106E1800944100200A650020304A00002844000000
:106E28005EF300205DF3002062F3002061F3002090
:106E380000002020E812002060F300205FF300200B
:106E480063F30020E41200203AF3002057F30020F7
:106E580064F30020DC120020F824010058F300201D
:106E680000001F40F01200207465002046F3002047
:106E780042F3002052F300205CF300200B2970B588
:106E880044D9264CA4FB014E4FEADE0E0EEB4E0E03
:106E98004FEA8E0E5FFA8EFEC0B9832915D8204CB2
:106EA800014640F26E35D4F82C45661C02E00131EB
:106EB800A94230D014F811C088B2F445F7D316F8B7
:106EC80011C09445F3D39C45F1D870BD652920D8ED
:106ED80013494FF0000C40F291250C68661C03E042
:106EE8000CF1010CAC450FD014F81C101FFA8CF0F3
:106EF8007145F5D316F81C109942F1D89142E4D2A5
:106F08000CF1010CAC45EFD1604670BD4FF0000E9E
:106F1800C2E7002070BD084670BD00BFABAAAAAA90
:106F280090410000904B1B782DE9F04FDC068BB0A8
:106F38004ED58E4A8E49128809880A44042A00F3DD
:106F4800F58000256FF30413874A2C461370EEB2C0
:106F580001353046FEF72AFF034630461E46FFF746
:106F680073F801218319084604FA83F41BF0B4F876
:106F7800012100201BF0B0F8052DA4B2E7D1002CA8
:106F880000F0D480012108461BF0A6F8012100205A
:106F98001BF0A2F80120FEF783FE044650B9012138
:106FA80008461BF099F8012120461BF095F80220AD
:106FB800FEF776FEFFF744FA6B4B1B78980700F153
:106FC8000B826C4B002201201A600BB0BDE8F08FD9
:106FD80069486A4B6A4A01791B881288002900F0BF
:106FE8008D800121644A5171664B674A5B6A05923C
:106FF8001E2200230892604A93800023DFF8A091A4
:10700800DFF8A0B1079306930AE0099B002B40F034
:107018001D81079B089A01339A42079300F0C281A9
:107028009DF81C502846FEF7C1FE04462846FFF787
:107038000BF844EA000309901BB2002B00F0B28160
:107048002318069A01211A44084693B206931BF0A6
:1070580043F8012100201BF03FF8002CD5D0002375
:107068004A4A4B494B4802F157051E468E46804610
:107078009C46019303920291049028E09AF88410A8
:107088008E0736D494F800A0CAEB0A11BAF1130F90
:107098004FEA810107D8019EFF2E06F1010A02D0AE
:1070A8005FFA8AF60196ABFB01614909117001325A
:1070B80001330130013495429BB212D1009E5735FD
:1070C8000EF1570E08F159080136662E32D0A6F196
:1070D8002B03A5F15702444670469BB209EB0607FD
:1070E8000096652BE3D897F8841009EB030AC907C3
:1070F800C4D582F800C080F800C0D8E713444079AE
:10710800042B00F36181204A1E4B05925B6A1268CA
:107118009B1A214A1268934205D300287FF468AF6E
:107128000223089369E700287FF462AF00200BB0C0
:10713800BDE8F08F019B642B02D901230E4A5371DD
:10714800094B1B7899077FF560AF144B1B78272BE9
:107158000FFA83FE00F33581774600234FF02C08A1
:107168001D46019349E000BFE812002042F30020C9
:1071780046F30020E41200207465002040F300204C
:1071880044F3002000001F40F01200207856202011
:10719800F006202040410020DC1200205CF3002093
:1071A800000020201F85EB519AF8842092074AD4CA
:1071B800327802FB04F48BFB04A2E417C4EB6214DC
:1071C8000C7001330136013101309BB298451FD153
:1071D800049A08F10108019B59321FFA88F8013313
:1071E8000492029A662B019302F157020292039AC3
:1071F80002F1570203923FF408AF019A049EA2F1EC
:107208002B035FFA82FC4A449BB20092DDE902102C
:10721800652BDAB2D5D89445E2463C4638BF92464B
:10722800BAF1070F06D9624528BF62465D2A94BFA6
:1072380074463C46009AC4F1640409EB030A92F8C8
:107248008420D207B0D505700D70BAE74FF0000E54
:10725800634B644ADFF8A8A103F1570675469046C8
:1072680077460093019225E019F8032092072ED45F
:107278002278132A2ED8BEF1FF0F32D00EF1010E5C
:107288004FF0320C5FFA8EFE0CFB02F2ABFB02C22F
:1072980052090A700131013301300134B1429BB205
:1072A8000FD1013501F157060AF1570A08F15908BB
:1072B800842D19D0A5F12B03A6F157014446504659
:1072C8009BB2832BE6D819F80520D207CCD50F70CE
:1072D8000770DFE7F02A8CBF4FF03C0C4FF0320C00
:1072E800D2E74FF0320CCFE7BEF1640F02D9012389
:1072F8003D4A53713D4B1B789C077FF58AAE3C4B4A
:107308001B781AB2312B029257DC96464FF0000CCC
:10731800384E674621E019F8030080073FD4087803
:1073280005FB00F08BFB0085C017C0EB65101070E3
:107338000132013301310134B2429BB216D1019BB3
:107348000CF1010C57365933BCF1840F0193009BA3
:1073580003F1570300933FF45CAEACF12B03A6F1A5
:1073680057025FFA8CFA9BB2DDE90041832B5FFA82
:1073780083F8DDD8C2455546704638BF4546072DC7
:1073880007D9D045029828BFD046B8F17B0F88BFEF
:107398007046C0F1640519F80C00C007BBD527700A
:1073A8001770C5E7069A144B101E059A5B6A18BF3A
:1073B800012013600BB0BDE8F08F323B0FFA83FE5B
:1073C800A4E7283B1FB2C8E600287FF40DAE0A4A9E
:1073D8000A4B526A1A60AAE6FEF780FFF1E500BF81
:1073E80024792020FC12002074650020E812002077
:1073F8005CF30020F329202000001F40F012002039
:107408009C292020A34A136801332DE9F04F99B035
:10741800136005F0EBFEA04B1B78149313F00103E7
:10742800129300F0CC829D4B00229D4893F800A057
:10743800597802800FFA8AF91090514599481391AA
:10744800159002809878DB7804900593CDF804A015
:107458000D91C0F294820023149ADFF864B202F00E
:107468000201139E1C46079311910E910A930393F0
:107478001FFA89F00E9900EB80030C9000EB430390
:107488009BB21A1D03F6122392B29BB202920B937F
:107498005FFA89F3002940F0FC8159220693019B89
:1074A8005725DDF80C8002FB03F97F4A009405FBA1
:1074B800032C7E4B09F1FF35A0F12B029944563B72
:1074C8000CF1FF3C92B21D44CDF80C90009B0120BA
:1074D80015F8017F03F101090BB21CF801EF03F065
:1074E8000703BE4500FA03F3029800EBE10080B2FF
:1074F8001FD9019C1BF800E0B4421FFA89F443EA43
:107508000E030094069C0BF8003013B2B8BF264651
:10751800019C05985445069CC8BFA246834201DADF
:10752800D0B205900498834201DDD3B204930123BD
:107538000A9301323F2F08F1010301F1010192B2D0
:1075480003D81FFA83F801230793039B9D42BDD1FB
:10755800009CCDF80C800C9B03F101090D9B0FFAE0
:1075680089F99945CDF8049082DD0A9A039F13960C
:107578000F94002A00F0C982231E109A18BF012315
:1075880014800A93079B0BB1159B1F80129B002B3D
:1075980040F0F781464B652219461593129B964693
:1075A80010920B8099464349029316910B80194615
:1075B8000392069300229DF84430CDF85CA09346D0
:1075C800924611930892099288B2119D00EB8003AC
:1075D8000E9000EB43039BB203F5B66203F6BE734D
:1075E80092B29BB201920D93002D40F0E480069A6E
:1075F80057245FFA81F859232F4903FB02F304FB50
:1076080002162E4A5C1E2946D318013E0093A2F1A9
:107618005603A0F12B021C4492B20BB2012014F8BD
:10762800015F0BF1010C03F0070316F8017F00FA64
:1076380003F30198AF4200EBE10080B21AD9069F2C
:107648001FFA8CFB7745B8BFC6464F451C4FC8BFCD
:10765800C1463F5C3B431A4F3B5413B203989842D0
:1076680001DDD0B203900298984201DAD3B20293B6
:107678000123099301323F2D0AF1010301F10101B0
:1076880092B203D81FFA83FA01230893009B9C4205
:10769800C3D117E0E0120020E8120020F812002001
:1076A80040F3002042F300202479202052130020C8
:1076B80044F3002046F3002078562020964100200D
:1076C800B88000200E99109B013109B299420691A9
:1076D8007FF77AAF099B5246DDF85CA0002B00F0DB
:1076E8001682159BA3F800B00A9BBBF1050F94BF47
:1076F800002303F0010309930F9B5B4498B2089B96
:107708000BB1169B1A800F9B002B00F08781BBF1F1
:10771800000F00F01C82139B0F2B40F21F820F3BBF
:10772800D9B2BAF1730F00F21F820AF10F03DBB26C
:10773800059A0F2A40F216820F3AD4B2049A732A95
:1077480000F273810F32BEF10F0FD5B240F2738190
:10775800AEF10F02B9F1550FD6B200F2718109F1FD
:107768000F025FFA82F8039A0F2A40F26F810F3AEC
:107778005FFA82F9029A552A00F26E810F325FFA97
:1077880082FA129A002A40F06D81964F3A70099A4F
:10779800002A40F0A5810F9A052A03D9BBF1000FF2
:1077A80040F09E81904B00221A70042898BF002058
:1077B80019B0BDE8F08FCBB259228C480C93069BC8
:1077C800099F02FB03F157224C1E411802FB03F2EA
:1077D8000E9B0791A0F15601561E2B3B0C44844981
:1077E8009BB20A4400210B92824A1644009619E083
:1077F8000D9D0127804EAC441FFA8CFC16F80C50E6
:107808002A4306F80C203F2805D80AF1010A01226C
:107818001FFA8AFA0892079A01330131A2429BB2F1
:1078280000F0A880009A14F8010F12F8015F854251
:1078380000920AB2E7D9069DC1F3CF0C0C9F01262E
